{
  "_format": "hh-sol-artifact-1",
  "contractName": "MockUSDC",
  "sourceName": "contracts/MockUSDC.sol",
  "abi": [
    {
      "inputs": [],
      "stateMutability": "nonpayable",
      "type": "constructor"
    },
    {
      "inputs": [
        {
          "internalType": "address",
          "name": "spender",
          "type": "address"
        },
        {
          "internalType": "uint256",
          "name": "allowance",
          "type": "uint256"
        },
        {
          "internalType": "uint256",
          "name": "needed",
          "type": "uint256"
        }
      ],
      "name": "ERC20InsufficientAllowance",
      "type": "error"
    },
    {
      "inputs": [
        {
          "internalType": "address",
          "name": "sender",
          "type": "address"
        },
        {
          "internalType": "uint256",
          "name": "balance",
          "type": "uint256"
        },
        {
          "internalType": "uint256",
          "name": "needed",
          "type": "uint256"
        }
      ],
      "name": "ERC20InsufficientBalance",
      "type": "error"
    },
    {
      "inputs": [
        {
          "internalType": "address",
          "name": "approver",
          "type": "address"
        }
      ],
      "name": "ERC20InvalidApprover",
      "type": "error"
    },
    {
      "inputs": [
        {
          "internalType": "address",
          "name": "receiver",
          "type": "address"
        }
      ],
      "name": "ERC20InvalidReceiver",
      "type": "error"
    },
    {
      "inputs": [
        {
          "internalType": "address",
          "name": "sender",
          "type": "address"
        }
      ],
      "name": "ERC20InvalidSender",
      "type": "error"
    },
    {
      "inputs": [
        {
          "internalType": "address",
          "name": "spender",
          "type": "address"
        }
      ],
      "name": "ERC20InvalidSpender",
      "type": "error"
    },
    {
      "inputs": [
        {
          "internalType": "address",
          "name": "owner",
          "type": "address"
        }
      ],
      "name": "OwnableInvalidOwner",
      "type": "error"
    },
    {
      "inputs": [
        {
          "internalType": "address",
          "name": "account",
          "type": "address"
        }
      ],
      "name": "OwnableUnauthorizedAccount",
      "type": "error"
    },
    {
      "inputs": [],
      "name": "ReentrancyGuardReentrantCall",
      "type": "error"
    },
    {
      "anonymous": false,
      "inputs": [
        {
          "indexed": true,
          "internalType": "address",
          "name": "owner",
          "type": "address"
        },
        {
          "indexed": true,
          "internalType": "address",
          "name": "spender",
          "type": "address"
        },
        {
          "indexed": false,
          "internalType": "uint256",
          "name": "value",
          "type": "uint256"
        }
      ],
      "name": "Approval",
      "type": "event"
    },
    {
      "anonymous": false,
      "inputs": [
        {
          "indexed": true,
          "internalType": "address",
          "name": "user",
          "type": "address"
        },
        {
          "indexed": false,
          "internalType": "uint256",
          "name": "amount",
          "type": "uint256"
        }
      ],
      "name": "FaucetUsed",
      "type": "event"
    },
    {
      "anonymous": false,
      "inputs": [
        {
          "indexed": true,
          "internalType": "address",
          "name": "previousOwner",
          "type": "address"
        },
        {
          "indexed": true,
          "internalType": "address",
          "name": "newOwner",
          "type": "address"
        }
      ],
      "name": "OwnershipTransferred",
      "type": "event"
    },
    {
      "anonymous": false,
      "inputs": [
        {
          "indexed": true,
          "internalType": "address",
          "name": "from",
          "type": "address"
        },
        {
          "indexed": false,
          "internalType": "uint256",
          "name": "amount",
          "type": "uint256"
        }
      ],
      "name": "TokensBurned",
      "type": "event"
    },
    {
      "anonymous": false,
      "inputs": [
        {
          "indexed": true,
          "internalType": "address",
          "name": "from",
          "type": "address"
        },
        {
          "indexed": true,
          "internalType": "address",
          "name": "to",
          "type": "address"
        },
        {
          "indexed": false,
          "internalType": "uint256",
          "name": "value",
          "type": "uint256"
        }
      ],
      "name": "Transfer",
      "type": "event"
    },
    {
      "inputs": [],
      "name": "FAUCET_COOLDOWN",
      "outputs": [
        {
          "internalType": "uint256",
          "name": "",
          "type": "uint256"
        }
      ],
      "stateMutability": "view",
      "type": "function"
    },
    {
      "inputs": [],
      "name": "MAX_FAUCET_AMOUNT",
      "outputs": [
        {
          "internalType": "uint256",
          "name": "",
          "type": "uint256"
        }
      ],
      "stateMutability": "view",
      "type": "function"
    },
    {
      "inputs": [
        {
          "internalType": "address",
          "name": "owner",
          "type": "address"
        },
        {
          "internalType": "address",
          "name": "spender",
          "type": "address"
        }
      ],
      "name": "allowance",
      "outputs": [
        {
          "internalType": "uint256",
          "name": "",
          "type": "uint256"
        }
      ],
      "stateMutability": "view",
      "type": "function"
    },
    {
      "inputs": [
        {
          "internalType": "address",
          "name": "spender",
          "type": "address"
        },
        {
          "internalType": "uint256",
          "name": "value",
          "type": "uint256"
        }
      ],
      "name": "approve",
      "outputs": [
        {
          "internalType": "bool",
          "name": "",
          "type": "bool"
        }
      ],
      "stateMutability": "nonpayable",
      "type": "function"
    },
    {
      "inputs": [
        {
          "internalType": "address",
          "name": "account",
          "type": "address"
        }
      ],
      "name": "balanceOf",
      "outputs": [
        {
          "internalType": "uint256",
          "name": "",
          "type": "uint256"
        }
      ],
      "stateMutability": "view",
      "type": "function"
    },
    {
      "inputs": [
        {
          "internalType": "uint256",
          "name": "amount",
          "type": "uint256"
        }
      ],
      "name": "burn",
      "outputs": [],
      "stateMutability": "nonpayable",
      "type": "function"
    },
    {
      "inputs": [
        {
          "internalType": "address",
          "name": "from",
          "type": "address"
        },
        {
          "internalType": "uint256",
          "name": "amount",
          "type": "uint256"
        }
      ],
      "name": "burnFrom",
      "outputs": [],
      "stateMutability": "nonpayable",
      "type": "function"
    },
    {
      "inputs": [],
      "name": "decimals",
      "outputs": [
        {
          "internalType": "uint8",
          "name": "",
          "type": "uint8"
        }
      ],
      "stateMutability": "view",
      "type": "function"
    },
    {
      "inputs": [],
      "name": "faucet",
      "outputs": [],
      "stateMutability": "nonpayable",
      "type": "function"
    },
    {
      "inputs": [
        {
          "internalType": "address",
          "name": "user",
          "type": "address"
        }
      ],
      "name": "getFaucetInfo",
      "outputs": [
        {
          "internalType": "bool",
          "name": "canUseFaucet",
          "type": "bool"
        },
        {
          "internalType": "uint256",
          "name": "timeUntilNextFaucet",
          "type": "uint256"
        },
        {
          "internalType": "uint256",
          "name": "totalClaimed",
          "type": "uint256"
        }
      ],
      "stateMutability": "view",
      "type": "function"
    },
    {
      "inputs": [
        {
          "internalType": "address",
          "name": "",
          "type": "address"
        }
      ],
      "name": "lastFaucetTime",
      "outputs": [
        {
          "internalType": "uint256",
          "name": "",
          "type": "uint256"
        }
      ],
      "stateMutability": "view",
      "type": "function"
    },
    {
      "inputs": [
        {
          "internalType": "address",
          "name": "to",
          "type": "address"
        },
        {
          "internalType": "uint256",
          "name": "amount",
          "type": "uint256"
        }
      ],
      "name": "mint",
      "outputs": [],
      "stateMutability": "nonpayable",
      "type": "function"
    },
    {
      "inputs": [],
      "name": "name",
      "outputs": [
        {
          "internalType": "string",
          "name": "",
          "type": "string"
        }
      ],
      "stateMutability": "view",
      "type": "function"
    },
    {
      "inputs": [],
      "name": "owner",
      "outputs": [
        {
          "internalType": "address",
          "name": "",
          "type": "address"
        }
      ],
      "stateMutability": "view",
      "type": "function"
    },
    {
      "inputs": [],
      "name": "renounceOwnership",
      "outputs": [],
      "stateMutability": "nonpayable",
      "type": "function"
    },
    {
      "inputs": [
        {
          "internalType": "address",
          "name": "user",
          "type": "address"
        }
      ],
      "name": "resetFaucet",
      "outputs": [],
      "stateMutability": "nonpayable",
      "type": "function"
    },
    {
      "inputs": [],
      "name": "symbol",
      "outputs": [
        {
          "internalType": "string",
          "name": "",
          "type": "string"
        }
      ],
      "stateMutability": "view",
      "type": "function"
    },
    {
      "inputs": [
        {
          "internalType": "address",
          "name": "",
          "type": "address"
        }
      ],
      "name": "totalFaucetClaimed",
      "outputs": [
        {
          "internalType": "uint256",
          "name": "",
          "type": "uint256"
        }
      ],
      "stateMutability": "view",
      "type": "function"
    },
    {
      "inputs": [],
      "name": "totalFaucetSupply",
      "outputs": [
        {
          "internalType": "uint256",
          "name": "",
          "type": "uint256"
        }
      ],
      "stateMutability": "view",
      "type": "function"
    },
    {
      "inputs": [],
      "name": "totalSupply",
      "outputs": [
        {
          "internalType": "uint256",
          "name": "",
          "type": "uint256"
        }
      ],
      "stateMutability": "view",
      "type": "function"
    },
    {
      "inputs": [
        {
          "internalType": "address",
          "name": "to",
          "type": "address"
        },
        {
          "internalType": "uint256",
          "name": "value",
          "type": "uint256"
        }
      ],
      "name": "transfer",
      "outputs": [
        {
          "internalType": "bool",
          "name": "",
          "type": "bool"
        }
      ],
      "stateMutability": "nonpayable",
      "type": "function"
    },
    {
      "inputs": [
        {
          "internalType": "address",
          "name": "from",
          "type": "address"
        },
        {
          "internalType": "address",
          "name": "to",
          "type": "address"
        },
        {
          "internalType": "uint256",
          "name": "amount",
          "type": "uint256"
        }
      ],
      "name": "transferFrom",
      "outputs": [
        {
          "internalType": "bool",
          "name": "",
          "type": "bool"
        }
      ],
      "stateMutability": "nonpayable",
      "type": "function"
    },
    {
      "inputs": [
        {
          "internalType": "address",
          "name": "newOwner",
          "type": "address"
        }
      ],
      "name": "transferOwnership",
      "outputs": [],
      "stateMutability": "nonpayable",
      "type": "function"
    }
  ],
  "bytecode": "0x608034620003fd576040906001600160401b039080830182811182821017620002ff578352600d81526020906c26b7b1b5902aa9a21021b7b4b760991b8282015283519284840184811082821117620002ff578552600590818552646d5553444360d81b848601528251818111620002ff576003908154906001958683811c93168015620003f2575b88841014620003dc578190601f9384811162000388575b508890848311600114620003215760009262000315575b505060001982851b1c191690861b1782555b8651928311620002ff5760049687548681811c91168015620002f4575b88821014620002df57908183869594931162000287575b50879184116001146200021c5760009362000210575b505082851b92600019911b1c19161784555b3315620001f9578054336001600160a01b0319821681179092556001600160a01b03167f8be0079c531659141344cd1fd0a4f28419497f9722a3daafe3b4186f6b6457e0600080a360065564e8d4a510009182600a55600660ff19600754161760075560025490838201809211620001e457506000917fddf252ad1be2c89b69c2b068fc378daa952ba7f163c4a11628f55a4df523b3ef9160025533835282815284832084815401905584519384523393a351610ec29081620004038239f35b601190634e487b7160e01b6000525260246000fd5b8451631e4fbdf760e01b8152600081860152602490fd5b01519150388062000112565b9190869450601f1984169289600052886000209360005b8a82821062000270575050851162000255575b50505050811b01845562000124565b01519060f884600019921b161c191690553880808062000246565b8385015187558a9890960195938401930162000233565b9091929350886000528760002083808701881c8201928a8810620002d5575b91899188979695949301891c01915b828110620002c5575050620000fc565b60008155879650899101620002b5565b92508192620002a6565b602289634e487b7160e01b6000525260246000fd5b90607f1690620000e5565b634e487b7160e01b600052604160045260246000fd5b015190503880620000b6565b90889350601f19831691866000528a6000209260005b8c82821062000371575050841162000358575b505050811b018255620000c8565b015160001983871b60f8161c191690553880806200034a565b8385015186558c9790950194938401930162000337565b909150846000528860002084808501891c8201928b8610620003d2575b918a9186959493018a1c01915b828110620003c25750506200009f565b600081558594508a9101620003b2565b92508192620003a5565b634e487b7160e01b600052602260045260246000fd5b92607f169262000088565b600080fdfe6080604081815260048036101561001557600080fd5b600092833560e01c90816306fdde0314610b7857508063095ea7b314610acf57806318160ddd14610ab057806323b872dd146109bd578063305817e91461099e578063313ce5671461097c57806340c10f19146108df57806342966c681461089457806359c303ab1461078a5780636376d2d81461076b578381636cd40a58146107235750806370a08231146106ec578063715018a61461068c57806379cc6790146106275780637bc1f6cc146105ef5780637d1d5d19146105d25780638da5cb5b146105a957806395d89b4114610489578063a9059cbb14610458578063b7cbf50314610420578063dd62ed3e146103d7578063de5f72fd146101b45763f2fde38b1461012257600080fd5b346101b05760203660031901126101b05761013b610cb6565b90610144610ce7565b6001600160a01b0391821692831561019a575050600554826bffffffffffffffffffffffff60a01b821617600555167f8be0079c531659141344cd1fd0a4f28419497f9722a3daafe3b4186f6b6457e08380a380f35b51631e4fbdf760e01b8152908101849052602490fd5b8280fd5b509190346103d357816003193601126103d3576002600654146103c457600260065533825260206008815281832054610e1081018091116103b15742106103765733835260098152633b9aca009182818520541015610333576002548381018091116102b457600a54106102f057338452600882524281852055600982528084208054908482018092116102dd575533156102c7576002548381018091116102b457907fc471df7d13ab46c73ec6eb2da0f35f84077f20d50243ba09a714b82cffc54de99291600255338552848252808520848154019055805184815285600080516020610e6d833981519152843393a3519283523392a2600160065580f35b634e487b7160e01b855260118652602485fd5b5163ec442f0560e01b8152808501849052602490fd5b634e487b7160e01b865260118752602486fd5b5162461bcd60e51b815280850191909152601760248201527f46617563657420737570706c79206578686175737465640000000000000000006044820152606490fd5b5162461bcd60e51b815280850191909152601960248201527f4d61782066617563657420616d6f756e742072656163686564000000000000006044820152606490fd5b8390606492519162461bcd60e51b8352820152601660248201527546617563657420636f6f6c646f776e2061637469766560501b6044820152fd5b634e487b7160e01b845260118552602484fd5b51633ee5aeb560e01b81529050fd5b5080fd5b5050346103d357806003193601126103d357806020926103f5610cb6565b6103fd610cd1565b6001600160a01b0391821683526001865283832091168252845220549051908152f35b5050346103d35760203660031901126103d35760209181906001600160a01b03610448610cb6565b1681526009845220549051908152f35b5050346103d357806003193601126103d357602090610482610478610cb6565b6024359033610d13565b5160018152f35b509190346103d357816003193601126103d357805190828454600181811c9080831692831561059f575b602093848410811461058c57838852908115610570575060011461051b575b505050829003601f01601f191682019267ffffffffffffffff8411838510176105085750829182610504925282610c6d565b0390f35b634e487b7160e01b815260418552602490fd5b8787529192508591837f8a35acfbc15ff81a39ae7d344fd709f28e8600b4aa8c65c6b64bfe7fe36bd19b5b83851061055c57505050508301013880806104d2565b805488860183015293019284908201610546565b60ff1916878501525050151560051b84010190503880806104d2565b634e487b7160e01b895260228a52602489fd5b91607f16916104b3565b5050346103d357816003193601126103d35760055490516001600160a01b039091168152602090f35b5050346103d357816003193601126103d35760209051610e108152f35b5050346103d35760203660031901126103d35760209181906001600160a01b03610617610cb6565b1681526008845220549051908152f35b5050346103d357806003193601126103d3577ffd38818f5291bf0bb3a2a48aadc06ba8757865d1dabd804585338aab3009dcb66020610664610cb6565b60243593610670610ce7565b61067a8583610ddf565b519384526001600160a01b031692a280f35b83346106e957806003193601126106e9576106a5610ce7565b600580546001600160a01b0319811690915581906001600160a01b03167f8be0079c531659141344cd1fd0a4f28419497f9722a3daafe3b4186f6b6457e08280a380f35b80fd5b5050346103d35760203660031901126103d35760209181906001600160a01b03610714610cb6565b16815280845220549051908152f35b8084346107685760203660031901126107685761073e610cb6565b610746610ce7565b6001600160a01b03168252600860209081528183208390556009905281205580f35b50fd5b5050346103d357816003193601126103d35760209051633b9aca008152f35b509190346103d357602090816003193601126101b0576107a8610cb6565b6001600160a01b03168084526008835281842054610e10949085810190811061083457421015948561087b575b82825260088552838220548181018091116108685742101561085a578282526008855283822054908082019182811161084757429003019081116108345760609650908391925b81526009855220549282519415158552840152820152f35b634e487b7160e01b825260118752602482fd5b634e487b7160e01b845260118952602484fd5b50606095508083919261081c565b634e487b7160e01b835260118852602483fd5b945081815260098452633b9aca008382205410946107d5565b50346101b05760203660031901126101b05735906108b28233610ddf565b519081527ffd38818f5291bf0bb3a2a48aadc06ba8757865d1dabd804585338aab3009dcb660203392a280f35b5090346101b057806003193601126101b0576108f9610cb6565b9060243591610906610ce7565b6001600160a01b0316928315610967576002549083820180921161095457508492600080516020610e6d8339815191529260209260025585855284835280852082815401905551908152a380f35b634e487b7160e01b865260119052602485fd5b84602492519163ec442f0560e01b8352820152fd5b5050346103d357816003193601126103d35760209060ff600754169051908152f35b5050346103d357816003193601126103d357602090600a549051908152f35b5082346106e95760603660031901126106e9576109d8610cb6565b6109e0610cd1565b916044359360018060a01b038316808352600160205286832033845260205286832054916000198310610a1c575b602088610482898989610d13565b868310610a84578115610a6d573315610a565750825260016020908152868320338452815291869020908590039055829061048287610a0e565b8751634a1406b160e11b8152908101849052602490fd5b875163e602df0560e01b8152908101849052602490fd5b8751637dc7a0d960e11b8152339181019182526020820193909352604081018790528291506060010390fd5b5050346103d357816003193601126103d3576020906002549051908152f35b50346101b057816003193601126101b057610ae8610cb6565b602435903315610b61576001600160a01b0316918215610b4a57508083602095338152600187528181208582528752205582519081527f8c5be1e5ebec7d5bd14f71427d1e84f3dd0314c0f7b2291e5b200ac8c7c3b925843392a35160018152f35b8351634a1406b160e11b8152908101859052602490fd5b835163e602df0560e01b8152808401869052602490fd5b84915083346101b057826003193601126101b05782600354600181811c90808316928315610c63575b602093848410811461058c57838852908115610c475750600114610bf157505050829003601f01601f191682019267ffffffffffffffff8411838510176105085750829182610504925282610c6d565b600387529192508591837fc2575a0e9e593c00f959f8c92f12db2869c3395a3b0502d05e2516446f71f85b5b838510610c3357505050508301018580806104d2565b805488860183015293019284908201610c1d565b60ff1916878501525050151560051b84010190508580806104d2565b91607f1691610ba1565b6020808252825181830181905290939260005b828110610ca257505060409293506000838284010152601f8019910116010190565b818101860151848201604001528501610c80565b600435906001600160a01b0382168203610ccc57565b600080fd5b602435906001600160a01b0382168203610ccc57565b6005546001600160a01b03163303610cfb57565b60405163118cdaa760e01b8152336004820152602490fd5b916001600160a01b03808416928315610dc65716928315610dad5760009083825281602052604082205490838210610d7b57509160408282600080516020610e6d833981519152958760209652828652038282205586815220818154019055604051908152a3565b60405163391434e360e21b81526001600160a01b03919091166004820152602481019190915260448101839052606490fd5b60405163ec442f0560e01b815260006004820152602490fd5b604051634b637e8f60e11b815260006004820152602490fd5b906001600160a01b038216908115610dc65760009282845283602052604084205490828210610e3a575081600080516020610e6d833981519152926020928587528684520360408620558060025403600255604051908152a3565b60405163391434e360e21b81526001600160a01b03919091166004820152602481019190915260448101829052606490fdfeddf252ad1be2c89b69c2b068fc378daa952ba7f163c4a11628f55a4df523b3efa2646970667358221220acb811d7ee509c1b284acf92129a5a767f3a56ca9c5b2a008f03d09fd555b8c264736f6c63430008140033",
  "linkReferences": {},
  "deployedLinkReferences": {}
}