{"contracts/DebateToken.sol":{"DebateToken":{"abi":[{"inputs":[],"stateMutability":"nonpayable","type":"constructor"},{"inputs":[{"internalType":"address","name":"spender","type":"address"},{"internalType":"uint256","name":"allowance","type":"uint256"},{"internalType":"uint256","name":"needed","type":"uint256"}],"name":"ERC20InsufficientAllowance","type":"error"},{"inputs":[{"internalType":"address","name":"sender","type":"address"},{"internalType":"uint256","name":"balance","type":"uint256"},{"internalType":"uint256","name":"needed","type":"uint256"}],"name":"ERC20InsufficientBalance","type":"error"},{"inputs":[{"internalType":"address","name":"approver","type":"address"}],"name":"ERC20InvalidApprover","type":"error"},{"inputs":[{"internalType":"address","name":"receiver","type":"address"}],"name":"ERC20InvalidReceiver","type":"error"},{"inputs":[{"internalType":"address","name":"sender","type":"address"}],"name":"ERC20InvalidSender","type":"error"},{"inputs":[{"internalType":"address","name":"spender","type":"address"}],"name":"ERC20InvalidSpender","type":"error"},{"inputs":[],"name":"EnforcedPause","type":"error"},{"inputs":[],"name":"ExpectedPause","type":"error"},{"inputs":[{"internalType":"address","name":"owner","type":"address"}],"name":"OwnableInvalidOwner","type":"error"},{"inputs":[{"internalType":"address","name":"account","type":"address"}],"name":"OwnableUnauthorizedAccount","type":"error"},{"inputs":[],"name":"ReentrancyGuardReentrantCall","type":"error"},{"anonymous":false,"inputs":[{"indexed":true,"internalType":"address","name":"owner","type":"address"},{"indexed":true,"internalType":"address","name":"spender","type":"address"},{"indexed":false,"internalType":"uint256","name":"value","type":"uint256"}],"name":"Approval","type":"event"},{"anonymous":false,"inputs":[{"indexed":true,"internalType":"address","name":"previousOwner","type":"address"},{"indexed":true,"internalType":"address","name":"newOwner","type":"address"}],"name":"OwnershipTransferred","type":"event"},{"anonymous":false,"inputs":[{"indexed":false,"internalType":"address","name":"account","type":"address"}],"name":"Paused","type":"event"},{"anonymous":false,"inputs":[{"indexed":true,"internalType":"address","name":"user","type":"address"},{"indexed":false,"internalType":"uint256","name":"amount","type":"uint256"}],"name":"RewardsClaimed","type":"event"},{"anonymous":false,"inputs":[{"indexed":true,"internalType":"address","name":"from","type":"address"},{"indexed":false,"internalType":"uint256","name":"amount","type":"uint256"}],"name":"TokensBurned","type":"event"},{"anonymous":false,"inputs":[{"indexed":true,"internalType":"address","name":"user","type":"address"},{"indexed":false,"internalType":"uint256","name":"amount","type":"uint256"},{"indexed":false,"internalType":"uint256","name":"lockPeriod","type":"uint256"}],"name":"TokensStaked","type":"event"},{"anonymous":false,"inputs":[{"indexed":true,"internalType":"address","name":"user","type":"address"},{"indexed":false,"internalType":"uint256","name":"amount","type":"uint256"},{"indexed":false,"internalType":"uint256","name":"reward","type":"uint256"}],"name":"TokensUnstaked","type":"event"},{"anonymous":false,"inputs":[{"indexed":true,"internalType":"address","name":"from","type":"address"},{"indexed":true,"internalType":"address","name":"to","type":"address"},{"indexed":false,"internalType":"uint256","name":"value","type":"uint256"}],"name":"Transfer","type":"event"},{"anonymous":false,"inputs":[{"indexed":false,"internalType":"address","name":"account","type":"address"}],"name":"Unpaused","type":"event"},{"inputs":[],"name":"BURN_RATE","outputs":[{"internalType":"uint256","name":"","type":"uint256"}],"stateMutability":"view","type":"function"},{"inputs":[],"name":"MAX_SUPPLY","outputs":[{"internalType":"uint256","name":"","type":"uint256"}],"stateMutability":"view","type":"function"},{"inputs":[],"name":"STAKING_REWARD_RATE","outputs":[{"internalType":"uint256","name":"","type":"uint256"}],"stateMutability":"view","type":"function"},{"inputs":[{"internalType":"address","name":"owner","type":"address"},{"internalType":"address","name":"spender","type":"address"}],"name":"allowance","outputs":[{"internalType":"uint256","name":"","type":"uint256"}],"stateMutability":"view","type":"function"},{"inputs":[{"internalType":"address","name":"spender","type":"address"},{"internalType":"uint256","name":"value","type":"uint256"}],"name":"approve","outputs":[{"internalType":"bool","name":"","type":"bool"}],"stateMutability":"nonpayable","type":"function"},{"inputs":[{"internalType":"address","name":"account","type":"address"}],"name":"balanceOf","outputs":[{"internalType":"uint256","name":"","type":"uint256"}],"stateMutability":"view","type":"function"},{"inputs":[{"internalType":"uint256","name":"value","type":"uint256"}],"name":"burn","outputs":[],"stateMutability":"nonpayable","type":"function"},{"inputs":[{"internalType":"address","name":"account","type":"address"},{"internalType":"uint256","name":"value","type":"uint256"}],"name":"burnFrom","outputs":[],"stateMutability":"nonpayable","type":"function"},{"inputs":[{"components":[{"internalType":"uint256","name":"amount","type":"uint256"},{"internalType":"uint256","name":"timestamp","type":"uint256"},{"internalType":"uint256","name":"lockPeriod","type":"uint256"},{"internalType":"bool","name":"isActive","type":"bool"}],"internalType":"struct DebateToken.Stake","name":"stake","type":"tuple"}],"name":"calculateReward","outputs":[{"internalType":"uint256","name":"","type":"uint256"}],"stateMutability":"view","type":"function"},{"inputs":[],"name":"decimals","outputs":[{"internalType":"uint8","name":"","type":"uint8"}],"stateMutability":"pure","type":"function"},{"inputs":[{"internalType":"address","name":"user","type":"address"}],"name":"getPendingRewards","outputs":[{"internalType":"uint256","name":"totalRewards","type":"uint256"}],"stateMutability":"view","type":"function"},{"inputs":[{"internalType":"address","name":"user","type":"address"}],"name":"getUserStakes","outputs":[{"components":[{"internalType":"uint256","name":"amount","type":"uint256"},{"internalType":"uint256","name":"timestamp","type":"uint256"},{"internalType":"uint256","name":"lockPeriod","type":"uint256"},{"internalType":"bool","name":"isActive","type":"bool"}],"internalType":"struct DebateToken.Stake[]","name":"stakes","type":"tuple[]"}],"stateMutability":"view","type":"function"},{"inputs":[{"internalType":"address","name":"to","type":"address"},{"internalType":"uint256","name":"amount","type":"uint256"}],"name":"mintDebateReward","outputs":[],"stateMutability":"nonpayable","type":"function"},{"inputs":[],"name":"name","outputs":[{"internalType":"string","name":"","type":"string"}],"stateMutability":"view","type":"function"},{"inputs":[],"name":"owner","outputs":[{"internalType":"address","name":"","type":"address"}],"stateMutability":"view","type":"function"},{"inputs":[],"name":"pause","outputs":[],"stateMutability":"nonpayable","type":"function"},{"inputs":[],"name":"paused","outputs":[{"internalType":"bool","name":"","type":"bool"}],"stateMutability":"view","type":"function"},{"inputs":[],"name":"renounceOwnership","outputs":[],"stateMutability":"nonpayable","type":"function"},{"inputs":[{"internalType":"uint256","name":"amount","type":"uint256"},{"internalType":"uint256","name":"lockPeriod","type":"uint256"}],"name":"stake","outputs":[],"stateMutability":"nonpayable","type":"function"},{"inputs":[],"name":"symbol","outputs":[{"internalType":"string","name":"","type":"string"}],"stateMutability":"view","type":"function"},{"inputs":[{"internalType":"address","name":"","type":"address"}],"name":"totalStaked","outputs":[{"internalType":"uint256","name":"","type":"uint256"}],"stateMutability":"view","type":"function"},{"inputs":[],"name":"totalStakedSupply","outputs":[{"internalType":"uint256","name":"","type":"uint256"}],"stateMutability":"view","type":"function"},{"inputs":[],"name":"totalSupply","outputs":[{"internalType":"uint256","name":"","type":"uint256"}],"stateMutability":"view","type":"function"},{"inputs":[{"internalType":"address","name":"to","type":"address"},{"internalType":"uint256","name":"value","type":"uint256"}],"name":"transfer","outputs":[{"internalType":"bool","name":"","type":"bool"}],"stateMutability":"nonpayable","type":"function"},{"inputs":[{"internalType":"address","name":"from","type":"address"},{"internalType":"address","name":"to","type":"address"},{"internalType":"uint256","name":"value","type":"uint256"}],"name":"transferFrom","outputs":[{"internalType":"bool","name":"","type":"bool"}],"stateMutability":"nonpayable","type":"function"},{"inputs":[{"internalType":"address","name":"newOwner","type":"address"}],"name":"transferOwnership","outputs":[],"stateMutability":"nonpayable","type":"function"},{"inputs":[],"name":"unpause","outputs":[],"stateMutability":"nonpayable","type":"function"},{"inputs":[{"internalType":"uint256","name":"stakeIndex","type":"uint256"}],"name":"unstake","outputs":[],"stateMutability":"nonpayable","type":"function"},{"inputs":[{"internalType":"address","name":"","type":"address"},{"internalType":"uint256","name":"","type":"uint256"}],"name":"userStakes","outputs":[{"internalType":"uint256","name":"amount","type":"uint256"},{"internalType":"uint256","name":"timestamp","type":"uint256"},{"internalType":"uint256","name":"lockPeriod","type":"uint256"},{"internalType":"bool","name":"isActive","type":"bool"}],"stateMutability":"view","type":"function"}],"evm":{"bytecode":{"linkReferences":{},"object":"60803462000415576001600160401b03906040908082018381118282101762000315578252600c815260206b2232b130ba32902a37b5b2b760a11b818301528251918383018381108682111762000315578452600683526544454241544560d01b82840152805194808611620003155760038054966001938489811c991680156200040a575b868a1014620003f4578190601f998a81116200039e575b5086908a831160011462000337576000926200032b575b505060001982841b1c191690841b1781555b8451918211620003155760049485548481811c911680156200030a575b86821014620002f557888111620002aa575b508497831160011462000241579682939495969760009362000235575b505082841b92600019911b1c19161783555b33156200021e5760058054610100600160a81b0319811633600881811b610100600160a81b03169290921790935560ff9391929083901c6001600160a01b03167f8be0079c531659141344cd1fd0a4f28419497f9722a3daafe3b4186f6b6457e0600080a3600655166200020f576002546a52b7d2dcc80cd2e400000092838201809211620001fa57506000917fddf252ad1be2c89b69c2b068fc378daa952ba7f163c4a11628f55a4df523b3ef9160025533835282815284832084815401905584519384523393a3516116a490816200041b8239f35b601190634e487b7160e01b6000525260246000fd5b50905163d93c066560e01b8152fd5b8351631e4fbdf760e01b8152600081850152602490fd5b01519150388062000111565b90601f1983169786600052856000209260005b8a811062000294575084869798999a1062000279575b50505050811b01835562000123565b01519060f884600019921b161c19169055388080806200026a565b8183015185559386019391870191870162000254565b86600052856000208980860160051c820192888710620002eb575b0160051c019085905b828110620002de575050620000f4565b60008155018590620002ce565b92508192620002c5565b602287634e487b7160e01b6000525260246000fd5b90607f1690620000e2565b634e487b7160e01b600052604160045260246000fd5b015190503880620000b3565b90869350601f1983169185600052886000209260005b8a8282106200038757505084116200036e575b505050811b018155620000c5565b015160001983861b60f8161c1916905538808062000360565b8385015186558a979095019493840193016200034d565b90915083600052866000208a80850160051c820192898610620003ea575b918891869594930160051c01915b828110620003da5750506200009c565b60008155859450889101620003ca565b92508192620003bc565b634e487b7160e01b600052602260045260246000fd5b98607f169862000085565b600080fdfe608060409080825260048036101561001657600080fd5b600091823560e01c90816306fdde0314610f2d57508063095ea7b314610e825780630f1a290514610e6657806318160ddd14610e4757806323b872dd14610e0a5780632e17de7814610c2c578063313ce56714610c1057806332cb6b0c14610be95780633f4ba83a14610b7e57806342966c6814610b615780635c975abb14610b3d57806370a0823114610b06578063715018a614610aa557806379cc679014610a755780637b0472f0146108ac578063842e2981146106c05780638456cb59146106655780638da5cb5b1461063857806395d89b411461053557806399f85e3a146104dd5780639bfd8d61146104a5578063a9059cbb14610474578063b5d5b5fa146103fd578063bcdc3cfc146103de578063dd62ed3e14610395578063f2fde38b146102f7578063f6ed20171461020b578063f846a885146101ef5763fd3b5cdd1461016357600080fd5b346101eb57826003193601126101eb5761017b61106c565b60243591610187611123565b6b033b2e3c9fd0803ce80000006101a0846002546114dc565b116101b35750906101b09161156e565b80f35b606490602086519162461bcd60e51b8352820152601260248201527145786365656473206d617820737570706c7960701b6044820152fd5b5080fd5b8284346101eb57816003193601126101eb576020905160028152f35b508290346102f357602092836003193601126102f05761022961106c565b6001600160a01b03168152600784528281208054909282919061024b82611613565b94610258875196876110cf565b82865283528683208390888088015b8584106102d2575050505050505b82518110156102c957606061028a828561163a565b5101516102a0575b61029b9061162b565b610275565b906102c161029b916102bb6102b5858761163a565b516115c2565b906114dc565b919050610292565b84828551908152f35b60019185916102e08561152a565b8152019201920191908990610267565b80fd5b8280fd5b508290346102f35760203660031901126102f35761031361106c565b61031b611123565b6001600160a01b0381811693909290841561037f57505060058054610100600160a81b03198116600893841b610100600160a81b031617909155901c167f8be0079c531659141344cd1fd0a4f28419497f9722a3daafe3b4186f6b6457e08380a380f35b51631e4fbdf760e01b8152908101859052602490fd5b8284346101eb57806003193601126101eb57806020926103b361106c565b6103bb611087565b6001600160a01b0391821683526001865283832091168252845220549051908152f35b8284346101eb57816003193601126101eb576020906009549051908152f35b8284346101eb57806003193601126101eb5761041761106c565b6001600160a01b031682526007602052808220805460243593908410156102f05750608092610445916110f1565b509081549160018101549160ff6003600284015493015416928151948552602085015283015215156060820152f35b8284346101eb57806003193601126101eb5760209061049e61049461106c565b6024359033611152565b5160018152f35b8284346101eb5760203660031901126101eb5760209181906001600160a01b036104cd61106c565b1681526008845220549051908152f35b509190346102f05760803660031901126102f0578151926104fd8461109d565b3583526024356020840152604435828401526064359081151582036102f057508261052e91606060209501526115c2565b9051908152f35b5091346101eb57816003193601126101eb57805191809380549160019083821c9282851694851561062e575b602095868610811461061b578589529081156105f7575060011461059f575b61059b8787610591828c03836110cf565b5191829182611023565b0390f35b81529295507f8a35acfbc15ff81a39ae7d344fd709f28e8600b4aa8c65c6b64bfe7fe36bd19b5b8284106105e4575050508261059b9461059192820101943880610580565b80548685018801529286019281016105c6565b60ff19168887015250505050151560051b83010192506105918261059b3880610580565b634e487b7160e01b845260228352602484fd5b93607f1693610561565b8284346101eb57816003193601126101eb57600554905160089190911c6001600160a01b03168152602090f35b8284346101eb57816003193601126101eb5760207f62e78cea01bee320cd4e420270b5ea74000d11b0c9f74754ebdbfc544b05a258916106a3611123565b6106ab6114e9565b600160ff19600554161760055551338152a180f35b509190346102f057602091826003193601126101eb576001600160a01b036106e661106c565b16825260078352808220938454906106fd82611613565b9561070a845197886110cf565b82875284528484208490868089015b85841061088e5750505050505081805b855181101561076957606061073e828861163a565b510151610754575b61074f9061162b565b610729565b9261076161074f9161162b565b939050610746565b5092909361077683611613565b92610783865194856110cf565b808452610792601f1991611613565b0182855b828110610862575050508391845b82518110156108055760606107b9828561163a565b5101516107cf575b6107ca9061162b565b6107a4565b926107fd6107ca916107e1868661163a565b516107ec828961163a565b526107f7818861163a565b5061162b565b9390506107c1565b5093915050835192808401908085528351809252808686019401925b82811061082e5785850386f35b8351805186528083015186840152878101518887015260609081015115159086015260809094019392810192600101610821565b875161086d8161109d565b87815287838201528789820152876060820152828288010152018390610796565b600191859161089c8561152a565b8152019201920191908790610719565b5091346101eb57806003193601126101eb578235906024356108cc611507565b6108d46114e9565b8215610a325733845260208481528383862054106109f9576108f7843033611152565b33855260078152828520835161090c8161109d565b85815282810142815285820190858252606083019360018552805490680100000000000000008210156109e65790610949916001820181556110f1565b9390936109d4577fdd2a19c3bdd089cbe77c04f5655f83de0504d6140d12c8667646f55d0557c4dc98999a50906003939291518355516001830155516002820155019051151560ff80198354169116179055338652600881528286206109b08682546114dc565b90556109be856009546114dc565b60095582519485528401523392a2600160065580f35b634e487b7160e01b8a52898b5260248afd5b634e487b7160e01b8b5260418c5260248bfd5b8560649184519162461bcd60e51b83528201526014602482015273496e73756666696369656e742062616c616e636560601b6044820152fd5b815162461bcd60e51b8152602081870152601d60248201527f416d6f756e74206d7573742062652067726561746572207468616e20300000006044820152606490fd5b8284346101eb573660031901126102f0576101b0610a9161106c565b60243590610aa0823383611374565b611447565b82346102f057806003193601126102f057610abe611123565b60058054610100600160a81b03198116909155819060081c6001600160a01b03167f8be0079c531659141344cd1fd0a4f28419497f9722a3daafe3b4186f6b6457e08280a380f35b8284346101eb5760203660031901126101eb5760209181906001600160a01b03610b2e61106c565b16815280845220549051908152f35b8284346101eb57816003193601126101eb5760209060ff6005541690519015158152f35b50346101eb5760203660031901126101eb576101b0903533611447565b508290346102f357826003193601126102f357610b99611123565b6005549060ff821615610bdb575060ff1916600555513381527f5db9ee0a495bf2e6ff9c91a7834c1ba4fdd244a5e8aa4e537bd38aeae4b073aa90602090a180f35b8251638dfc202b60e01b8152fd5b8284346101eb57816003193601126101eb57602090516b033b2e3c9fd0803ce80000008152f35b8284346101eb57816003193601126101eb576020905160128152f35b5091346101eb57602090816003193601126102f3578335610c4b611507565b3384526007835281842054811015610dd157610c7090338552600784528285206110f1565b5091600383019081549560ff871615610d9d57610c9660018601546002870154906114dc565b4210610d675750610d24849596610cd7610cd27f6f2d3e000c89d37446b7c0374c0125068ff316d1e3ee302336478a8cd03c233697549861152a565b6115c2565b93610ce285896114dc565b9160ff1916905533885260088352848820610cfe888254611561565b9055610d0c87600954611561565b60095583151580610d46575b610d37575b3330611152565b82519485528401523392a2600160065580f35b610d41843061156e565b610d1d565b506b033b2e3c9fd0803ce8000000610d60856002546114dc565b1115610d18565b60649184519162461bcd60e51b8352820152601260248201527114dd185ad9481cdd1a5b1b081b1bd8dad95960721b6044820152fd5b60649184519162461bcd60e51b8352820152601060248201526f5374616b65206e6f742061637469766560801b6044820152fd5b815162461bcd60e51b81528086018490526013602482015272092dcecc2d8d2c840e6e8c2d6ca40d2dcc8caf606b1b6044820152606490fd5b8284346101eb5760603660031901126101eb5760209061049e610e2b61106c565b610e33611087565b60443591610e42833383611374565b611152565b8284346101eb57816003193601126101eb576020906002549051908152f35b8284346101eb57816003193601126101eb576020905160058152f35b508290346102f357816003193601126102f357610e9d61106c565b602435903315610f16576001600160a01b0316918215610eff57508083602095338152600187528181208582528752205582519081527f8c5be1e5ebec7d5bd14f71427d1e84f3dd0314c0f7b2291e5b200ac8c7c3b925843392a35160018152f35b8351634a1406b160e11b8152908101859052602490fd5b835163e602df0560e01b8152808401869052602490fd5b918491503461101f578360031936011261101f57600354600181811c9186908281168015611015575b60209586861082146110025750848852908115610fe05750600114610f87575b61059b8686610591828b03836110cf565b929550600383527fc2575a0e9e593c00f959f8c92f12db2869c3395a3b0502d05e2516446f71f85b5b828410610fcd575050508261059b94610591928201019486610f76565b8054868501880152928601928101610fb0565b60ff191687860152505050151560051b83010192506105918261059b86610f76565b634e487b7160e01b845260229052602483fd5b93607f1693610f56565b8380fd5b6020808252825181830181905290939260005b82811061105857505060409293506000838284010152601f8019910116010190565b818101860151848201604001528501611036565b600435906001600160a01b038216820361108257565b600080fd5b602435906001600160a01b038216820361108257565b6080810190811067ffffffffffffffff8211176110b957604052565b634e487b7160e01b600052604160045260246000fd5b90601f8019910116810190811067ffffffffffffffff8211176110b957604052565b805482101561110d5760005260206000209060021b0190600090565b634e487b7160e01b600052603260045260246000fd5b60055460081c6001600160a01b0316330361113a57565b60405163118cdaa760e01b8152336004820152602490fd5b6001600160a01b038082168015949093909291908561135b571693841561134257823085141580611338575b611240575b5061118c6114e9565b156111d057506020816111b060008051602061164f833981519152936002546114dc565b6002555b84600052600082526040600020818154019055604051908152a3565b6000908382528160205260408220549083821061120e5750918160408260008051602061164f833981519152958760209652838652039120556111b4565b60405163391434e360e21b81526001600160a01b03919091166004820152602481019190915260448101839052606490fd5b8060011b81810460021482151715611322576064900480611262575b50611183565b9150925061126e6114e9565b6000928484528360205260408420548281106112f25790826112ea9392878752866020520360408620558160025403600255848660008051602061164f8339815191526020604051868152a3857ffd38818f5291bf0bb3a2a48aadc06ba8757865d1dabd804585338aab3009dcb66020604051858152a2611561565b91388061125c565b60405163391434e360e21b81526001600160a01b0385166004820152602481019190915260448101839052606490fd5b634e487b7160e01b600052601160045260246000fd5b503086141561117e565b60405163ec442f0560e01b815260006004820152602490fd5b604051634b637e8f60e11b815260006004820152602490fd5b9160018060a01b0380931691600093838552600160205260409384862091831691828752602052848620549260001984106113b3575b50505050505050565b848410611417575080156113ff5781156113e7578552600160205283852090855260205203912055388080808080806113aa565b8451634a1406b160e11b815260048101879052602490fd5b845163e602df0560e01b815260048101879052602490fd5b8551637dc7a0d960e11b81526001600160a01b039190911660048201526024810184905260448101859052606490fd5b906001600160a01b03821690811561135b576114616114e9565b600092828452836020526040842054908282106114aa57508160008051602061164f833981519152926020928587528684520360408620558060025403600255604051908152a3565b60405163391434e360e21b81526001600160a01b03919091166004820152602481019190915260448101829052606490fd5b9190820180921161132257565b60ff600554166114f557565b60405163d93c066560e01b8152600490fd5b600260065414611518576002600655565b604051633ee5aeb560e01b8152600490fd5b906040516115378161109d565b606060ff600383958054855260018101546020860152600281015460408601520154161515910152565b9190820391821161132257565b6001600160a01b03169081156113425760008051602061164f833981519152602060009261159a6114e9565b6115a6816002546114dc565b60025584845283825260408420818154019055604051908152a3565b60608101511561160d576115da602082015142611561565b90516005810290808204600514901517156113225760649004818102918183041490151715611322576301e13380900490565b50600090565b67ffffffffffffffff81116110b95760051b60200190565b60001981146113225760010190565b805182101561110d5760209160051b01019056feddf252ad1be2c89b69c2b068fc378daa952ba7f163c4a11628f55a4df523b3efa2646970667358221220d067bdf5b4257f5fd9a4b2c4d0719e61bc0e7a2496935c0a17d8dd0897bb813064736f6c63430008140033","opcodes":"PUSH1 0x80 CALLVALUE PUSH3 0x415 JUMPI PUSH1 0x1 PUSH1 0x1 PUSH1 0x40 SHL SUB SWAP1 PUSH1 0x40 SWAP1 DUP1 DUP3 ADD DUP4 DUP2 GT DUP3 DUP3 LT OR PUSH3 0x315 JUMPI DUP3 MSTORE PUSH1 0xC DUP2 MSTORE PUSH1 0x20 PUSH12 0x2232B130BA32902A37B5B2B7 PUSH1 0xA1 SHL DUP2 DUP4 ADD MSTORE DUP3 MLOAD SWAP2 DUP4 DUP4 ADD DUP4 DUP2 LT DUP7 DUP3 GT OR PUSH3 0x315 JUMPI DUP5 MSTORE PUSH1 0x6 DUP4 MSTORE PUSH6 0x444542415445 PUSH1 0xD0 SHL DUP3 DUP5 ADD MSTORE DUP1 MLOAD SWAP5 DUP1 DUP7 GT PUSH3 0x315 JUMPI PUSH1 0x3 DUP1 SLOAD SWAP7 PUSH1 0x1 SWAP4 DUP5 DUP10 DUP2 SHR SWAP10 AND DUP1 ISZERO PUSH3 0x40A JUMPI JUMPDEST DUP7 DUP11 LT EQ PUSH3 0x3F4 JUMPI DUP2 SWAP1 PUSH1 0x1F SWAP10 DUP11 DUP2 GT PUSH3 0x39E JUMPI JUMPDEST POP DUP7 SWAP1 DUP11 DUP4 GT PUSH1 0x1 EQ PUSH3 0x337 JUMPI PUSH1 0x0 SWAP3 PUSH3 0x32B JUMPI JUMPDEST POP POP PUSH1 0x0 NOT DUP3 DUP5 SHL SHR NOT AND SWAP1 DUP5 SHL OR DUP2 SSTORE JUMPDEST DUP5 MLOAD SWAP2 DUP3 GT PUSH3 0x315 JUMPI PUSH1 0x4 SWAP5 DUP6 SLOAD DUP5 DUP2 DUP2 SHR SWAP2 AND DUP1 ISZERO PUSH3 0x30A JUMPI JUMPDEST DUP7 DUP3 LT EQ PUSH3 0x2F5 JUMPI DUP9 DUP2 GT PUSH3 0x2AA JUMPI JUMPDEST POP DUP5 SWAP8 DUP4 GT PUSH1 0x1 EQ PUSH3 0x241 JUMPI SWAP7 DUP3 SWAP4 SWAP5 SWAP6 SWAP7 SWAP8 PUSH1 0x0 SWAP4 PUSH3 0x235 JUMPI JUMPDEST POP POP DUP3 DUP5 SHL SWAP3 PUSH1 0x0 NOT SWAP2 SHL SHR NOT AND OR DUP4 SSTORE JUMPDEST CALLER ISZERO PUSH3 0x21E JUMPI PUSH1 0x5 DUP1 SLOAD PUSH2 0x100 PUSH1 0x1 PUSH1 0xA8 SHL SUB NOT DUP2 AND CALLER PUSH1 0x8 DUP2 DUP2 SHL PUSH2 0x100 PUSH1 0x1 PUSH1 0xA8 SHL SUB AND SWAP3 SWAP1 SWAP3 OR SWAP1 SWAP4 SSTORE PUSH1 0xFF SWAP4 SWAP2 SWAP3 SWAP1 DUP4 SWAP1 SHR PUSH1 0x1 PUSH1 0x1 PUSH1 0xA0 SHL SUB AND PUSH32 0x8BE0079C531659141344CD1FD0A4F28419497F9722A3DAAFE3B4186F6B6457E0 PUSH1 0x0 DUP1 LOG3 PUSH1 0x6 SSTORE AND PUSH3 0x20F JUMPI PUSH1 0x2 SLOAD PUSH11 0x52B7D2DCC80CD2E4000000 SWAP3 DUP4 DUP3 ADD DUP1 SWAP3 GT PUSH3 0x1FA JUMPI POP PUSH1 0x0 SWAP2 PUSH32 0xDDF252AD1BE2C89B69C2B068FC378DAA952BA7F163C4A11628F55A4DF523B3EF SWAP2 PUSH1 0x2 SSTORE CALLER DUP4 MSTORE DUP3 DUP2 MSTORE DUP5 DUP4 KECCAK256 DUP5 DUP2 SLOAD ADD SWAP1 SSTORE DUP5 MLOAD SWAP4 DUP5 MSTORE CALLER SWAP4 LOG3 MLOAD PUSH2 0x16A4 SWAP1 DUP2 PUSH3 0x41B DUP3 CODECOPY RETURN JUMPDEST PUSH1 0x11 SWAP1 PUSH4 0x4E487B71 PUSH1 0xE0 SHL PUSH1 0x0 MSTORE MSTORE PUSH1 0x24 PUSH1 0x0 REVERT JUMPDEST POP SWAP1 MLOAD PUSH4 0xD93C0665 PUSH1 0xE0 SHL DUP2 MSTORE REVERT JUMPDEST DUP4 MLOAD PUSH4 0x1E4FBDF7 PUSH1 0xE0 SHL DUP2 MSTORE PUSH1 0x0 DUP2 DUP6 ADD MSTORE PUSH1 0x24 SWAP1 REVERT JUMPDEST ADD MLOAD SWAP2 POP CODESIZE DUP1 PUSH3 0x111 JUMP JUMPDEST SWAP1 PUSH1 0x1F NOT DUP4 AND SWAP8 DUP7 PUSH1 0x0 MSTORE DUP6 PUSH1 0x0 KECCAK256 SWAP3 PUSH1 0x0 JUMPDEST DUP11 DUP2 LT PUSH3 0x294 JUMPI POP DUP5 DUP7 SWAP8 SWAP9 SWAP10 SWAP11 LT PUSH3 0x279 JUMPI JUMPDEST POP POP POP POP DUP2 SHL ADD DUP4 SSTORE PUSH3 0x123 JUMP JUMPDEST ADD MLOAD SWAP1 PUSH1 0xF8 DUP5 PUSH1 0x0 NOT SWAP3 SHL AND SHR NOT AND SWAP1 SSTORE CODESIZE DUP1 DUP1 DUP1 PUSH3 0x26A JUMP JUMPDEST DUP2 DUP4 ADD MLOAD DUP6 SSTORE SWAP4 DUP7 ADD SWAP4 SWAP2 DUP8 ADD SWAP2 DUP8 ADD PUSH3 0x254 JUMP JUMPDEST DUP7 PUSH1 0x0 MSTORE DUP6 PUSH1 0x0 KECCAK256 DUP10 DUP1 DUP7 ADD PUSH1 0x5 SHR DUP3 ADD SWAP3 DUP9 DUP8 LT PUSH3 0x2EB JUMPI JUMPDEST ADD PUSH1 0x5 SHR ADD SWAP1 DUP6 SWAP1 JUMPDEST DUP3 DUP2 LT PUSH3 0x2DE JUMPI POP POP PUSH3 0xF4 JUMP JUMPDEST PUSH1 0x0 DUP2 SSTORE ADD DUP6 SWAP1 PUSH3 0x2CE JUMP JUMPDEST SWAP3 POP DUP2 SWAP3 PUSH3 0x2C5 JUMP JUMPDEST PUSH1 0x22 DUP8 PUSH4 0x4E487B71 PUSH1 0xE0 SHL PUSH1 0x0 MSTORE MSTORE PUSH1 0x24 PUSH1 0x0 REVERT JUMPDEST SWAP1 PUSH1 0x7F AND SWAP1 PUSH3 0xE2 JUMP JUMPDEST PUSH4 0x4E487B71 PUSH1 0xE0 SHL PUSH1 0x0 MSTORE PUSH1 0x41 PUSH1 0x4 MSTORE PUSH1 0x24 PUSH1 0x0 REVERT JUMPDEST ADD MLOAD SWAP1 POP CODESIZE DUP1 PUSH3 0xB3 JUMP JUMPDEST SWAP1 DUP7 SWAP4 POP PUSH1 0x1F NOT DUP4 AND SWAP2 DUP6 PUSH1 0x0 MSTORE DUP9 PUSH1 0x0 KECCAK256 SWAP3 PUSH1 0x0 JUMPDEST DUP11 DUP3 DUP3 LT PUSH3 0x387 JUMPI POP POP DUP5 GT PUSH3 0x36E JUMPI JUMPDEST POP POP POP DUP2 SHL ADD DUP2 SSTORE PUSH3 0xC5 JUMP JUMPDEST ADD MLOAD PUSH1 0x0 NOT DUP4 DUP7 SHL PUSH1 0xF8 AND SHR NOT AND SWAP1 SSTORE CODESIZE DUP1 DUP1 PUSH3 0x360 JUMP JUMPDEST DUP4 DUP6 ADD MLOAD DUP7 SSTORE DUP11 SWAP8 SWAP1 SWAP6 ADD SWAP5 SWAP4 DUP5 ADD SWAP4 ADD PUSH3 0x34D JUMP JUMPDEST SWAP1 SWAP2 POP DUP4 PUSH1 0x0 MSTORE DUP7 PUSH1 0x0 KECCAK256 DUP11 DUP1 DUP6 ADD PUSH1 0x5 SHR DUP3 ADD SWAP3 DUP10 DUP7 LT PUSH3 0x3EA JUMPI JUMPDEST SWAP2 DUP9 SWAP2 DUP7 SWAP6 SWAP5 SWAP4 ADD PUSH1 0x5 SHR ADD SWAP2 JUMPDEST DUP3 DUP2 LT PUSH3 0x3DA JUMPI POP POP PUSH3 0x9C JUMP JUMPDEST PUSH1 0x0 DUP2 SSTORE DUP6 SWAP5 POP DUP9 SWAP2 ADD PUSH3 0x3CA JUMP JUMPDEST SWAP3 POP DUP2 SWAP3 PUSH3 0x3BC JUMP JUMPDEST PUSH4 0x4E487B71 PUSH1 0xE0 SHL PUSH1 0x0 MSTORE PUSH1 0x22 PUSH1 0x4 MSTORE PUSH1 0x24 PUSH1 0x0 REVERT JUMPDEST SWAP9 PUSH1 0x7F AND SWAP9 PUSH3 0x85 JUMP JUMPDEST PUSH1 0x0 DUP1 REVERT INVALID PUSH1 0x80 PUSH1 0x40 SWAP1 DUP1 DUP3 MSTORE PUSH1 0x4 DUP1 CALLDATASIZE LT ISZERO PUSH2 0x16 JUMPI PUSH1 0x0 DUP1 REVERT JUMPDEST PUSH1 0x0 SWAP2 DUP3 CALLDATALOAD PUSH1 0xE0 SHR SWAP1 DUP2 PUSH4 0x6FDDE03 EQ PUSH2 0xF2D JUMPI POP DUP1 PUSH4 0x95EA7B3 EQ PUSH2 0xE82 JUMPI DUP1 PUSH4 0xF1A2905 EQ PUSH2 0xE66 JUMPI DUP1 PUSH4 0x18160DDD EQ PUSH2 0xE47 JUMPI DUP1 PUSH4 0x23B872DD EQ PUSH2 0xE0A JUMPI DUP1 PUSH4 0x2E17DE78 EQ PUSH2 0xC2C JUMPI DUP1 PUSH4 0x313CE567 EQ PUSH2 0xC10 JUMPI DUP1 PUSH4 0x32CB6B0C EQ PUSH2 0xBE9 JUMPI DUP1 PUSH4 0x3F4BA83A EQ PUSH2 0xB7E JUMPI DUP1 PUSH4 0x42966C68 EQ PUSH2 0xB61 JUMPI DUP1 PUSH4 0x5C975ABB EQ PUSH2 0xB3D JUMPI DUP1 PUSH4 0x70A08231 EQ PUSH2 0xB06 JUMPI DUP1 PUSH4 0x715018A6 EQ PUSH2 0xAA5 JUMPI DUP1 PUSH4 0x79CC6790 EQ PUSH2 0xA75 JUMPI DUP1 PUSH4 0x7B0472F0 EQ PUSH2 0x8AC JUMPI DUP1 PUSH4 0x842E2981 EQ PUSH2 0x6C0 JUMPI DUP1 PUSH4 0x8456CB59 EQ PUSH2 0x665 JUMPI DUP1 PUSH4 0x8DA5CB5B EQ PUSH2 0x638 JUMPI DUP1 PUSH4 0x95D89B41 EQ PUSH2 0x535 JUMPI DUP1 PUSH4 0x99F85E3A EQ PUSH2 0x4DD JUMPI DUP1 PUSH4 0x9BFD8D61 EQ PUSH2 0x4A5 JUMPI DUP1 PUSH4 0xA9059CBB EQ PUSH2 0x474 JUMPI DUP1 PUSH4 0xB5D5B5FA EQ PUSH2 0x3FD JUMPI DUP1 PUSH4 0xBCDC3CFC EQ PUSH2 0x3DE JUMPI DUP1 PUSH4 0xDD62ED3E EQ PUSH2 0x395 JUMPI DUP1 PUSH4 0xF2FDE38B EQ PUSH2 0x2F7 JUMPI DUP1 PUSH4 0xF6ED2017 EQ PUSH2 0x20B JUMPI DUP1 PUSH4 0xF846A885 EQ PUSH2 0x1EF JUMPI PUSH4 0xFD3B5CDD EQ PUSH2 0x163 JUMPI PUSH1 0x0 DUP1 REVERT JUMPDEST CALLVALUE PUSH2 0x1EB JUMPI DUP3 PUSH1 0x3 NOT CALLDATASIZE ADD SLT PUSH2 0x1EB JUMPI PUSH2 0x17B PUSH2 0x106C JUMP JUMPDEST PUSH1 0x24 CALLDATALOAD SWAP2 PUSH2 0x187 PUSH2 0x1123 JUMP JUMPDEST PUSH12 0x33B2E3C9FD0803CE8000000 PUSH2 0x1A0 DUP5 PUSH1 0x2 SLOAD PUSH2 0x14DC JUMP JUMPDEST GT PUSH2 0x1B3 JUMPI POP SWAP1 PUSH2 0x1B0 SWAP2 PUSH2 0x156E JUMP JUMPDEST DUP1 RETURN JUMPDEST PUSH1 0x64 SWAP1 PUSH1 0x20 DUP7 MLOAD SWAP2 PUSH3 0x461BCD PUSH1 0xE5 SHL DUP4 MSTORE DUP3 ADD MSTORE PUSH1 0x12 PUSH1 0x24 DUP3 ADD MSTORE PUSH18 0x45786365656473206D617820737570706C79 PUSH1 0x70 SHL PUSH1 0x44 DUP3 ADD MSTORE REVERT JUMPDEST POP DUP1 REVERT JUMPDEST DUP3 DUP5 CALLVALUE PUSH2 0x1EB JUMPI DUP2 PUSH1 0x3 NOT CALLDATASIZE ADD SLT PUSH2 0x1EB JUMPI PUSH1 0x20 SWAP1 MLOAD PUSH1 0x2 DUP2 MSTORE RETURN JUMPDEST POP DUP3 SWAP1 CALLVALUE PUSH2 0x2F3 JUMPI PUSH1 0x20 SWAP3 DUP4 PUSH1 0x3 NOT CALLDATASIZE ADD SLT PUSH2 0x2F0 JUMPI PUSH2 0x229 PUSH2 0x106C JUMP JUMPDEST PUSH1 0x1 PUSH1 0x1 PUSH1 0xA0 SHL SUB AND DUP2 MSTORE PUSH1 0x7 DUP5 MSTORE DUP3 DUP2 KECCAK256 DUP1 SLOAD SWAP1 SWAP3 DUP3 SWAP2 SWAP1 PUSH2 0x24B DUP3 PUSH2 0x1613 JUMP JUMPDEST SWAP5 PUSH2 0x258 DUP8 MLOAD SWAP7 DUP8 PUSH2 0x10CF JUMP JUMPDEST DUP3 DUP7 MSTORE DUP4 MSTORE DUP7 DUP4 KECCAK256 DUP4 SWAP1 DUP9 DUP1 DUP9 ADD JUMPDEST DUP6 DUP5 LT PUSH2 0x2D2 JUMPI POP POP POP POP POP POP JUMPDEST DUP3 MLOAD DUP2 LT ISZERO PUSH2 0x2C9 JUMPI PUSH1 0x60 PUSH2 0x28A DUP3 DUP6 PUSH2 0x163A JUMP JUMPDEST MLOAD ADD MLOAD PUSH2 0x2A0 JUMPI JUMPDEST PUSH2 0x29B SWAP1 PUSH2 0x162B JUMP JUMPDEST PUSH2 0x275 JUMP JUMPDEST SWAP1 PUSH2 0x2C1 PUSH2 0x29B SWAP2 PUSH2 0x2BB PUSH2 0x2B5 DUP6 DUP8 PUSH2 0x163A JUMP JUMPDEST MLOAD PUSH2 0x15C2 JUMP JUMPDEST SWAP1 PUSH2 0x14DC JUMP JUMPDEST SWAP2 SWAP1 POP PUSH2 0x292 JUMP JUMPDEST DUP5 DUP3 DUP6 MLOAD SWAP1 DUP2 MSTORE RETURN JUMPDEST PUSH1 0x1 SWAP2 DUP6 SWAP2 PUSH2 0x2E0 DUP6 PUSH2 0x152A JUMP JUMPDEST DUP2 MSTORE ADD SWAP3 ADD SWAP3 ADD SWAP2 SWAP1 DUP10 SWAP1 PUSH2 0x267 JUMP JUMPDEST DUP1 REVERT JUMPDEST DUP3 DUP1 REVERT JUMPDEST POP DUP3 SWAP1 CALLVALUE PUSH2 0x2F3 JUMPI PUSH1 0x20 CALLDATASIZE PUSH1 0x3 NOT ADD SLT PUSH2 0x2F3 JUMPI PUSH2 0x313 PUSH2 0x106C JUMP JUMPDEST PUSH2 0x31B PUSH2 0x1123 JUMP JUMPDEST PUSH1 0x1 PUSH1 0x1 PUSH1 0xA0 SHL SUB DUP2 DUP2 AND SWAP4 SWAP1 SWAP3 SWAP1 DUP5 ISZERO PUSH2 0x37F JUMPI POP POP PUSH1 0x5 DUP1 SLOAD PUSH2 0x100 PUSH1 0x1 PUSH1 0xA8 SHL SUB NOT DUP2 AND PUSH1 0x8 SWAP4 DUP5 SHL PUSH2 0x100 PUSH1 0x1 PUSH1 0xA8 SHL SUB AND OR SWAP1 SWAP2 SSTORE SWAP1 SHR AND PUSH32 0x8BE0079C531659141344CD1FD0A4F28419497F9722A3DAAFE3B4186F6B6457E0 DUP4 DUP1 LOG3 DUP1 RETURN JUMPDEST MLOAD PUSH4 0x1E4FBDF7 PUSH1 0xE0 SHL DUP2 MSTORE SWAP1 DUP2 ADD DUP6 SWAP1 MSTORE PUSH1 0x24 SWAP1 REVERT JUMPDEST DUP3 DUP5 CALLVALUE PUSH2 0x1EB JUMPI DUP1 PUSH1 0x3 NOT CALLDATASIZE ADD SLT PUSH2 0x1EB JUMPI DUP1 PUSH1 0x20 SWAP3 PUSH2 0x3B3 PUSH2 0x106C JUMP JUMPDEST PUSH2 0x3BB PUSH2 0x1087 JUMP JUMPDEST PUSH1 0x1 PUSH1 0x1 PUSH1 0xA0 SHL SUB SWAP2 DUP3 AND DUP4 MSTORE PUSH1 0x1 DUP7 MSTORE DUP4 DUP4 KECCAK256 SWAP2 AND DUP3 MSTORE DUP5 MSTORE KECCAK256 SLOAD SWAP1 MLOAD SWAP1 DUP2 MSTORE RETURN JUMPDEST DUP3 DUP5 CALLVALUE PUSH2 0x1EB JUMPI DUP2 PUSH1 0x3 NOT CALLDATASIZE ADD SLT PUSH2 0x1EB JUMPI PUSH1 0x20 SWAP1 PUSH1 0x9 SLOAD SWAP1 MLOAD SWAP1 DUP2 MSTORE RETURN JUMPDEST DUP3 DUP5 CALLVALUE PUSH2 0x1EB JUMPI DUP1 PUSH1 0x3 NOT CALLDATASIZE ADD SLT PUSH2 0x1EB JUMPI PUSH2 0x417 PUSH2 0x106C JUMP JUMPDEST PUSH1 0x1 PUSH1 0x1 PUSH1 0xA0 SHL SUB AND DUP3 MSTORE PUSH1 0x7 PUSH1 0x20 MSTORE DUP1 DUP3 KECCAK256 DUP1 SLOAD PUSH1 0x24 CALLDATALOAD SWAP4 SWAP1 DUP5 LT ISZERO PUSH2 0x2F0 JUMPI POP PUSH1 0x80 SWAP3 PUSH2 0x445 SWAP2 PUSH2 0x10F1 JUMP JUMPDEST POP SWAP1 DUP2 SLOAD SWAP2 PUSH1 0x1 DUP2 ADD SLOAD SWAP2 PUSH1 0xFF PUSH1 0x3 PUSH1 0x2 DUP5 ADD SLOAD SWAP4 ADD SLOAD AND SWAP3 DUP2 MLOAD SWAP5 DUP6 MSTORE PUSH1 0x20 DUP6 ADD MSTORE DUP4 ADD MSTORE ISZERO ISZERO PUSH1 0x60 DUP3 ADD MSTORE RETURN JUMPDEST DUP3 DUP5 CALLVALUE PUSH2 0x1EB JUMPI DUP1 PUSH1 0x3 NOT CALLDATASIZE ADD SLT PUSH2 0x1EB JUMPI PUSH1 0x20 SWAP1 PUSH2 0x49E PUSH2 0x494 PUSH2 0x106C JUMP JUMPDEST PUSH1 0x24 CALLDATALOAD SWAP1 CALLER PUSH2 0x1152 JUMP JUMPDEST MLOAD PUSH1 0x1 DUP2 MSTORE RETURN JUMPDEST DUP3 DUP5 CALLVALUE PUSH2 0x1EB JUMPI PUSH1 0x20 CALLDATASIZE PUSH1 0x3 NOT ADD SLT PUSH2 0x1EB JUMPI PUSH1 0x20 SWAP2 DUP2 SWAP1 PUSH1 0x1 PUSH1 0x1 PUSH1 0xA0 SHL SUB PUSH2 0x4CD PUSH2 0x106C JUMP JUMPDEST AND DUP2 MSTORE PUSH1 0x8 DUP5 MSTORE KECCAK256 SLOAD SWAP1 MLOAD SWAP1 DUP2 MSTORE RETURN JUMPDEST POP SWAP2 SWAP1 CALLVALUE PUSH2 0x2F0 JUMPI PUSH1 0x80 CALLDATASIZE PUSH1 0x3 NOT ADD SLT PUSH2 0x2F0 JUMPI DUP2 MLOAD SWAP3 PUSH2 0x4FD DUP5 PUSH2 0x109D JUMP JUMPDEST CALLDATALOAD DUP4 MSTORE PUSH1 0x24 CALLDATALOAD PUSH1 0x20 DUP5 ADD MSTORE PUSH1 0x44 CALLDATALOAD DUP3 DUP5 ADD MSTORE PUSH1 0x64 CALLDATALOAD SWAP1 DUP2 ISZERO ISZERO DUP3 SUB PUSH2 0x2F0 JUMPI POP DUP3 PUSH2 0x52E SWAP2 PUSH1 0x60 PUSH1 0x20 SWAP6 ADD MSTORE PUSH2 0x15C2 JUMP JUMPDEST SWAP1 MLOAD SWAP1 DUP2 MSTORE RETURN JUMPDEST POP SWAP2 CALLVALUE PUSH2 0x1EB JUMPI DUP2 PUSH1 0x3 NOT CALLDATASIZE ADD SLT PUSH2 0x1EB JUMPI DUP1 MLOAD SWAP2 DUP1 SWAP4 DUP1 SLOAD SWAP2 PUSH1 0x1 SWAP1 DUP4 DUP3 SHR SWAP3 DUP3 DUP6 AND SWAP5 DUP6 ISZERO PUSH2 0x62E JUMPI JUMPDEST PUSH1 0x20 SWAP6 DUP7 DUP7 LT DUP2 EQ PUSH2 0x61B JUMPI DUP6 DUP10 MSTORE SWAP1 DUP2 ISZERO PUSH2 0x5F7 JUMPI POP PUSH1 0x1 EQ PUSH2 0x59F JUMPI JUMPDEST PUSH2 0x59B DUP8 DUP8 PUSH2 0x591 DUP3 DUP13 SUB DUP4 PUSH2 0x10CF JUMP JUMPDEST MLOAD SWAP2 DUP3 SWAP2 DUP3 PUSH2 0x1023 JUMP JUMPDEST SUB SWAP1 RETURN JUMPDEST DUP2 MSTORE SWAP3 SWAP6 POP PUSH32 0x8A35ACFBC15FF81A39AE7D344FD709F28E8600B4AA8C65C6B64BFE7FE36BD19B JUMPDEST DUP3 DUP5 LT PUSH2 0x5E4 JUMPI POP POP POP DUP3 PUSH2 0x59B SWAP5 PUSH2 0x591 SWAP3 DUP3 ADD ADD SWAP5 CODESIZE DUP1 PUSH2 0x580 JUMP JUMPDEST DUP1 SLOAD DUP7 DUP6 ADD DUP9 ADD MSTORE SWAP3 DUP7 ADD SWAP3 DUP2 ADD PUSH2 0x5C6 JUMP JUMPDEST PUSH1 0xFF NOT AND DUP9 DUP8 ADD MSTORE POP POP POP POP ISZERO ISZERO PUSH1 0x5 SHL DUP4 ADD ADD SWAP3 POP PUSH2 0x591 DUP3 PUSH2 0x59B CODESIZE DUP1 PUSH2 0x580 JUMP JUMPDEST PUSH4 0x4E487B71 PUSH1 0xE0 SHL DUP5 MSTORE PUSH1 0x22 DUP4 MSTORE PUSH1 0x24 DUP5 REVERT JUMPDEST SWAP4 PUSH1 0x7F AND SWAP4 PUSH2 0x561 JUMP JUMPDEST DUP3 DUP5 CALLVALUE PUSH2 0x1EB JUMPI DUP2 PUSH1 0x3 NOT CALLDATASIZE ADD SLT PUSH2 0x1EB JUMPI PUSH1 0x5 SLOAD SWAP1 MLOAD PUSH1 0x8 SWAP2 SWAP1 SWAP2 SHR PUSH1 0x1 PUSH1 0x1 PUSH1 0xA0 SHL SUB AND DUP2 MSTORE PUSH1 0x20 SWAP1 RETURN JUMPDEST DUP3 DUP5 CALLVALUE PUSH2 0x1EB JUMPI DUP2 PUSH1 0x3 NOT CALLDATASIZE ADD SLT PUSH2 0x1EB JUMPI PUSH1 0x20 PUSH32 0x62E78CEA01BEE320CD4E420270B5EA74000D11B0C9F74754EBDBFC544B05A258 SWAP2 PUSH2 0x6A3 PUSH2 0x1123 JUMP JUMPDEST PUSH2 0x6AB PUSH2 0x14E9 JUMP JUMPDEST PUSH1 0x1 PUSH1 0xFF NOT PUSH1 0x5 SLOAD AND OR PUSH1 0x5 SSTORE MLOAD CALLER DUP2 MSTORE LOG1 DUP1 RETURN JUMPDEST POP SWAP2 SWAP1 CALLVALUE PUSH2 0x2F0 JUMPI PUSH1 0x20 SWAP2 DUP3 PUSH1 0x3 NOT CALLDATASIZE ADD SLT PUSH2 0x1EB JUMPI PUSH1 0x1 PUSH1 0x1 PUSH1 0xA0 SHL SUB PUSH2 0x6E6 PUSH2 0x106C JUMP JUMPDEST AND DUP3 MSTORE PUSH1 0x7 DUP4 MSTORE DUP1 DUP3 KECCAK256 SWAP4 DUP5 SLOAD SWAP1 PUSH2 0x6FD DUP3 PUSH2 0x1613 JUMP JUMPDEST SWAP6 PUSH2 0x70A DUP5 MLOAD SWAP8 DUP9 PUSH2 0x10CF JUMP JUMPDEST DUP3 DUP8 MSTORE DUP5 MSTORE DUP5 DUP5 KECCAK256 DUP5 SWAP1 DUP7 DUP1 DUP10 ADD JUMPDEST DUP6 DUP5 LT PUSH2 0x88E JUMPI POP POP POP POP POP POP DUP2 DUP1 JUMPDEST DUP6 MLOAD DUP2 LT ISZERO PUSH2 0x769 JUMPI PUSH1 0x60 PUSH2 0x73E DUP3 DUP9 PUSH2 0x163A JUMP JUMPDEST MLOAD ADD MLOAD PUSH2 0x754 JUMPI JUMPDEST PUSH2 0x74F SWAP1 PUSH2 0x162B JUMP JUMPDEST PUSH2 0x729 JUMP JUMPDEST SWAP3 PUSH2 0x761 PUSH2 0x74F SWAP2 PUSH2 0x162B JUMP JUMPDEST SWAP4 SWAP1 POP PUSH2 0x746 JUMP JUMPDEST POP SWAP3 SWAP1 SWAP4 PUSH2 0x776 DUP4 PUSH2 0x1613 JUMP JUMPDEST SWAP3 PUSH2 0x783 DUP7 MLOAD SWAP5 DUP6 PUSH2 0x10CF JUMP JUMPDEST DUP1 DUP5 MSTORE PUSH2 0x792 PUSH1 0x1F NOT SWAP2 PUSH2 0x1613 JUMP JUMPDEST ADD DUP3 DUP6 JUMPDEST DUP3 DUP2 LT PUSH2 0x862 JUMPI POP POP POP DUP4 SWAP2 DUP5 JUMPDEST DUP3 MLOAD DUP2 LT ISZERO PUSH2 0x805 JUMPI PUSH1 0x60 PUSH2 0x7B9 DUP3 DUP6 PUSH2 0x163A JUMP JUMPDEST MLOAD ADD MLOAD PUSH2 0x7CF JUMPI JUMPDEST PUSH2 0x7CA SWAP1 PUSH2 0x162B JUMP JUMPDEST PUSH2 0x7A4 JUMP JUMPDEST SWAP3 PUSH2 0x7FD PUSH2 0x7CA SWAP2 PUSH2 0x7E1 DUP7 DUP7 PUSH2 0x163A JUMP JUMPDEST MLOAD PUSH2 0x7EC DUP3 DUP10 PUSH2 0x163A JUMP JUMPDEST MSTORE PUSH2 0x7F7 DUP2 DUP9 PUSH2 0x163A JUMP JUMPDEST POP PUSH2 0x162B JUMP JUMPDEST SWAP4 SWAP1 POP PUSH2 0x7C1 JUMP JUMPDEST POP SWAP4 SWAP2 POP POP DUP4 MLOAD SWAP3 DUP1 DUP5 ADD SWAP1 DUP1 DUP6 MSTORE DUP4 MLOAD DUP1 SWAP3 MSTORE DUP1 DUP7 DUP7 ADD SWAP5 ADD SWAP3 JUMPDEST DUP3 DUP2 LT PUSH2 0x82E JUMPI DUP6 DUP6 SUB DUP7 RETURN JUMPDEST DUP4 MLOAD DUP1 MLOAD DUP7 MSTORE DUP1 DUP4 ADD MLOAD DUP7 DUP5 ADD MSTORE DUP8 DUP2 ADD MLOAD DUP9 DUP8 ADD MSTORE PUSH1 0x60 SWAP1 DUP2 ADD MLOAD ISZERO ISZERO SWAP1 DUP7 ADD MSTORE PUSH1 0x80 SWAP1 SWAP5 ADD SWAP4 SWAP3 DUP2 ADD SWAP3 PUSH1 0x1 ADD PUSH2 0x821 JUMP JUMPDEST DUP8 MLOAD PUSH2 0x86D DUP2 PUSH2 0x109D JUMP JUMPDEST DUP8 DUP2 MSTORE DUP8 DUP4 DUP3 ADD MSTORE DUP8 DUP10 DUP3 ADD MSTORE DUP8 PUSH1 0x60 DUP3 ADD MSTORE DUP3 DUP3 DUP9 ADD ADD MSTORE ADD DUP4 SWAP1 PUSH2 0x796 JUMP JUMPDEST PUSH1 0x1 SWAP2 DUP6 SWAP2 PUSH2 0x89C DUP6 PUSH2 0x152A JUMP JUMPDEST DUP2 MSTORE ADD SWAP3 ADD SWAP3 ADD SWAP2 SWAP1 DUP8 SWAP1 PUSH2 0x719 JUMP JUMPDEST POP SWAP2 CALLVALUE PUSH2 0x1EB JUMPI DUP1 PUSH1 0x3 NOT CALLDATASIZE ADD SLT PUSH2 0x1EB JUMPI DUP3 CALLDATALOAD SWAP1 PUSH1 0x24 CALLDATALOAD PUSH2 0x8CC PUSH2 0x1507 JUMP JUMPDEST PUSH2 0x8D4 PUSH2 0x14E9 JUMP JUMPDEST DUP3 ISZERO PUSH2 0xA32 JUMPI CALLER DUP5 MSTORE PUSH1 0x20 DUP5 DUP2 MSTORE DUP4 DUP4 DUP7 KECCAK256 SLOAD LT PUSH2 0x9F9 JUMPI PUSH2 0x8F7 DUP5 ADDRESS CALLER PUSH2 0x1152 JUMP JUMPDEST CALLER DUP6 MSTORE PUSH1 0x7 DUP2 MSTORE DUP3 DUP6 KECCAK256 DUP4 MLOAD PUSH2 0x90C DUP2 PUSH2 0x109D JUMP JUMPDEST DUP6 DUP2 MSTORE DUP3 DUP2 ADD TIMESTAMP DUP2 MSTORE DUP6 DUP3 ADD SWAP1 DUP6 DUP3 MSTORE PUSH1 0x60 DUP4 ADD SWAP4 PUSH1 0x1 DUP6 MSTORE DUP1 SLOAD SWAP1 PUSH9 0x10000000000000000 DUP3 LT ISZERO PUSH2 0x9E6 JUMPI SWAP1 PUSH2 0x949 SWAP2 PUSH1 0x1 DUP3 ADD DUP2 SSTORE PUSH2 0x10F1 JUMP JUMPDEST SWAP4 SWAP1 SWAP4 PUSH2 0x9D4 JUMPI PUSH32 0xDD2A19C3BDD089CBE77C04F5655F83DE0504D6140D12C8667646F55D0557C4DC SWAP9 SWAP10 SWAP11 POP SWAP1 PUSH1 0x3 SWAP4 SWAP3 SWAP2 MLOAD DUP4 SSTORE MLOAD PUSH1 0x1 DUP4 ADD SSTORE MLOAD PUSH1 0x2 DUP3 ADD SSTORE ADD SWAP1 MLOAD ISZERO ISZERO PUSH1 0xFF DUP1 NOT DUP4 SLOAD AND SWAP2 AND OR SWAP1 SSTORE CALLER DUP7 MSTORE PUSH1 0x8 DUP2 MSTORE DUP3 DUP7 KECCAK256 PUSH2 0x9B0 DUP7 DUP3 SLOAD PUSH2 0x14DC JUMP JUMPDEST SWAP1 SSTORE PUSH2 0x9BE DUP6 PUSH1 0x9 SLOAD PUSH2 0x14DC JUMP JUMPDEST PUSH1 0x9 SSTORE DUP3 MLOAD SWAP5 DUP6 MSTORE DUP5 ADD MSTORE CALLER SWAP3 LOG2 PUSH1 0x1 PUSH1 0x6 SSTORE DUP1 RETURN JUMPDEST PUSH4 0x4E487B71 PUSH1 0xE0 SHL DUP11 MSTORE DUP10 DUP12 MSTORE PUSH1 0x24 DUP11 REVERT JUMPDEST PUSH4 0x4E487B71 PUSH1 0xE0 SHL DUP12 MSTORE PUSH1 0x41 DUP13 MSTORE PUSH1 0x24 DUP12 REVERT JUMPDEST DUP6 PUSH1 0x64 SWAP2 DUP5 MLOAD SWAP2 PUSH3 0x461BCD PUSH1 0xE5 SHL DUP4 MSTORE DUP3 ADD MSTORE PUSH1 0x14 PUSH1 0x24 DUP3 ADD MSTORE PUSH20 0x496E73756666696369656E742062616C616E6365 PUSH1 0x60 SHL PUSH1 0x44 DUP3 ADD MSTORE REVERT JUMPDEST DUP2 MLOAD PUSH3 0x461BCD PUSH1 0xE5 SHL DUP2 MSTORE PUSH1 0x20 DUP2 DUP8 ADD MSTORE PUSH1 0x1D PUSH1 0x24 DUP3 ADD MSTORE PUSH32 0x416D6F756E74206D7573742062652067726561746572207468616E2030000000 PUSH1 0x44 DUP3 ADD MSTORE PUSH1 0x64 SWAP1 REVERT JUMPDEST DUP3 DUP5 CALLVALUE PUSH2 0x1EB JUMPI CALLDATASIZE PUSH1 0x3 NOT ADD SLT PUSH2 0x2F0 JUMPI PUSH2 0x1B0 PUSH2 0xA91 PUSH2 0x106C JUMP JUMPDEST PUSH1 0x24 CALLDATALOAD SWAP1 PUSH2 0xAA0 DUP3 CALLER DUP4 PUSH2 0x1374 JUMP JUMPDEST PUSH2 0x1447 JUMP JUMPDEST DUP3 CALLVALUE PUSH2 0x2F0 JUMPI DUP1 PUSH1 0x3 NOT CALLDATASIZE ADD SLT PUSH2 0x2F0 JUMPI PUSH2 0xABE PUSH2 0x1123 JUMP JUMPDEST PUSH1 0x5 DUP1 SLOAD PUSH2 0x100 PUSH1 0x1 PUSH1 0xA8 SHL SUB NOT DUP2 AND SWAP1 SWAP2 SSTORE DUP2 SWAP1 PUSH1 0x8 SHR PUSH1 0x1 PUSH1 0x1 PUSH1 0xA0 SHL SUB AND PUSH32 0x8BE0079C531659141344CD1FD0A4F28419497F9722A3DAAFE3B4186F6B6457E0 DUP3 DUP1 LOG3 DUP1 RETURN JUMPDEST DUP3 DUP5 CALLVALUE PUSH2 0x1EB JUMPI PUSH1 0x20 CALLDATASIZE PUSH1 0x3 NOT ADD SLT PUSH2 0x1EB JUMPI PUSH1 0x20 SWAP2 DUP2 SWAP1 PUSH1 0x1 PUSH1 0x1 PUSH1 0xA0 SHL SUB PUSH2 0xB2E PUSH2 0x106C JUMP JUMPDEST AND DUP2 MSTORE DUP1 DUP5 MSTORE KECCAK256 SLOAD SWAP1 MLOAD SWAP1 DUP2 MSTORE RETURN JUMPDEST DUP3 DUP5 CALLVALUE PUSH2 0x1EB JUMPI DUP2 PUSH1 0x3 NOT CALLDATASIZE ADD SLT PUSH2 0x1EB JUMPI PUSH1 0x20 SWAP1 PUSH1 0xFF PUSH1 0x5 SLOAD AND SWAP1 MLOAD SWAP1 ISZERO ISZERO DUP2 MSTORE RETURN JUMPDEST POP CALLVALUE PUSH2 0x1EB JUMPI PUSH1 0x20 CALLDATASIZE PUSH1 0x3 NOT ADD SLT PUSH2 0x1EB JUMPI PUSH2 0x1B0 SWAP1 CALLDATALOAD CALLER PUSH2 0x1447 JUMP JUMPDEST POP DUP3 SWAP1 CALLVALUE PUSH2 0x2F3 JUMPI DUP3 PUSH1 0x3 NOT CALLDATASIZE ADD SLT PUSH2 0x2F3 JUMPI PUSH2 0xB99 PUSH2 0x1123 JUMP JUMPDEST PUSH1 0x5 SLOAD SWAP1 PUSH1 0xFF DUP3 AND ISZERO PUSH2 0xBDB JUMPI POP PUSH1 0xFF NOT AND PUSH1 0x5 SSTORE MLOAD CALLER DUP2 MSTORE PUSH32 0x5DB9EE0A495BF2E6FF9C91A7834C1BA4FDD244A5E8AA4E537BD38AEAE4B073AA SWAP1 PUSH1 0x20 SWAP1 LOG1 DUP1 RETURN JUMPDEST DUP3 MLOAD PUSH4 0x8DFC202B PUSH1 0xE0 SHL DUP2 MSTORE REVERT JUMPDEST DUP3 DUP5 CALLVALUE PUSH2 0x1EB JUMPI DUP2 PUSH1 0x3 NOT CALLDATASIZE ADD SLT PUSH2 0x1EB JUMPI PUSH1 0x20 SWAP1 MLOAD PUSH12 0x33B2E3C9FD0803CE8000000 DUP2 MSTORE RETURN JUMPDEST DUP3 DUP5 CALLVALUE PUSH2 0x1EB JUMPI DUP2 PUSH1 0x3 NOT CALLDATASIZE ADD SLT PUSH2 0x1EB JUMPI PUSH1 0x20 SWAP1 MLOAD PUSH1 0x12 DUP2 MSTORE RETURN JUMPDEST POP SWAP2 CALLVALUE PUSH2 0x1EB JUMPI PUSH1 0x20 SWAP1 DUP2 PUSH1 0x3 NOT CALLDATASIZE ADD SLT PUSH2 0x2F3 JUMPI DUP4 CALLDATALOAD PUSH2 0xC4B PUSH2 0x1507 JUMP JUMPDEST CALLER DUP5 MSTORE PUSH1 0x7 DUP4 MSTORE DUP2 DUP5 KECCAK256 SLOAD DUP2 LT ISZERO PUSH2 0xDD1 JUMPI PUSH2 0xC70 SWAP1 CALLER DUP6 MSTORE PUSH1 0x7 DUP5 MSTORE DUP3 DUP6 KECCAK256 PUSH2 0x10F1 JUMP JUMPDEST POP SWAP2 PUSH1 0x3 DUP4 ADD SWAP1 DUP2 SLOAD SWAP6 PUSH1 0xFF DUP8 AND ISZERO PUSH2 0xD9D JUMPI PUSH2 0xC96 PUSH1 0x1 DUP7 ADD SLOAD PUSH1 0x2 DUP8 ADD SLOAD SWAP1 PUSH2 0x14DC JUMP JUMPDEST TIMESTAMP LT PUSH2 0xD67 JUMPI POP PUSH2 0xD24 DUP5 SWAP6 SWAP7 PUSH2 0xCD7 PUSH2 0xCD2 PUSH32 0x6F2D3E000C89D37446B7C0374C0125068FF316D1E3EE302336478A8CD03C2336 SWAP8 SLOAD SWAP9 PUSH2 0x152A JUMP JUMPDEST PUSH2 0x15C2 JUMP JUMPDEST SWAP4 PUSH2 0xCE2 DUP6 DUP10 PUSH2 0x14DC JUMP JUMPDEST SWAP2 PUSH1 0xFF NOT AND SWAP1 SSTORE CALLER DUP9 MSTORE PUSH1 0x8 DUP4 MSTORE DUP5 DUP9 KECCAK256 PUSH2 0xCFE DUP9 DUP3 SLOAD PUSH2 0x1561 JUMP JUMPDEST SWAP1 SSTORE PUSH2 0xD0C DUP8 PUSH1 0x9 SLOAD PUSH2 0x1561 JUMP JUMPDEST PUSH1 0x9 SSTORE DUP4 ISZERO ISZERO DUP1 PUSH2 0xD46 JUMPI JUMPDEST PUSH2 0xD37 JUMPI JUMPDEST CALLER ADDRESS PUSH2 0x1152 JUMP JUMPDEST DUP3 MLOAD SWAP5 DUP6 MSTORE DUP5 ADD MSTORE CALLER SWAP3 LOG2 PUSH1 0x1 PUSH1 0x6 SSTORE DUP1 RETURN JUMPDEST PUSH2 0xD41 DUP5 ADDRESS PUSH2 0x156E JUMP JUMPDEST PUSH2 0xD1D JUMP JUMPDEST POP PUSH12 0x33B2E3C9FD0803CE8000000 PUSH2 0xD60 DUP6 PUSH1 0x2 SLOAD PUSH2 0x14DC JUMP JUMPDEST GT ISZERO PUSH2 0xD18 JUMP JUMPDEST PUSH1 0x64 SWAP2 DUP5 MLOAD SWAP2 PUSH3 0x461BCD PUSH1 0xE5 SHL DUP4 MSTORE DUP3 ADD MSTORE PUSH1 0x12 PUSH1 0x24 DUP3 ADD MSTORE PUSH18 0x14DD185AD9481CDD1A5B1B081B1BD8DAD959 PUSH1 0x72 SHL PUSH1 0x44 DUP3 ADD MSTORE REVERT JUMPDEST PUSH1 0x64 SWAP2 DUP5 MLOAD SWAP2 PUSH3 0x461BCD PUSH1 0xE5 SHL DUP4 MSTORE DUP3 ADD MSTORE PUSH1 0x10 PUSH1 0x24 DUP3 ADD MSTORE PUSH16 0x5374616B65206E6F7420616374697665 PUSH1 0x80 SHL PUSH1 0x44 DUP3 ADD MSTORE REVERT JUMPDEST DUP2 MLOAD PUSH3 0x461BCD PUSH1 0xE5 SHL DUP2 MSTORE DUP1 DUP7 ADD DUP5 SWAP1 MSTORE PUSH1 0x13 PUSH1 0x24 DUP3 ADD MSTORE PUSH19 0x92DCECC2D8D2C840E6E8C2D6CA40D2DCC8CAF PUSH1 0x6B SHL PUSH1 0x44 DUP3 ADD MSTORE PUSH1 0x64 SWAP1 REVERT JUMPDEST DUP3 DUP5 CALLVALUE PUSH2 0x1EB JUMPI PUSH1 0x60 CALLDATASIZE PUSH1 0x3 NOT ADD SLT PUSH2 0x1EB JUMPI PUSH1 0x20 SWAP1 PUSH2 0x49E PUSH2 0xE2B PUSH2 0x106C JUMP JUMPDEST PUSH2 0xE33 PUSH2 0x1087 JUMP JUMPDEST PUSH1 0x44 CALLDATALOAD SWAP2 PUSH2 0xE42 DUP4 CALLER DUP4 PUSH2 0x1374 JUMP JUMPDEST PUSH2 0x1152 JUMP JUMPDEST DUP3 DUP5 CALLVALUE PUSH2 0x1EB JUMPI DUP2 PUSH1 0x3 NOT CALLDATASIZE ADD SLT PUSH2 0x1EB JUMPI PUSH1 0x20 SWAP1 PUSH1 0x2 SLOAD SWAP1 MLOAD SWAP1 DUP2 MSTORE RETURN JUMPDEST DUP3 DUP5 CALLVALUE PUSH2 0x1EB JUMPI DUP2 PUSH1 0x3 NOT CALLDATASIZE ADD SLT PUSH2 0x1EB JUMPI PUSH1 0x20 SWAP1 MLOAD PUSH1 0x5 DUP2 MSTORE RETURN JUMPDEST POP DUP3 SWAP1 CALLVALUE PUSH2 0x2F3 JUMPI DUP2 PUSH1 0x3 NOT CALLDATASIZE ADD SLT PUSH2 0x2F3 JUMPI PUSH2 0xE9D PUSH2 0x106C JUMP JUMPDEST PUSH1 0x24 CALLDATALOAD SWAP1 CALLER ISZERO PUSH2 0xF16 JUMPI PUSH1 0x1 PUSH1 0x1 PUSH1 0xA0 SHL SUB AND SWAP2 DUP3 ISZERO PUSH2 0xEFF JUMPI POP DUP1 DUP4 PUSH1 0x20 SWAP6 CALLER DUP2 MSTORE PUSH1 0x1 DUP8 MSTORE DUP2 DUP2 KECCAK256 DUP6 DUP3 MSTORE DUP8 MSTORE KECCAK256 SSTORE DUP3 MLOAD SWAP1 DUP2 MSTORE PUSH32 0x8C5BE1E5EBEC7D5BD14F71427D1E84F3DD0314C0F7B2291E5B200AC8C7C3B925 DUP5 CALLER SWAP3 LOG3 MLOAD PUSH1 0x1 DUP2 MSTORE RETURN JUMPDEST DUP4 MLOAD PUSH4 0x4A1406B1 PUSH1 0xE1 SHL DUP2 MSTORE SWAP1 DUP2 ADD DUP6 SWAP1 MSTORE PUSH1 0x24 SWAP1 REVERT JUMPDEST DUP4 MLOAD PUSH4 0xE602DF05 PUSH1 0xE0 SHL DUP2 MSTORE DUP1 DUP5 ADD DUP7 SWAP1 MSTORE PUSH1 0x24 SWAP1 REVERT JUMPDEST SWAP2 DUP5 SWAP2 POP CALLVALUE PUSH2 0x101F JUMPI DUP4 PUSH1 0x3 NOT CALLDATASIZE ADD SLT PUSH2 0x101F JUMPI PUSH1 0x3 SLOAD PUSH1 0x1 DUP2 DUP2 SHR SWAP2 DUP7 SWAP1 DUP3 DUP2 AND DUP1 ISZERO PUSH2 0x1015 JUMPI JUMPDEST PUSH1 0x20 SWAP6 DUP7 DUP7 LT DUP3 EQ PUSH2 0x1002 JUMPI POP DUP5 DUP9 MSTORE SWAP1 DUP2 ISZERO PUSH2 0xFE0 JUMPI POP PUSH1 0x1 EQ PUSH2 0xF87 JUMPI JUMPDEST PUSH2 0x59B DUP7 DUP7 PUSH2 0x591 DUP3 DUP12 SUB DUP4 PUSH2 0x10CF JUMP JUMPDEST SWAP3 SWAP6 POP PUSH1 0x3 DUP4 MSTORE PUSH32 0xC2575A0E9E593C00F959F8C92F12DB2869C3395A3B0502D05E2516446F71F85B JUMPDEST DUP3 DUP5 LT PUSH2 0xFCD JUMPI POP POP POP DUP3 PUSH2 0x59B SWAP5 PUSH2 0x591 SWAP3 DUP3 ADD ADD SWAP5 DUP7 PUSH2 0xF76 JUMP JUMPDEST DUP1 SLOAD DUP7 DUP6 ADD DUP9 ADD MSTORE SWAP3 DUP7 ADD SWAP3 DUP2 ADD PUSH2 0xFB0 JUMP JUMPDEST PUSH1 0xFF NOT AND DUP8 DUP7 ADD MSTORE POP POP POP ISZERO ISZERO PUSH1 0x5 SHL DUP4 ADD ADD SWAP3 POP PUSH2 0x591 DUP3 PUSH2 0x59B DUP7 PUSH2 0xF76 JUMP JUMPDEST PUSH4 0x4E487B71 PUSH1 0xE0 SHL DUP5 MSTORE PUSH1 0x22 SWAP1 MSTORE PUSH1 0x24 DUP4 REVERT JUMPDEST SWAP4 PUSH1 0x7F AND SWAP4 PUSH2 0xF56 JUMP JUMPDEST DUP4 DUP1 REVERT JUMPDEST PUSH1 0x20 DUP1 DUP3 MSTORE DUP3 MLOAD DUP2 DUP4 ADD DUP2 SWAP1 MSTORE SWAP1 SWAP4 SWAP3 PUSH1 0x0 JUMPDEST DUP3 DUP2 LT PUSH2 0x1058 JUMPI POP POP PUSH1 0x40 SWAP3 SWAP4 POP PUSH1 0x0 DUP4 DUP3 DUP5 ADD ADD MSTORE PUSH1 0x1F DUP1 NOT SWAP2 ADD AND ADD ADD SWAP1 JUMP JUMPDEST DUP2 DUP2 ADD DUP7 ADD MLOAD DUP5 DUP3 ADD PUSH1 0x40 ADD MSTORE DUP6 ADD PUSH2 0x1036 JUMP JUMPDEST PUSH1 0x4 CALLDATALOAD SWAP1 PUSH1 0x1 PUSH1 0x1 PUSH1 0xA0 SHL SUB DUP3 AND DUP3 SUB PUSH2 0x1082 JUMPI JUMP JUMPDEST PUSH1 0x0 DUP1 REVERT JUMPDEST PUSH1 0x24 CALLDATALOAD SWAP1 PUSH1 0x1 PUSH1 0x1 PUSH1 0xA0 SHL SUB DUP3 AND DUP3 SUB PUSH2 0x1082 JUMPI JUMP JUMPDEST PUSH1 0x80 DUP2 ADD SWAP1 DUP2 LT PUSH8 0xFFFFFFFFFFFFFFFF DUP3 GT OR PUSH2 0x10B9 JUMPI PUSH1 0x40 MSTORE JUMP JUMPDEST PUSH4 0x4E487B71 PUSH1 0xE0 SHL PUSH1 0x0 MSTORE PUSH1 0x41 PUSH1 0x4 MSTORE PUSH1 0x24 PUSH1 0x0 REVERT JUMPDEST SWAP1 PUSH1 0x1F DUP1 NOT SWAP2 ADD AND DUP2 ADD SWAP1 DUP2 LT PUSH8 0xFFFFFFFFFFFFFFFF DUP3 GT OR PUSH2 0x10B9 JUMPI PUSH1 0x40 MSTORE JUMP JUMPDEST DUP1 SLOAD DUP3 LT ISZERO PUSH2 0x110D JUMPI PUSH1 0x0 MSTORE PUSH1 0x20 PUSH1 0x0 KECCAK256 SWAP1 PUSH1 0x2 SHL ADD SWAP1 PUSH1 0x0 SWAP1 JUMP JUMPDEST PUSH4 0x4E487B71 PUSH1 0xE0 SHL PUSH1 0x0 MSTORE PUSH1 0x32 PUSH1 0x4 MSTORE PUSH1 0x24 PUSH1 0x0 REVERT JUMPDEST PUSH1 0x5 SLOAD PUSH1 0x8 SHR PUSH1 0x1 PUSH1 0x1 PUSH1 0xA0 SHL SUB AND CALLER SUB PUSH2 0x113A JUMPI JUMP JUMPDEST PUSH1 0x40 MLOAD PUSH4 0x118CDAA7 PUSH1 0xE0 SHL DUP2 MSTORE CALLER PUSH1 0x4 DUP3 ADD MSTORE PUSH1 0x24 SWAP1 REVERT JUMPDEST PUSH1 0x1 PUSH1 0x1 PUSH1 0xA0 SHL SUB DUP1 DUP3 AND DUP1 ISZERO SWAP5 SWAP1 SWAP4 SWAP1 SWAP3 SWAP2 SWAP1 DUP6 PUSH2 0x135B JUMPI AND SWAP4 DUP5 ISZERO PUSH2 0x1342 JUMPI DUP3 ADDRESS DUP6 EQ ISZERO DUP1 PUSH2 0x1338 JUMPI JUMPDEST PUSH2 0x1240 JUMPI JUMPDEST POP PUSH2 0x118C PUSH2 0x14E9 JUMP JUMPDEST ISZERO PUSH2 0x11D0 JUMPI POP PUSH1 0x20 DUP2 PUSH2 0x11B0 PUSH1 0x0 DUP1 MLOAD PUSH1 0x20 PUSH2 0x164F DUP4 CODECOPY DUP2 MLOAD SWAP2 MSTORE SWAP4 PUSH1 0x2 SLOAD PUSH2 0x14DC JUMP JUMPDEST PUSH1 0x2 SSTORE JUMPDEST DUP5 PUSH1 0x0 MSTORE PUSH1 0x0 DUP3 MSTORE PUSH1 0x40 PUSH1 0x0 KECCAK256 DUP2 DUP2 SLOAD ADD SWAP1 SSTORE PUSH1 0x40 MLOAD SWAP1 DUP2 MSTORE LOG3 JUMP JUMPDEST PUSH1 0x0 SWAP1 DUP4 DUP3 MSTORE DUP2 PUSH1 0x20 MSTORE PUSH1 0x40 DUP3 KECCAK256 SLOAD SWAP1 DUP4 DUP3 LT PUSH2 0x120E JUMPI POP SWAP2 DUP2 PUSH1 0x40 DUP3 PUSH1 0x0 DUP1 MLOAD PUSH1 0x20 PUSH2 0x164F DUP4 CODECOPY DUP2 MLOAD SWAP2 MSTORE SWAP6 DUP8 PUSH1 0x20 SWAP7 MSTORE DUP4 DUP7 MSTORE SUB SWAP2 KECCAK256 SSTORE PUSH2 0x11B4 JUMP JUMPDEST PUSH1 0x40 MLOAD PUSH4 0x391434E3 PUSH1 0xE2 SHL DUP2 MSTORE PUSH1 0x1 PUSH1 0x1 PUSH1 0xA0 SHL SUB SWAP2 SWAP1 SWAP2 AND PUSH1 0x4 DUP3 ADD MSTORE PUSH1 0x24 DUP2 ADD SWAP2 SWAP1 SWAP2 MSTORE PUSH1 0x44 DUP2 ADD DUP4 SWAP1 MSTORE PUSH1 0x64 SWAP1 REVERT JUMPDEST DUP1 PUSH1 0x1 SHL DUP2 DUP2 DIV PUSH1 0x2 EQ DUP3 ISZERO OR ISZERO PUSH2 0x1322 JUMPI PUSH1 0x64 SWAP1 DIV DUP1 PUSH2 0x1262 JUMPI JUMPDEST POP PUSH2 0x1183 JUMP JUMPDEST SWAP2 POP SWAP3 POP PUSH2 0x126E PUSH2 0x14E9 JUMP JUMPDEST PUSH1 0x0 SWAP3 DUP5 DUP5 MSTORE DUP4 PUSH1 0x20 MSTORE PUSH1 0x40 DUP5 KECCAK256 SLOAD DUP3 DUP2 LT PUSH2 0x12F2 JUMPI SWAP1 DUP3 PUSH2 0x12EA SWAP4 SWAP3 DUP8 DUP8 MSTORE DUP7 PUSH1 0x20 MSTORE SUB PUSH1 0x40 DUP7 KECCAK256 SSTORE DUP2 PUSH1 0x2 SLOAD SUB PUSH1 0x2 SSTORE DUP5 DUP7 PUSH1 0x0 DUP1 MLOAD PUSH1 0x20 PUSH2 0x164F DUP4 CODECOPY DUP2 MLOAD SWAP2 MSTORE PUSH1 0x20 PUSH1 0x40 MLOAD DUP7 DUP2 MSTORE LOG3 DUP6 PUSH32 0xFD38818F5291BF0BB3A2A48AADC06BA8757865D1DABD804585338AAB3009DCB6 PUSH1 0x20 PUSH1 0x40 MLOAD DUP6 DUP2 MSTORE LOG2 PUSH2 0x1561 JUMP JUMPDEST SWAP2 CODESIZE DUP1 PUSH2 0x125C JUMP JUMPDEST PUSH1 0x40 MLOAD PUSH4 0x391434E3 PUSH1 0xE2 SHL DUP2 MSTORE PUSH1 0x1 PUSH1 0x1 PUSH1 0xA0 SHL SUB DUP6 AND PUSH1 0x4 DUP3 ADD MSTORE PUSH1 0x24 DUP2 ADD SWAP2 SWAP1 SWAP2 MSTORE PUSH1 0x44 DUP2 ADD DUP4 SWAP1 MSTORE PUSH1 0x64 SWAP1 REVERT JUMPDEST PUSH4 0x4E487B71 PUSH1 0xE0 SHL PUSH1 0x0 MSTORE PUSH1 0x11 PUSH1 0x4 MSTORE PUSH1 0x24 PUSH1 0x0 REVERT JUMPDEST POP ADDRESS DUP7 EQ ISZERO PUSH2 0x117E JUMP JUMPDEST PUSH1 0x40 MLOAD PUSH4 0xEC442F05 PUSH1 0xE0 SHL DUP2 MSTORE PUSH1 0x0 PUSH1 0x4 DUP3 ADD MSTORE PUSH1 0x24 SWAP1 REVERT JUMPDEST PUSH1 0x40 MLOAD PUSH4 0x4B637E8F PUSH1 0xE1 SHL DUP2 MSTORE PUSH1 0x0 PUSH1 0x4 DUP3 ADD MSTORE PUSH1 0x24 SWAP1 REVERT JUMPDEST SWAP2 PUSH1 0x1 DUP1 PUSH1 0xA0 SHL SUB DUP1 SWAP4 AND SWAP2 PUSH1 0x0 SWAP4 DUP4 DUP6 MSTORE PUSH1 0x1 PUSH1 0x20 MSTORE PUSH1 0x40 SWAP4 DUP5 DUP7 KECCAK256 SWAP2 DUP4 AND SWAP2 DUP3 DUP8 MSTORE PUSH1 0x20 MSTORE DUP5 DUP7 KECCAK256 SLOAD SWAP3 PUSH1 0x0 NOT DUP5 LT PUSH2 0x13B3 JUMPI JUMPDEST POP POP POP POP POP POP POP JUMP JUMPDEST DUP5 DUP5 LT PUSH2 0x1417 JUMPI POP DUP1 ISZERO PUSH2 0x13FF JUMPI DUP2 ISZERO PUSH2 0x13E7 JUMPI DUP6 MSTORE PUSH1 0x1 PUSH1 0x20 MSTORE DUP4 DUP6 KECCAK256 SWAP1 DUP6 MSTORE PUSH1 0x20 MSTORE SUB SWAP2 KECCAK256 SSTORE CODESIZE DUP1 DUP1 DUP1 DUP1 DUP1 DUP1 PUSH2 0x13AA JUMP JUMPDEST DUP5 MLOAD PUSH4 0x4A1406B1 PUSH1 0xE1 SHL DUP2 MSTORE PUSH1 0x4 DUP2 ADD DUP8 SWAP1 MSTORE PUSH1 0x24 SWAP1 REVERT JUMPDEST DUP5 MLOAD PUSH4 0xE602DF05 PUSH1 0xE0 SHL DUP2 MSTORE PUSH1 0x4 DUP2 ADD DUP8 SWAP1 MSTORE PUSH1 0x24 SWAP1 REVERT JUMPDEST DUP6 MLOAD PUSH4 0x7DC7A0D9 PUSH1 0xE1 SHL DUP2 MSTORE PUSH1 0x1 PUSH1 0x1 PUSH1 0xA0 SHL SUB SWAP2 SWAP1 SWAP2 AND PUSH1 0x4 DUP3 ADD MSTORE PUSH1 0x24 DUP2 ADD DUP5 SWAP1 MSTORE PUSH1 0x44 DUP2 ADD DUP6 SWAP1 MSTORE PUSH1 0x64 SWAP1 REVERT JUMPDEST SWAP1 PUSH1 0x1 PUSH1 0x1 PUSH1 0xA0 SHL SUB DUP3 AND SWAP1 DUP2 ISZERO PUSH2 0x135B JUMPI PUSH2 0x1461 PUSH2 0x14E9 JUMP JUMPDEST PUSH1 0x0 SWAP3 DUP3 DUP5 MSTORE DUP4 PUSH1 0x20 MSTORE PUSH1 0x40 DUP5 KECCAK256 SLOAD SWAP1 DUP3 DUP3 LT PUSH2 0x14AA JUMPI POP DUP2 PUSH1 0x0 DUP1 MLOAD PUSH1 0x20 PUSH2 0x164F DUP4 CODECOPY DUP2 MLOAD SWAP2 MSTORE SWAP3 PUSH1 0x20 SWAP3 DUP6 DUP8 MSTORE DUP7 DUP5 MSTORE SUB PUSH1 0x40 DUP7 KECCAK256 SSTORE DUP1 PUSH1 0x2 SLOAD SUB PUSH1 0x2 SSTORE PUSH1 0x40 MLOAD SWAP1 DUP2 MSTORE LOG3 JUMP JUMPDEST PUSH1 0x40 MLOAD PUSH4 0x391434E3 PUSH1 0xE2 SHL DUP2 MSTORE PUSH1 0x1 PUSH1 0x1 PUSH1 0xA0 SHL SUB SWAP2 SWAP1 SWAP2 AND PUSH1 0x4 DUP3 ADD MSTORE PUSH1 0x24 DUP2 ADD SWAP2 SWAP1 SWAP2 MSTORE PUSH1 0x44 DUP2 ADD DUP3 SWAP1 MSTORE PUSH1 0x64 SWAP1 REVERT JUMPDEST SWAP2 SWAP1 DUP3 ADD DUP1 SWAP3 GT PUSH2 0x1322 JUMPI JUMP JUMPDEST PUSH1 0xFF PUSH1 0x5 SLOAD AND PUSH2 0x14F5 JUMPI JUMP JUMPDEST PUSH1 0x40 MLOAD PUSH4 0xD93C0665 PUSH1 0xE0 SHL DUP2 MSTORE PUSH1 0x4 SWAP1 REVERT JUMPDEST PUSH1 0x2 PUSH1 0x6 SLOAD EQ PUSH2 0x1518 JUMPI PUSH1 0x2 PUSH1 0x6 SSTORE JUMP JUMPDEST PUSH1 0x40 MLOAD PUSH4 0x3EE5AEB5 PUSH1 0xE0 SHL DUP2 MSTORE PUSH1 0x4 SWAP1 REVERT JUMPDEST SWAP1 PUSH1 0x40 MLOAD PUSH2 0x1537 DUP2 PUSH2 0x109D JUMP JUMPDEST PUSH1 0x60 PUSH1 0xFF PUSH1 0x3 DUP4 SWAP6 DUP1 SLOAD DUP6 MSTORE PUSH1 0x1 DUP2 ADD SLOAD PUSH1 0x20 DUP7 ADD MSTORE PUSH1 0x2 DUP2 ADD SLOAD PUSH1 0x40 DUP7 ADD MSTORE ADD SLOAD AND ISZERO ISZERO SWAP2 ADD MSTORE JUMP JUMPDEST SWAP2 SWAP1 DUP3 SUB SWAP2 DUP3 GT PUSH2 0x1322 JUMPI JUMP JUMPDEST PUSH1 0x1 PUSH1 0x1 PUSH1 0xA0 SHL SUB AND SWAP1 DUP2 ISZERO PUSH2 0x1342 JUMPI PUSH1 0x0 DUP1 MLOAD PUSH1 0x20 PUSH2 0x164F DUP4 CODECOPY DUP2 MLOAD SWAP2 MSTORE PUSH1 0x20 PUSH1 0x0 SWAP3 PUSH2 0x159A PUSH2 0x14E9 JUMP JUMPDEST PUSH2 0x15A6 DUP2 PUSH1 0x2 SLOAD PUSH2 0x14DC JUMP JUMPDEST PUSH1 0x2 SSTORE DUP5 DUP5 MSTORE DUP4 DUP3 MSTORE PUSH1 0x40 DUP5 KECCAK256 DUP2 DUP2 SLOAD ADD SWAP1 SSTORE PUSH1 0x40 MLOAD SWAP1 DUP2 MSTORE LOG3 JUMP JUMPDEST PUSH1 0x60 DUP2 ADD MLOAD ISZERO PUSH2 0x160D JUMPI PUSH2 0x15DA PUSH1 0x20 DUP3 ADD MLOAD TIMESTAMP PUSH2 0x1561 JUMP JUMPDEST SWAP1 MLOAD PUSH1 0x5 DUP2 MUL SWAP1 DUP1 DUP3 DIV PUSH1 0x5 EQ SWAP1 ISZERO OR ISZERO PUSH2 0x1322 JUMPI PUSH1 0x64 SWAP1 DIV DUP2 DUP2 MUL SWAP2 DUP2 DUP4 DIV EQ SWAP1 ISZERO OR ISZERO PUSH2 0x1322 JUMPI PUSH4 0x1E13380 SWAP1 DIV SWAP1 JUMP JUMPDEST POP PUSH1 0x0 SWAP1 JUMP JUMPDEST PUSH8 0xFFFFFFFFFFFFFFFF DUP2 GT PUSH2 0x10B9 JUMPI PUSH1 0x5 SHL PUSH1 0x20 ADD SWAP1 JUMP JUMPDEST PUSH1 0x0 NOT DUP2 EQ PUSH2 0x1322 JUMPI PUSH1 0x1 ADD SWAP1 JUMP JUMPDEST DUP1 MLOAD DUP3 LT ISZERO PUSH2 0x110D JUMPI PUSH1 0x20 SWAP2 PUSH1 0x5 SHL ADD ADD SWAP1 JUMP INVALID 0xDD CALLCODE MSTORE 0xAD SHL 0xE2 0xC8 SWAP12 PUSH10 0xC2B068FC378DAA952BA7 CALL PUSH4 0xC4A11628 CREATE2 GAS 0x4D CREATE2 0x23 0xB3 0xEF LOG2 PUSH5 0x6970667358 0x22 SLT KECCAK256 0xD0 PUSH8 0xBDF5B4257F5FD9A4 0xB2 0xC4 0xD0 PUSH18 0x9E61BC0E7A2496935C0A17D8DD0897BB8130 PUSH5 0x736F6C6343 STOP ADDMOD EQ STOP CALLER "},"methodIdentifiers":{"BURN_RATE()":"f846a885","MAX_SUPPLY()":"32cb6b0c","STAKING_REWARD_RATE()":"0f1a2905","allowance(address,address)":"dd62ed3e","approve(address,uint256)":"095ea7b3","balanceOf(address)":"70a08231","burn(uint256)":"42966c68","burnFrom(address,uint256)":"79cc6790","calculateReward((uint256,uint256,uint256,bool))":"99f85e3a","decimals()":"313ce567","getPendingRewards(address)":"f6ed2017","getUserStakes(address)":"842e2981","mintDebateReward(address,uint256)":"fd3b5cdd","name()":"06fdde03","owner()":"8da5cb5b","pause()":"8456cb59","paused()":"5c975abb","renounceOwnership()":"715018a6","stake(uint256,uint256)":"7b0472f0","symbol()":"95d89b41","totalStaked(address)":"9bfd8d61","totalStakedSupply()":"bcdc3cfc","totalSupply()":"18160ddd","transfer(address,uint256)":"a9059cbb","transferFrom(address,address,uint256)":"23b872dd","transferOwnership(address)":"f2fde38b","unpause()":"3f4ba83a","unstake(uint256)":"2e17de78","userStakes(address,uint256)":"b5d5b5fa"}}}}}