{"contracts/DebateContract.sol":{"DebateContract":{"abi":[{"inputs":[{"internalType":"address","name":"_usdcToken","type":"address"}],"stateMutability":"nonpayable","type":"constructor"},{"inputs":[{"internalType":"address","name":"owner","type":"address"}],"name":"OwnableInvalidOwner","type":"error"},{"inputs":[{"internalType":"address","name":"account","type":"address"}],"name":"OwnableUnauthorizedAccount","type":"error"},{"inputs":[],"name":"ReentrancyGuardReentrantCall","type":"error"},{"anonymous":false,"inputs":[{"indexed":true,"internalType":"uint256","name":"debateId","type":"uint256"},{"indexed":true,"internalType":"address","name":"creator","type":"address"},{"indexed":false,"internalType":"string","name":"title","type":"string"},{"indexed":false,"internalType":"uint256","name":"duration","type":"uint256"}],"name":"DebateCreated","type":"event"},{"anonymous":false,"inputs":[{"indexed":true,"internalType":"uint256","name":"debateId","type":"uint256"},{"indexed":false,"internalType":"uint256","name":"winningOption","type":"uint256"},{"indexed":false,"internalType":"uint256","name":"totalStaked","type":"uint256"}],"name":"DebateEnded","type":"event"},{"anonymous":false,"inputs":[{"indexed":true,"internalType":"address","name":"previousOwner","type":"address"},{"indexed":true,"internalType":"address","name":"newOwner","type":"address"}],"name":"OwnershipTransferred","type":"event"},{"anonymous":false,"inputs":[{"indexed":true,"internalType":"uint256","name":"debateId","type":"uint256"},{"indexed":true,"internalType":"address","name":"winner","type":"address"},{"indexed":false,"internalType":"uint256","name":"amount","type":"uint256"}],"name":"RewardsDistributed","type":"event"},{"anonymous":false,"inputs":[{"indexed":true,"internalType":"uint256","name":"debateId","type":"uint256"},{"indexed":true,"internalType":"address","name":"voter","type":"address"},{"indexed":false,"internalType":"uint256","name":"optionIndex","type":"uint256"},{"indexed":false,"internalType":"uint256","name":"amount","type":"uint256"}],"name":"StakePlaced","type":"event"},{"inputs":[{"internalType":"uint256","name":"debateId","type":"uint256"}],"name":"claimReward","outputs":[],"stateMutability":"nonpayable","type":"function"},{"inputs":[{"internalType":"string","name":"title","type":"string"},{"internalType":"string","name":"description","type":"string"},{"internalType":"string[]","name":"options","type":"string[]"},{"internalType":"uint256","name":"duration","type":"uint256"}],"name":"createDebate","outputs":[{"internalType":"uint256","name":"","type":"uint256"}],"stateMutability":"nonpayable","type":"function"},{"inputs":[{"internalType":"uint256","name":"","type":"uint256"},{"internalType":"uint256","name":"","type":"uint256"}],"name":"debateRewards","outputs":[{"internalType":"address","name":"user","type":"address"},{"internalType":"uint256","name":"amount","type":"uint256"},{"internalType":"bool","name":"claimed","type":"bool"}],"stateMutability":"view","type":"function"},{"inputs":[{"internalType":"uint256","name":"","type":"uint256"}],"name":"debates","outputs":[{"internalType":"uint256","name":"id","type":"uint256"},{"internalType":"address","name":"creator","type":"address"},{"internalType":"string","name":"title","type":"string"},{"internalType":"string","name":"description","type":"string"},{"internalType":"uint256","name":"totalStaked","type":"uint256"},{"internalType":"uint256","name":"startTime","type":"uint256"},{"internalType":"uint256","name":"endTime","type":"uint256"},{"internalType":"bool","name":"ended","type":"bool"},{"internalType":"uint256","name":"winningOption","type":"uint256"}],"stateMutability":"view","type":"function"},{"inputs":[{"internalType":"uint256","name":"debateId","type":"uint256"}],"name":"endDebate","outputs":[],"stateMutability":"nonpayable","type":"function"},{"inputs":[{"internalType":"uint256","name":"debateId","type":"uint256"}],"name":"getDebate","outputs":[{"internalType":"uint256","name":"id","type":"uint256"},{"internalType":"address","name":"creator","type":"address"},{"internalType":"string","name":"title","type":"string"},{"internalType":"string","name":"description","type":"string"},{"internalType":"string[]","name":"options","type":"string[]"},{"internalType":"uint256[]","name":"stakes","type":"uint256[]"},{"internalType":"uint256","name":"totalStaked","type":"uint256"},{"internalType":"uint256","name":"startTime","type":"uint256"},{"internalType":"uint256","name":"endTime","type":"uint256"},{"internalType":"bool","name":"ended","type":"bool"},{"internalType":"uint256","name":"winningOption","type":"uint256"}],"stateMutability":"view","type":"function"},{"inputs":[{"internalType":"uint256","name":"debateId","type":"uint256"},{"internalType":"address","name":"user","type":"address"}],"name":"getUserVote","outputs":[{"internalType":"uint256","name":"stake","type":"uint256"},{"internalType":"uint256","name":"option","type":"uint256"}],"stateMutability":"view","type":"function"},{"inputs":[{"internalType":"uint256","name":"debateId","type":"uint256"},{"internalType":"address","name":"user","type":"address"}],"name":"hasUserVoted","outputs":[{"internalType":"bool","name":"","type":"bool"}],"stateMutability":"view","type":"function"},{"inputs":[],"name":"minStakeAmount","outputs":[{"internalType":"uint256","name":"","type":"uint256"}],"stateMutability":"view","type":"function"},{"inputs":[],"name":"owner","outputs":[{"internalType":"address","name":"","type":"address"}],"stateMutability":"view","type":"function"},{"inputs":[],"name":"platformFeePercent","outputs":[{"internalType":"uint256","name":"","type":"uint256"}],"stateMutability":"view","type":"function"},{"inputs":[],"name":"renounceOwnership","outputs":[],"stateMutability":"nonpayable","type":"function"},{"inputs":[{"internalType":"uint256","name":"debateId","type":"uint256"},{"internalType":"uint256","name":"optionIndex","type":"uint256"},{"internalType":"uint256","name":"amount","type":"uint256"}],"name":"stakeAndVote","outputs":[],"stateMutability":"nonpayable","type":"function"},{"inputs":[{"internalType":"address","name":"newOwner","type":"address"}],"name":"transferOwnership","outputs":[],"stateMutability":"nonpayable","type":"function"},{"inputs":[{"internalType":"uint256","name":"newMinStake","type":"uint256"}],"name":"updateMinStake","outputs":[],"stateMutability":"nonpayable","type":"function"},{"inputs":[{"internalType":"uint256","name":"newFeePercent","type":"uint256"}],"name":"updatePlatformFee","outputs":[],"stateMutability":"nonpayable","type":"function"},{"inputs":[],"name":"usdcToken","outputs":[{"internalType":"contract IERC20","name":"","type":"address"}],"stateMutability":"view","type":"function"},{"inputs":[],"name":"withdrawFees","outputs":[],"stateMutability":"nonpayable","type":"function"}],"evm":{"bytecode":{"linkReferences":{},"object":"6080346100db57601f611a2238819003918201601f19168301916001600160401b038311848410176100e0578084926020946040528339810103126100db57516001600160a01b0390818116908190036100db5733156100c25760005460018060a01b0319903382821617600055604051933391167f8be0079c531659141344cd1fd0a4f28419497f9722a3daafe3b4186f6b6457e0600080a3600180556000600255600560045562989680600555600354161760035561192b90816100f78239f35b604051631e4fbdf760e01b815260006004820152602490fd5b600080fd5b634e487b7160e01b600052604160045260246000fdfe604060a05260c060405260048036101561001857600080fd5b60003560e01c806303c7881a1461123a5780630f07a76c14610f5f57806311eac85514610f35578063476343ee14610df757806359758fcf14610d37578063715018a614610cde5780638c639a8514610cbf5780638cdb442f14610c9f5780638da5cb5b14610c7557806398d336af14610a45578063aa0b5988146109e9578063ae169a501461073c578063b3c3c845146103fb578063c172c3ca14610392578063d2fa95601461020c578063dc296ae11461019d578063f18876841461017e5763f2fde38b146100e857600080fd5b34610179576020366003190112610179576001600160a01b0381358181169290839003610179576101176114d8565b82156101605750600054826bffffffffffffffffffffffff60a01b821617600055167f8be0079c531659141344cd1fd0a4f28419497f9722a3daafe3b4186f6b6457e0600080a3005b602490600060a0515191631e4fbdf760e01b8352820152fd5b600080fd5b3461017957600036600319011261017957602060055460a05151908152f35b50346101795760a05136600319011261017957602090356101bc6112c9565b9060025481111580610203575b6101d29061165e565b6000526006825260a05190600b82600020019060018060a01b0316600052825260ff81600020541690519015158152f35b508015156101c9565b503461017957602036600319011261017957803560025481111580610389575b6102359061165e565b80600052600660205260a0519182600020926008840154421061034f5750600983019081549060ff8216610313575060ff19166001179055600582018054600093918490815b8381106102cc576102ca86807fef017bda8789bb32f3eea835ca786f6e79441b7df11b0a549f560d815dcabce78a60068a82600a820155015460a05151918252602082015260a05190a261175b565b005b826102d78284611646565b919054600392831b1c116102f5575b506102f090611504565b61027b565b91925095506103048683611646565b9054911b1c90856102f06102e6565b606490602060a051519162461bcd60e51b83528201526014602482015273111958985d1948185b1c9958591e48195b99195960621b6044820152fd5b906020606492519162461bcd60e51b83528201526014602482015273111958985d19481b9bdd081e595d08195b99195960621b6044820152fd5b5080151561022c565b50346101795760a0518060031936011261017957602435913560005260076020526000208054821015610179576060916103cb916114a6565b5060018060a01b038154169060ff60026001830154920154169060a051519283526020830152151560a051820152f35b50346101795760803660031901126101795767ffffffffffffffff9080358281116101795761042d9036908301611437565b906024918235848111610179576104479036908401611437565b9260443593858511610179573660238601121561017957848401359061046c8261148e565b9561047b60a051519788611319565b8287526020978888019085600595861b8401019236841161017957868101925b8484106107165750505050506064359460028751106106d257610e10861015806106c5575b15610677579195906104d6600295949554611504565b968795866002558660005260068a5260a051600020948786556001948593848801336bffffffffffffffffffffffff60a01b82541617905561051b8960028a01611529565b610529600396878a01611529565b4260078901556105398b42611639565b60088901556009880160ff198154169055600081848a019901955b6105aa575b8d8b8d817f0b65520c4493fbf0a5306921aa079653edfb08b0f7ca621269a41e7b59a585d68e61059660a05191825192835260a0518301906113f7565b93868201528033940390a360a05151908152f35b90919293949596979899835182101561067057508c81831b84010151895490600160401b918281101561065c57808b6105e692018d558c611646565b61064957906105f491611529565b86549081101561063557889594939291610616828861062994018a5589611646565b815490600019908c1b1b19169055611504565b8c9a9998979695610554565b85604186634e487b7160e01b600052526000fd5b87600088634e487b7160e01b8252526000fd5b87604188634e487b7160e01b600052526000fd5b9998610559565b60a0515162461bcd60e51b81529081018890526021818501527f4475726174696f6e206d757374206265203120686f757220746f2031207765656044820152606b60f81b6064820152608490fd5b5062093a808611156104c0565b60a0515162461bcd60e51b8152908101889052601b818501527f4174206c656173742032206f7074696f6e7320726571756972656400000000006044820152606490fd5b8335838111610179578c9161073183928b3691870101611437565b81520193019261049b565b5034610179576020806003193601126101795781359061075a6116f8565b600254821115806109e0575b61076f9061165e565b816000526006815260a0518060002060ff6009820154169081156109d1575b501561099a5750816000526006815260a051806000209033600052600b8201835260ff81600020541615610962575033600052600d8101825260a05190816000205491600a820154809303610931575061082e6108339261082960069333600052600c8101875261080960a051600020549360058301611646565b9590549101549460031b1c9360646108228a548361171b565b049061174e565b61171b565b61172e565b60035460a0515163a9059cbb60e01b815233818701908152602081018490529295929091849183916001600160a01b0316908290600090829060400103925af1908115610924576000916108f7575b50156108bb57507f4cbfa67f54cf0255619787991cb52aa46c0d3ee5cfabb0abf659f2b310f474859060a051519384523393a360018055005b60649160a051519162461bcd60e51b8352820152601660248201527514995dd85c99081d1c985b9cd9995c8819985a5b195960521b6044820152fd5b6109179150833d851161091d575b61090f8183611319565b8101906116a2565b38610882565b503d610905565b60a051513d6000823e3d90fd5b5162461bcd60e51b8152808601849052600c60248201526b2737ba1030903bb4b73732b960a11b6044820152606490fd5b5162461bcd60e51b81528085018390526013602482015272446964206e6f7420706172746963697061746560681b6044820152606490fd5b5162461bcd60e51b815292830152506013602482015272446562617465207374696c6c2061637469766560681b6044820152606490fd5b6008915001544210153861078e565b50811515610766565b503461017957602036600319011261017957803590610a066114d8565b60148211610a115755005b606490602060a051519162461bcd60e51b8352820152600c60248201526b08ccaca40e8dede40d0d2ced60a31b6044820152fd5b503461017957602036600319011261017957803560025481111580610c6c575b610a6e9061165e565b600052600660205260a051600020908160805281549060018060a01b03600184015416908301926006810154600782015460088301549060ff60098501541692610abf6002600a8701549601611351565b95610ace600360805101611351565b895490610ada8261148e565b91610ae960a051519384611319565b80835260208301809c60005260206000206000915b838310610c4f575050505060a05151988993846020600560805101549c8d815201809c60056080510160005260206000209060005b818110610c365750505091610b52610b80959492610b72940388611319565b602060a051519e8f90815201528c610160809160a05101528d01906113f7565b908b820360608d01526113f7565b9089820360808b015251808252602082019160208260051b8201019b926000915b838310610c085750505050888a0360a08a0152505180895260009860200196905b808a10610bf057505086975060c087015260e086015261010085015215156101208401526101408301520390f35b90966020806001928a51815201980199019890610bc2565b909192939c6020808f600193610c2791601f19878303018852516113f7565b9f019301930191939290610ba1565b8254845289945060209093019260019283019201610b33565b600160208192610c5e85611351565b815201920192019190610afe565b50801515610a65565b346101795760003660031901126101795760005460a051516001600160a01b039091168152602090f35b503461017957602036600319011261017957610cb96114d8565b35600555005b5034610179576000366003190112610179576020905460a05151908152f35b3461017957600036600319011261017957610cf76114d8565b600080546001600160a01b0319811682556001600160a01b03167f8be0079c531659141344cd1fd0a4f28419497f9722a3daafe3b4186f6b6457e08280a3005b503461017957602036600319011261017957356000908152600660205260a0519020805460018201546001600160a01b031691610d7660028201611351565b610d8260038301611351565b916006810154926007820154610dd6600884015492610dc8600a60ff6009880154169601549660a051519a8b9a8b5260208b01526101208060a0518c01528a01906113f7565b9088820360608a01526113f7565b94608087015260a086015260c0850152151560e08401526101008301520390f35b503461017957600036600319011261017957610e116114d8565b60035460a051516370a0823160e01b8152308184015260209290916001600160a01b0390811691908484602481865afa93841561092457600094610f06575b508315610ecb576000805460a0515163a9059cbb60e01b815292166001600160a01b03169282019283526020830194909452928492849290918391829060400103925af1908115610924576102ca92600092610eae575b50506116ba565b610ec49250803d1061091d5761090f8183611319565b3880610ea7565b60a0515162461bcd60e51b815280830186905260136024820152724e6f206665657320746f20776974686472617760681b6044820152606490fd5b9093508481813d8311610f2e575b610f1e8183611319565b8101031261017957519238610e50565b503d610f14565b346101795760003660031901126101795760035460a051516001600160a01b039091168152602090f35b50346101795760603660031901126101795780356024803592604491823592610f866116f8565b60025485111580611231575b610f9b9061165e565b8460005260069160209383855260a0518060002060ff600982015416159081611223575b50156111f0575060055486106111b8578660005283855260a0518181600020015489101561118857508660005283855260a051600b816000200133600052865260ff81600020541661115957509060648592600060018060a01b03600354168960a0515197889687956323b872dd60e01b8752339087015230908601528401525af18015610924576110599160009161113c575b506116ba565b836000528082526110c985600560a051600b816000200133600052865280600020600160ff1982541617905587600052848652600c816000200133600052865286816000205587600052848652600d81600020013360005286528281600020558760005284865260002001611646565b81549060031b906110dc8682841c611639565b821b91600019901b19161790558360005280825260a05160002001611102838254611639565b905560a051519384528301527fe10fdde2c5cd9b92e449ee25df01febda2cbebc5553e38f2250ffe7f2d5143bc339260a05190a360018055005b6111539150843d861161091d5761090f8183611319565b38611053565b83600d606494886c105b1c9958591e481d9bdd1959609a1b94519562461bcd60e51b8752860152840152820152fd5b83600e606494886d24b73b30b634b21037b83a34b7b760911b94519562461bcd60e51b8752860152840152820152fd5b735374616b6520616d6f756e7420746f6f206c6f7760601b8360146064948860a051519562461bcd60e51b8752860152840152820152fd5b8360116064948870446562617465206e6f742061637469766560781b94519562461bcd60e51b8752860152840152820152fd5b600891500154421038610fbf565b50841515610f92565b503461017957604036600319011261017957356112556112c9565b600254821115806112c0575b61126a9061165e565b81600052600660205260a05190600c82600020019060018060a01b031690816000526020528160002054926000526006602052600d82600020019060005260205280600020549051918252602082015260a05190f35b50811515611261565b602435906001600160a01b038216820361017957565b90600182811c9216801561130f575b60208310146112f957565b634e487b7160e01b600052602260045260246000fd5b91607f16916112ee565b90601f8019910116810190811067ffffffffffffffff82111761133b57604052565b634e487b7160e01b600052604160045260246000fd5b9060405191826000825492611365846112df565b9081845260019485811690816000146113d45750600114611391575b505061138f92500383611319565b565b9093915060005260209081600020936000915b8183106113bc57505061138f93508201013880611381565b855488840185015294850194879450918301916113a4565b91505061138f94506020925060ff191682840152151560051b8201013880611381565b919082519283825260005b848110611423575050826000602080949584010152601f8019910116010190565b602081830181015184830182015201611402565b81601f820112156101795780359067ffffffffffffffff821161133b576040519261146c601f8401601f191660200185611319565b8284526020838301011161017957816000926020809301838601378301015290565b67ffffffffffffffff811161133b5760051b60200190565b80548210156114c2576000526003602060002091020190600090565b634e487b7160e01b600052603260045260246000fd5b6000546001600160a01b031633036114ec57565b60405163118cdaa760e01b8152336004820152602490fd5b60001981146115135760010190565b634e487b7160e01b600052601160045260246000fd5b919091825167ffffffffffffffff811161133b5761154782546112df565b601f81116115f1575b50602080601f831160011461158d575081929394600092611582575b50508160011b916000199060031b1c1916179055565b01519050388061156c565b90601f198316958460005282600020926000905b8882106115d9575050836001959697106115c0575b505050811b019055565b015160001960f88460031b161c191690553880806115b6565b806001859682949686015181550195019301906115a1565b600083815260208120601f840160051c8101926020851061162f575b601f0160051c01915b828110611624575050611550565b818155600101611616565b909250829061160d565b9190820180921161151357565b80548210156114c25760005260206000200190600090565b1561166557565b60405162461bcd60e51b8152602060048201526015602482015274111958985d1948191bd95cc81b9bdd08195e1a5cdd605a1b6044820152606490fd5b90816020910312610179575180151581036101795790565b156116c157565b60405162461bcd60e51b815260206004820152600f60248201526e151c985b9cd9995c8819985a5b1959608a1b6044820152606490fd5b600260015414611709576002600155565b604051633ee5aeb560e01b8152600490fd5b8181029291811591840414171561151357565b8115611738570490565b634e487b7160e01b600052601260045260246000fd5b9190820391821161151357565b600081815260209060068252604080822093600a8501549560058601906117828883611646565b9054600391821b1c9283156118e957610822996117aa60068b0154606460049d8e548361171b565b938b899b019a5b8b548110156118da578281146117d0575b6117cb90611504565b6117b1565b866117db8286611646565b905490871b1c806117ee575b50506117c2565b9061082e6117fc928961171b565b888b5260078c52898b208a51906060820182811067ffffffffffffffff8211176118c5578c528c82528d82019283528b8201928d84528154600160401b8110156118af576118519060019384820181556114a6565b93909361189a575183546001600160a01b039091166001600160a01b0319909116178355519082015590516002909101805460ff191691151560ff1691909117905586386117e7565b50508f8d80602492634e487b7160e01b825252fd5b50508f8d6041602492634e487b7160e01b835252fd5b508f8d6041602492634e487b7160e01b835252fd5b509a5050505050505050505050565b5050965050505050505056fea2646970667358221220d2aaebaf0d5d41911efedac9137c9d1e2190179227bb5a01fd18c6ed30f41ce064736f6c63430008140033","opcodes":"PUSH1 0x80 CALLVALUE PUSH2 0xDB JUMPI PUSH1 0x1F PUSH2 0x1A22 CODESIZE DUP2 SWAP1 SUB SWAP2 DUP3 ADD PUSH1 0x1F NOT AND DUP4 ADD SWAP2 PUSH1 0x1 PUSH1 0x1 PUSH1 0x40 SHL SUB DUP4 GT DUP5 DUP5 LT OR PUSH2 0xE0 JUMPI DUP1 DUP5 SWAP3 PUSH1 0x20 SWAP5 PUSH1 0x40 MSTORE DUP4 CODECOPY DUP2 ADD SUB SLT PUSH2 0xDB JUMPI MLOAD PUSH1 0x1 PUSH1 0x1 PUSH1 0xA0 SHL SUB SWAP1 DUP2 DUP2 AND SWAP1 DUP2 SWAP1 SUB PUSH2 0xDB JUMPI CALLER ISZERO PUSH2 0xC2 JUMPI PUSH1 0x0 SLOAD PUSH1 0x1 DUP1 PUSH1 0xA0 SHL SUB NOT SWAP1 CALLER DUP3 DUP3 AND OR PUSH1 0x0 SSTORE PUSH1 0x40 MLOAD SWAP4 CALLER SWAP2 AND PUSH32 0x8BE0079C531659141344CD1FD0A4F28419497F9722A3DAAFE3B4186F6B6457E0 PUSH1 0x0 DUP1 LOG3 PUSH1 0x1 DUP1 SSTORE PUSH1 0x0 PUSH1 0x2 SSTORE PUSH1 0x5 PUSH1 0x4 SSTORE PUSH3 0x989680 PUSH1 0x5 SSTORE PUSH1 0x3 SLOAD AND OR PUSH1 0x3 SSTORE PUSH2 0x192B SWAP1 DUP2 PUSH2 0xF7 DUP3 CODECOPY RETURN JUMPDEST PUSH1 0x40 MLOAD PUSH4 0x1E4FBDF7 PUSH1 0xE0 SHL DUP2 MSTORE PUSH1 0x0 PUSH1 0x4 DUP3 ADD MSTORE PUSH1 0x24 SWAP1 REVERT JUMPDEST PUSH1 0x0 DUP1 REVERT JUMPDEST PUSH4 0x4E487B71 PUSH1 0xE0 SHL PUSH1 0x0 MSTORE PUSH1 0x41 PUSH1 0x4 MSTORE PUSH1 0x24 PUSH1 0x0 REVERT INVALID PUSH1 0x40 PUSH1 0xA0 MSTORE PUSH1 0xC0 PUSH1 0x40 MSTORE PUSH1 0x4 DUP1 CALLDATASIZE LT ISZERO PUSH2 0x18 JUMPI PUSH1 0x0 DUP1 REVERT JUMPDEST PUSH1 0x0 CALLDATALOAD PUSH1 0xE0 SHR DUP1 PUSH4 0x3C7881A EQ PUSH2 0x123A JUMPI DUP1 PUSH4 0xF07A76C EQ PUSH2 0xF5F JUMPI DUP1 PUSH4 0x11EAC855 EQ PUSH2 0xF35 JUMPI DUP1 PUSH4 0x476343EE EQ PUSH2 0xDF7 JUMPI DUP1 PUSH4 0x59758FCF EQ PUSH2 0xD37 JUMPI DUP1 PUSH4 0x715018A6 EQ PUSH2 0xCDE JUMPI DUP1 PUSH4 0x8C639A85 EQ PUSH2 0xCBF JUMPI DUP1 PUSH4 0x8CDB442F EQ PUSH2 0xC9F JUMPI DUP1 PUSH4 0x8DA5CB5B EQ PUSH2 0xC75 JUMPI DUP1 PUSH4 0x98D336AF EQ PUSH2 0xA45 JUMPI DUP1 PUSH4 0xAA0B5988 EQ PUSH2 0x9E9 JUMPI DUP1 PUSH4 0xAE169A50 EQ PUSH2 0x73C JUMPI DUP1 PUSH4 0xB3C3C845 EQ PUSH2 0x3FB JUMPI DUP1 PUSH4 0xC172C3CA EQ PUSH2 0x392 JUMPI DUP1 PUSH4 0xD2FA9560 EQ PUSH2 0x20C JUMPI DUP1 PUSH4 0xDC296AE1 EQ PUSH2 0x19D JUMPI DUP1 PUSH4 0xF1887684 EQ PUSH2 0x17E JUMPI PUSH4 0xF2FDE38B EQ PUSH2 0xE8 JUMPI PUSH1 0x0 DUP1 REVERT JUMPDEST CALLVALUE PUSH2 0x179 JUMPI PUSH1 0x20 CALLDATASIZE PUSH1 0x3 NOT ADD SLT PUSH2 0x179 JUMPI PUSH1 0x1 PUSH1 0x1 PUSH1 0xA0 SHL SUB DUP2 CALLDATALOAD DUP2 DUP2 AND SWAP3 SWAP1 DUP4 SWAP1 SUB PUSH2 0x179 JUMPI PUSH2 0x117 PUSH2 0x14D8 JUMP JUMPDEST DUP3 ISZERO PUSH2 0x160 JUMPI POP PUSH1 0x0 SLOAD DUP3 PUSH12 0xFFFFFFFFFFFFFFFFFFFFFFFF PUSH1 0xA0 SHL DUP3 AND OR PUSH1 0x0 SSTORE AND PUSH32 0x8BE0079C531659141344CD1FD0A4F28419497F9722A3DAAFE3B4186F6B6457E0 PUSH1 0x0 DUP1 LOG3 STOP JUMPDEST PUSH1 0x24 SWAP1 PUSH1 0x0 PUSH1 0xA0 MLOAD MLOAD SWAP2 PUSH4 0x1E4FBDF7 PUSH1 0xE0 SHL DUP4 MSTORE DUP3 ADD MSTORE REVERT JUMPDEST PUSH1 0x0 DUP1 REVERT JUMPDEST CALLVALUE PUSH2 0x179 JUMPI PUSH1 0x0 CALLDATASIZE PUSH1 0x3 NOT ADD SLT PUSH2 0x179 JUMPI PUSH1 0x20 PUSH1 0x5 SLOAD PUSH1 0xA0 MLOAD MLOAD SWAP1 DUP2 MSTORE RETURN JUMPDEST POP CALLVALUE PUSH2 0x179 JUMPI PUSH1 0xA0 MLOAD CALLDATASIZE PUSH1 0x3 NOT ADD SLT PUSH2 0x179 JUMPI PUSH1 0x20 SWAP1 CALLDATALOAD PUSH2 0x1BC PUSH2 0x12C9 JUMP JUMPDEST SWAP1 PUSH1 0x2 SLOAD DUP2 GT ISZERO DUP1 PUSH2 0x203 JUMPI JUMPDEST PUSH2 0x1D2 SWAP1 PUSH2 0x165E JUMP JUMPDEST PUSH1 0x0 MSTORE PUSH1 0x6 DUP3 MSTORE PUSH1 0xA0 MLOAD SWAP1 PUSH1 0xB DUP3 PUSH1 0x0 KECCAK256 ADD SWAP1 PUSH1 0x1 DUP1 PUSH1 0xA0 SHL SUB AND PUSH1 0x0 MSTORE DUP3 MSTORE PUSH1 0xFF DUP2 PUSH1 0x0 KECCAK256 SLOAD AND SWAP1 MLOAD SWAP1 ISZERO ISZERO DUP2 MSTORE RETURN JUMPDEST POP DUP1 ISZERO ISZERO PUSH2 0x1C9 JUMP JUMPDEST POP CALLVALUE PUSH2 0x179 JUMPI PUSH1 0x20 CALLDATASIZE PUSH1 0x3 NOT ADD SLT PUSH2 0x179 JUMPI DUP1 CALLDATALOAD PUSH1 0x2 SLOAD DUP2 GT ISZERO DUP1 PUSH2 0x389 JUMPI JUMPDEST PUSH2 0x235 SWAP1 PUSH2 0x165E JUMP JUMPDEST DUP1 PUSH1 0x0 MSTORE PUSH1 0x6 PUSH1 0x20 MSTORE PUSH1 0xA0 MLOAD SWAP2 DUP3 PUSH1 0x0 KECCAK256 SWAP3 PUSH1 0x8 DUP5 ADD SLOAD TIMESTAMP LT PUSH2 0x34F JUMPI POP PUSH1 0x9 DUP4 ADD SWAP1 DUP2 SLOAD SWAP1 PUSH1 0xFF DUP3 AND PUSH2 0x313 JUMPI POP PUSH1 0xFF NOT AND PUSH1 0x1 OR SWAP1 SSTORE PUSH1 0x5 DUP3 ADD DUP1 SLOAD PUSH1 0x0 SWAP4 SWAP2 DUP5 SWAP1 DUP2 JUMPDEST DUP4 DUP2 LT PUSH2 0x2CC JUMPI PUSH2 0x2CA DUP7 DUP1 PUSH32 0xEF017BDA8789BB32F3EEA835CA786F6E79441B7DF11B0A549F560D815DCABCE7 DUP11 PUSH1 0x6 DUP11 DUP3 PUSH1 0xA DUP3 ADD SSTORE ADD SLOAD PUSH1 0xA0 MLOAD MLOAD SWAP2 DUP3 MSTORE PUSH1 0x20 DUP3 ADD MSTORE PUSH1 0xA0 MLOAD SWAP1 LOG2 PUSH2 0x175B JUMP JUMPDEST STOP JUMPDEST DUP3 PUSH2 0x2D7 DUP3 DUP5 PUSH2 0x1646 JUMP JUMPDEST SWAP2 SWAP1 SLOAD PUSH1 0x3 SWAP3 DUP4 SHL SHR GT PUSH2 0x2F5 JUMPI JUMPDEST POP PUSH2 0x2F0 SWAP1 PUSH2 0x1504 JUMP JUMPDEST PUSH2 0x27B JUMP JUMPDEST SWAP2 SWAP3 POP SWAP6 POP PUSH2 0x304 DUP7 DUP4 PUSH2 0x1646 JUMP JUMPDEST SWAP1 SLOAD SWAP2 SHL SHR SWAP1 DUP6 PUSH2 0x2F0 PUSH2 0x2E6 JUMP JUMPDEST PUSH1 0x64 SWAP1 PUSH1 0x20 PUSH1 0xA0 MLOAD MLOAD SWAP2 PUSH3 0x461BCD PUSH1 0xE5 SHL DUP4 MSTORE DUP3 ADD MSTORE PUSH1 0x14 PUSH1 0x24 DUP3 ADD MSTORE PUSH20 0x111958985D1948185B1C9958591E48195B991959 PUSH1 0x62 SHL PUSH1 0x44 DUP3 ADD MSTORE REVERT JUMPDEST SWAP1 PUSH1 0x20 PUSH1 0x64 SWAP3 MLOAD SWAP2 PUSH3 0x461BCD PUSH1 0xE5 SHL DUP4 MSTORE DUP3 ADD MSTORE PUSH1 0x14 PUSH1 0x24 DUP3 ADD MSTORE PUSH20 0x111958985D19481B9BDD081E595D08195B991959 PUSH1 0x62 SHL PUSH1 0x44 DUP3 ADD MSTORE REVERT JUMPDEST POP DUP1 ISZERO ISZERO PUSH2 0x22C JUMP JUMPDEST POP CALLVALUE PUSH2 0x179 JUMPI PUSH1 0xA0 MLOAD DUP1 PUSH1 0x3 NOT CALLDATASIZE ADD SLT PUSH2 0x179 JUMPI PUSH1 0x24 CALLDATALOAD SWAP2 CALLDATALOAD PUSH1 0x0 MSTORE PUSH1 0x7 PUSH1 0x20 MSTORE PUSH1 0x0 KECCAK256 DUP1 SLOAD DUP3 LT ISZERO PUSH2 0x179 JUMPI PUSH1 0x60 SWAP2 PUSH2 0x3CB SWAP2 PUSH2 0x14A6 JUMP JUMPDEST POP PUSH1 0x1 DUP1 PUSH1 0xA0 SHL SUB DUP2 SLOAD AND SWAP1 PUSH1 0xFF PUSH1 0x2 PUSH1 0x1 DUP4 ADD SLOAD SWAP3 ADD SLOAD AND SWAP1 PUSH1 0xA0 MLOAD MLOAD SWAP3 DUP4 MSTORE PUSH1 0x20 DUP4 ADD MSTORE ISZERO ISZERO PUSH1 0xA0 MLOAD DUP3 ADD MSTORE RETURN JUMPDEST POP CALLVALUE PUSH2 0x179 JUMPI PUSH1 0x80 CALLDATASIZE PUSH1 0x3 NOT ADD SLT PUSH2 0x179 JUMPI PUSH8 0xFFFFFFFFFFFFFFFF SWAP1 DUP1 CALLDATALOAD DUP3 DUP2 GT PUSH2 0x179 JUMPI PUSH2 0x42D SWAP1 CALLDATASIZE SWAP1 DUP4 ADD PUSH2 0x1437 JUMP JUMPDEST SWAP1 PUSH1 0x24 SWAP2 DUP3 CALLDATALOAD DUP5 DUP2 GT PUSH2 0x179 JUMPI PUSH2 0x447 SWAP1 CALLDATASIZE SWAP1 DUP5 ADD PUSH2 0x1437 JUMP JUMPDEST SWAP3 PUSH1 0x44 CALLDATALOAD SWAP4 DUP6 DUP6 GT PUSH2 0x179 JUMPI CALLDATASIZE PUSH1 0x23 DUP7 ADD SLT ISZERO PUSH2 0x179 JUMPI DUP5 DUP5 ADD CALLDATALOAD SWAP1 PUSH2 0x46C DUP3 PUSH2 0x148E JUMP JUMPDEST SWAP6 PUSH2 0x47B PUSH1 0xA0 MLOAD MLOAD SWAP8 DUP9 PUSH2 0x1319 JUMP JUMPDEST DUP3 DUP8 MSTORE PUSH1 0x20 SWAP8 DUP9 DUP9 ADD SWAP1 DUP6 PUSH1 0x5 SWAP6 DUP7 SHL DUP5 ADD ADD SWAP3 CALLDATASIZE DUP5 GT PUSH2 0x179 JUMPI DUP7 DUP2 ADD SWAP3 JUMPDEST DUP5 DUP5 LT PUSH2 0x716 JUMPI POP POP POP POP POP PUSH1 0x64 CALLDATALOAD SWAP5 PUSH1 0x2 DUP8 MLOAD LT PUSH2 0x6D2 JUMPI PUSH2 0xE10 DUP7 LT ISZERO DUP1 PUSH2 0x6C5 JUMPI JUMPDEST ISZERO PUSH2 0x677 JUMPI SWAP2 SWAP6 SWAP1 PUSH2 0x4D6 PUSH1 0x2 SWAP6 SWAP5 SWAP6 SLOAD PUSH2 0x1504 JUMP JUMPDEST SWAP7 DUP8 SWAP6 DUP7 PUSH1 0x2 SSTORE DUP7 PUSH1 0x0 MSTORE PUSH1 0x6 DUP11 MSTORE PUSH1 0xA0 MLOAD PUSH1 0x0 KECCAK256 SWAP5 DUP8 DUP7 SSTORE PUSH1 0x1 SWAP5 DUP6 SWAP4 DUP5 DUP9 ADD CALLER PUSH12 0xFFFFFFFFFFFFFFFFFFFFFFFF PUSH1 0xA0 SHL DUP3 SLOAD AND OR SWAP1 SSTORE PUSH2 0x51B DUP10 PUSH1 0x2 DUP11 ADD PUSH2 0x1529 JUMP JUMPDEST PUSH2 0x529 PUSH1 0x3 SWAP7 DUP8 DUP11 ADD PUSH2 0x1529 JUMP JUMPDEST TIMESTAMP PUSH1 0x7 DUP10 ADD SSTORE PUSH2 0x539 DUP12 TIMESTAMP PUSH2 0x1639 JUMP JUMPDEST PUSH1 0x8 DUP10 ADD SSTORE PUSH1 0x9 DUP9 ADD PUSH1 0xFF NOT DUP2 SLOAD AND SWAP1 SSTORE PUSH1 0x0 DUP2 DUP5 DUP11 ADD SWAP10 ADD SWAP6 JUMPDEST PUSH2 0x5AA JUMPI JUMPDEST DUP14 DUP12 DUP14 DUP2 PUSH32 0xB65520C4493FBF0A5306921AA079653EDFB08B0F7CA621269A41E7B59A585D6 DUP15 PUSH2 0x596 PUSH1 0xA0 MLOAD SWAP2 DUP3 MLOAD SWAP3 DUP4 MSTORE PUSH1 0xA0 MLOAD DUP4 ADD SWAP1 PUSH2 0x13F7 JUMP JUMPDEST SWAP4 DUP7 DUP3 ADD MSTORE DUP1 CALLER SWAP5 SUB SWAP1 LOG3 PUSH1 0xA0 MLOAD MLOAD SWAP1 DUP2 MSTORE RETURN JUMPDEST SWAP1 SWAP2 SWAP3 SWAP4 SWAP5 SWAP6 SWAP7 SWAP8 SWAP9 SWAP10 DUP4 MLOAD DUP3 LT ISZERO PUSH2 0x670 JUMPI POP DUP13 DUP2 DUP4 SHL DUP5 ADD ADD MLOAD DUP10 SLOAD SWAP1 PUSH1 0x1 PUSH1 0x40 SHL SWAP2 DUP3 DUP2 LT ISZERO PUSH2 0x65C JUMPI DUP1 DUP12 PUSH2 0x5E6 SWAP3 ADD DUP14 SSTORE DUP13 PUSH2 0x1646 JUMP JUMPDEST PUSH2 0x649 JUMPI SWAP1 PUSH2 0x5F4 SWAP2 PUSH2 0x1529 JUMP JUMPDEST DUP7 SLOAD SWAP1 DUP2 LT ISZERO PUSH2 0x635 JUMPI DUP9 SWAP6 SWAP5 SWAP4 SWAP3 SWAP2 PUSH2 0x616 DUP3 DUP9 PUSH2 0x629 SWAP5 ADD DUP11 SSTORE DUP10 PUSH2 0x1646 JUMP JUMPDEST DUP2 SLOAD SWAP1 PUSH1 0x0 NOT SWAP1 DUP13 SHL SHL NOT AND SWAP1 SSTORE PUSH2 0x1504 JUMP JUMPDEST DUP13 SWAP11 SWAP10 SWAP9 SWAP8 SWAP7 SWAP6 PUSH2 0x554 JUMP JUMPDEST DUP6 PUSH1 0x41 DUP7 PUSH4 0x4E487B71 PUSH1 0xE0 SHL PUSH1 0x0 MSTORE MSTORE PUSH1 0x0 REVERT JUMPDEST DUP8 PUSH1 0x0 DUP9 PUSH4 0x4E487B71 PUSH1 0xE0 SHL DUP3 MSTORE MSTORE PUSH1 0x0 REVERT JUMPDEST DUP8 PUSH1 0x41 DUP9 PUSH4 0x4E487B71 PUSH1 0xE0 SHL PUSH1 0x0 MSTORE MSTORE PUSH1 0x0 REVERT JUMPDEST SWAP10 SWAP9 PUSH2 0x559 JUMP JUMPDEST PUSH1 0xA0 MLOAD MLOAD PUSH3 0x461BCD PUSH1 0xE5 SHL DUP2 MSTORE SWAP1 DUP2 ADD DUP9 SWAP1 MSTORE PUSH1 0x21 DUP2 DUP6 ADD MSTORE PUSH32 0x4475726174696F6E206D757374206265203120686F757220746F203120776565 PUSH1 0x44 DUP3 ADD MSTORE PUSH1 0x6B PUSH1 0xF8 SHL PUSH1 0x64 DUP3 ADD MSTORE PUSH1 0x84 SWAP1 REVERT JUMPDEST POP PUSH3 0x93A80 DUP7 GT ISZERO PUSH2 0x4C0 JUMP JUMPDEST PUSH1 0xA0 MLOAD MLOAD PUSH3 0x461BCD PUSH1 0xE5 SHL DUP2 MSTORE SWAP1 DUP2 ADD DUP9 SWAP1 MSTORE PUSH1 0x1B DUP2 DUP6 ADD MSTORE PUSH32 0x4174206C656173742032206F7074696F6E732072657175697265640000000000 PUSH1 0x44 DUP3 ADD MSTORE PUSH1 0x64 SWAP1 REVERT JUMPDEST DUP4 CALLDATALOAD DUP4 DUP2 GT PUSH2 0x179 JUMPI DUP13 SWAP2 PUSH2 0x731 DUP4 SWAP3 DUP12 CALLDATASIZE SWAP2 DUP8 ADD ADD PUSH2 0x1437 JUMP JUMPDEST DUP2 MSTORE ADD SWAP4 ADD SWAP3 PUSH2 0x49B JUMP JUMPDEST POP CALLVALUE PUSH2 0x179 JUMPI PUSH1 0x20 DUP1 PUSH1 0x3 NOT CALLDATASIZE ADD SLT PUSH2 0x179 JUMPI DUP2 CALLDATALOAD SWAP1 PUSH2 0x75A PUSH2 0x16F8 JUMP JUMPDEST PUSH1 0x2 SLOAD DUP3 GT ISZERO DUP1 PUSH2 0x9E0 JUMPI JUMPDEST PUSH2 0x76F SWAP1 PUSH2 0x165E JUMP JUMPDEST DUP2 PUSH1 0x0 MSTORE PUSH1 0x6 DUP2 MSTORE PUSH1 0xA0 MLOAD DUP1 PUSH1 0x0 KECCAK256 PUSH1 0xFF PUSH1 0x9 DUP3 ADD SLOAD AND SWAP1 DUP2 ISZERO PUSH2 0x9D1 JUMPI JUMPDEST POP ISZERO PUSH2 0x99A JUMPI POP DUP2 PUSH1 0x0 MSTORE PUSH1 0x6 DUP2 MSTORE PUSH1 0xA0 MLOAD DUP1 PUSH1 0x0 KECCAK256 SWAP1 CALLER PUSH1 0x0 MSTORE PUSH1 0xB DUP3 ADD DUP4 MSTORE PUSH1 0xFF DUP2 PUSH1 0x0 KECCAK256 SLOAD AND ISZERO PUSH2 0x962 JUMPI POP CALLER PUSH1 0x0 MSTORE PUSH1 0xD DUP2 ADD DUP3 MSTORE PUSH1 0xA0 MLOAD SWAP1 DUP2 PUSH1 0x0 KECCAK256 SLOAD SWAP2 PUSH1 0xA DUP3 ADD SLOAD DUP1 SWAP4 SUB PUSH2 0x931 JUMPI POP PUSH2 0x82E PUSH2 0x833 SWAP3 PUSH2 0x829 PUSH1 0x6 SWAP4 CALLER PUSH1 0x0 MSTORE PUSH1 0xC DUP2 ADD DUP8 MSTORE PUSH2 0x809 PUSH1 0xA0 MLOAD PUSH1 0x0 KECCAK256 SLOAD SWAP4 PUSH1 0x5 DUP4 ADD PUSH2 0x1646 JUMP JUMPDEST SWAP6 SWAP1 SLOAD SWAP2 ADD SLOAD SWAP5 PUSH1 0x3 SHL SHR SWAP4 PUSH1 0x64 PUSH2 0x822 DUP11 SLOAD DUP4 PUSH2 0x171B JUMP JUMPDEST DIV SWAP1 PUSH2 0x174E JUMP JUMPDEST PUSH2 0x171B JUMP JUMPDEST PUSH2 0x172E JUMP JUMPDEST PUSH1 0x3 SLOAD PUSH1 0xA0 MLOAD MLOAD PUSH4 0xA9059CBB PUSH1 0xE0 SHL DUP2 MSTORE CALLER DUP2 DUP8 ADD SWAP1 DUP2 MSTORE PUSH1 0x20 DUP2 ADD DUP5 SWAP1 MSTORE SWAP3 SWAP6 SWAP3 SWAP1 SWAP2 DUP5 SWAP2 DUP4 SWAP2 PUSH1 0x1 PUSH1 0x1 PUSH1 0xA0 SHL SUB AND SWAP1 DUP3 SWAP1 PUSH1 0x0 SWAP1 DUP3 SWAP1 PUSH1 0x40 ADD SUB SWAP3 GAS CALL SWAP1 DUP2 ISZERO PUSH2 0x924 JUMPI PUSH1 0x0 SWAP2 PUSH2 0x8F7 JUMPI JUMPDEST POP ISZERO PUSH2 0x8BB JUMPI POP PUSH32 0x4CBFA67F54CF0255619787991CB52AA46C0D3EE5CFABB0ABF659F2B310F47485 SWAP1 PUSH1 0xA0 MLOAD MLOAD SWAP4 DUP5 MSTORE CALLER SWAP4 LOG3 PUSH1 0x1 DUP1 SSTORE STOP JUMPDEST PUSH1 0x64 SWAP2 PUSH1 0xA0 MLOAD MLOAD SWAP2 PUSH3 0x461BCD PUSH1 0xE5 SHL DUP4 MSTORE DUP3 ADD MSTORE PUSH1 0x16 PUSH1 0x24 DUP3 ADD MSTORE PUSH22 0x14995DD85C99081D1C985B9CD9995C8819985A5B1959 PUSH1 0x52 SHL PUSH1 0x44 DUP3 ADD MSTORE REVERT JUMPDEST PUSH2 0x917 SWAP2 POP DUP4 RETURNDATASIZE DUP6 GT PUSH2 0x91D JUMPI JUMPDEST PUSH2 0x90F DUP2 DUP4 PUSH2 0x1319 JUMP JUMPDEST DUP2 ADD SWAP1 PUSH2 0x16A2 JUMP JUMPDEST CODESIZE PUSH2 0x882 JUMP JUMPDEST POP RETURNDATASIZE PUSH2 0x905 JUMP JUMPDEST PUSH1 0xA0 MLOAD MLOAD RETURNDATASIZE PUSH1 0x0 DUP3 RETURNDATACOPY RETURNDATASIZE SWAP1 REVERT JUMPDEST MLOAD PUSH3 0x461BCD PUSH1 0xE5 SHL DUP2 MSTORE DUP1 DUP7 ADD DUP5 SWAP1 MSTORE PUSH1 0xC PUSH1 0x24 DUP3 ADD MSTORE PUSH12 0x2737BA1030903BB4B73732B9 PUSH1 0xA1 SHL PUSH1 0x44 DUP3 ADD MSTORE PUSH1 0x64 SWAP1 REVERT JUMPDEST MLOAD PUSH3 0x461BCD PUSH1 0xE5 SHL DUP2 MSTORE DUP1 DUP6 ADD DUP4 SWAP1 MSTORE PUSH1 0x13 PUSH1 0x24 DUP3 ADD MSTORE PUSH19 0x446964206E6F74207061727469636970617465 PUSH1 0x68 SHL PUSH1 0x44 DUP3 ADD MSTORE PUSH1 0x64 SWAP1 REVERT JUMPDEST MLOAD PUSH3 0x461BCD PUSH1 0xE5 SHL DUP2 MSTORE SWAP3 DUP4 ADD MSTORE POP PUSH1 0x13 PUSH1 0x24 DUP3 ADD MSTORE PUSH19 0x446562617465207374696C6C20616374697665 PUSH1 0x68 SHL PUSH1 0x44 DUP3 ADD MSTORE PUSH1 0x64 SWAP1 REVERT JUMPDEST PUSH1 0x8 SWAP2 POP ADD SLOAD TIMESTAMP LT ISZERO CODESIZE PUSH2 0x78E JUMP JUMPDEST POP DUP2 ISZERO ISZERO PUSH2 0x766 JUMP JUMPDEST POP CALLVALUE PUSH2 0x179 JUMPI PUSH1 0x20 CALLDATASIZE PUSH1 0x3 NOT ADD SLT PUSH2 0x179 JUMPI DUP1 CALLDATALOAD SWAP1 PUSH2 0xA06 PUSH2 0x14D8 JUMP JUMPDEST PUSH1 0x14 DUP3 GT PUSH2 0xA11 JUMPI SSTORE STOP JUMPDEST PUSH1 0x64 SWAP1 PUSH1 0x20 PUSH1 0xA0 MLOAD MLOAD SWAP2 PUSH3 0x461BCD PUSH1 0xE5 SHL DUP4 MSTORE DUP3 ADD MSTORE PUSH1 0xC PUSH1 0x24 DUP3 ADD MSTORE PUSH12 0x8CCACA40E8DEDE40D0D2CED PUSH1 0xA3 SHL PUSH1 0x44 DUP3 ADD MSTORE REVERT JUMPDEST POP CALLVALUE PUSH2 0x179 JUMPI PUSH1 0x20 CALLDATASIZE PUSH1 0x3 NOT ADD SLT PUSH2 0x179 JUMPI DUP1 CALLDATALOAD PUSH1 0x2 SLOAD DUP2 GT ISZERO DUP1 PUSH2 0xC6C JUMPI JUMPDEST PUSH2 0xA6E SWAP1 PUSH2 0x165E JUMP JUMPDEST PUSH1 0x0 MSTORE PUSH1 0x6 PUSH1 0x20 MSTORE PUSH1 0xA0 MLOAD PUSH1 0x0 KECCAK256 SWAP1 DUP2 PUSH1 0x80 MSTORE DUP2 SLOAD SWAP1 PUSH1 0x1 DUP1 PUSH1 0xA0 SHL SUB PUSH1 0x1 DUP5 ADD SLOAD AND SWAP1 DUP4 ADD SWAP3 PUSH1 0x6 DUP2 ADD SLOAD PUSH1 0x7 DUP3 ADD SLOAD PUSH1 0x8 DUP4 ADD SLOAD SWAP1 PUSH1 0xFF PUSH1 0x9 DUP6 ADD SLOAD AND SWAP3 PUSH2 0xABF PUSH1 0x2 PUSH1 0xA DUP8 ADD SLOAD SWAP7 ADD PUSH2 0x1351 JUMP JUMPDEST SWAP6 PUSH2 0xACE PUSH1 0x3 PUSH1 0x80 MLOAD ADD PUSH2 0x1351 JUMP JUMPDEST DUP10 SLOAD SWAP1 PUSH2 0xADA DUP3 PUSH2 0x148E JUMP JUMPDEST SWAP2 PUSH2 0xAE9 PUSH1 0xA0 MLOAD MLOAD SWAP4 DUP5 PUSH2 0x1319 JUMP JUMPDEST DUP1 DUP4 MSTORE PUSH1 0x20 DUP4 ADD DUP1 SWAP13 PUSH1 0x0 MSTORE PUSH1 0x20 PUSH1 0x0 KECCAK256 PUSH1 0x0 SWAP2 JUMPDEST DUP4 DUP4 LT PUSH2 0xC4F JUMPI POP POP POP POP PUSH1 0xA0 MLOAD MLOAD SWAP9 DUP10 SWAP4 DUP5 PUSH1 0x20 PUSH1 0x5 PUSH1 0x80 MLOAD ADD SLOAD SWAP13 DUP14 DUP2 MSTORE ADD DUP1 SWAP13 PUSH1 0x5 PUSH1 0x80 MLOAD ADD PUSH1 0x0 MSTORE PUSH1 0x20 PUSH1 0x0 KECCAK256 SWAP1 PUSH1 0x0 JUMPDEST DUP2 DUP2 LT PUSH2 0xC36 JUMPI POP POP POP SWAP2 PUSH2 0xB52 PUSH2 0xB80 SWAP6 SWAP5 SWAP3 PUSH2 0xB72 SWAP5 SUB DUP9 PUSH2 0x1319 JUMP JUMPDEST PUSH1 0x20 PUSH1 0xA0 MLOAD MLOAD SWAP15 DUP16 SWAP1 DUP2 MSTORE ADD MSTORE DUP13 PUSH2 0x160 DUP1 SWAP2 PUSH1 0xA0 MLOAD ADD MSTORE DUP14 ADD SWAP1 PUSH2 0x13F7 JUMP JUMPDEST SWAP1 DUP12 DUP3 SUB PUSH1 0x60 DUP14 ADD MSTORE PUSH2 0x13F7 JUMP JUMPDEST SWAP1 DUP10 DUP3 SUB PUSH1 0x80 DUP12 ADD MSTORE MLOAD DUP1 DUP3 MSTORE PUSH1 0x20 DUP3 ADD SWAP2 PUSH1 0x20 DUP3 PUSH1 0x5 SHL DUP3 ADD ADD SWAP12 SWAP3 PUSH1 0x0 SWAP2 JUMPDEST DUP4 DUP4 LT PUSH2 0xC08 JUMPI POP POP POP POP DUP9 DUP11 SUB PUSH1 0xA0 DUP11 ADD MSTORE POP MLOAD DUP1 DUP10 MSTORE PUSH1 0x0 SWAP9 PUSH1 0x20 ADD SWAP7 SWAP1 JUMPDEST DUP1 DUP11 LT PUSH2 0xBF0 JUMPI POP POP DUP7 SWAP8 POP PUSH1 0xC0 DUP8 ADD MSTORE PUSH1 0xE0 DUP7 ADD MSTORE PUSH2 0x100 DUP6 ADD MSTORE ISZERO ISZERO PUSH2 0x120 DUP5 ADD MSTORE PUSH2 0x140 DUP4 ADD MSTORE SUB SWAP1 RETURN JUMPDEST SWAP1 SWAP7 PUSH1 0x20 DUP1 PUSH1 0x1 SWAP3 DUP11 MLOAD DUP2 MSTORE ADD SWAP9 ADD SWAP10 ADD SWAP9 SWAP1 PUSH2 0xBC2 JUMP JUMPDEST SWAP1 SWAP2 SWAP3 SWAP4 SWAP13 PUSH1 0x20 DUP1 DUP16 PUSH1 0x1 SWAP4 PUSH2 0xC27 SWAP2 PUSH1 0x1F NOT DUP8 DUP4 SUB ADD DUP9 MSTORE MLOAD PUSH2 0x13F7 JUMP JUMPDEST SWAP16 ADD SWAP4 ADD SWAP4 ADD SWAP2 SWAP4 SWAP3 SWAP1 PUSH2 0xBA1 JUMP JUMPDEST DUP3 SLOAD DUP5 MSTORE DUP10 SWAP5 POP PUSH1 0x20 SWAP1 SWAP4 ADD SWAP3 PUSH1 0x1 SWAP3 DUP4 ADD SWAP3 ADD PUSH2 0xB33 JUMP JUMPDEST PUSH1 0x1 PUSH1 0x20 DUP2 SWAP3 PUSH2 0xC5E DUP6 PUSH2 0x1351 JUMP JUMPDEST DUP2 MSTORE ADD SWAP3 ADD SWAP3 ADD SWAP2 SWAP1 PUSH2 0xAFE JUMP JUMPDEST POP DUP1 ISZERO ISZERO PUSH2 0xA65 JUMP JUMPDEST CALLVALUE PUSH2 0x179 JUMPI PUSH1 0x0 CALLDATASIZE PUSH1 0x3 NOT ADD SLT PUSH2 0x179 JUMPI PUSH1 0x0 SLOAD PUSH1 0xA0 MLOAD MLOAD PUSH1 0x1 PUSH1 0x1 PUSH1 0xA0 SHL SUB SWAP1 SWAP2 AND DUP2 MSTORE PUSH1 0x20 SWAP1 RETURN JUMPDEST POP CALLVALUE PUSH2 0x179 JUMPI PUSH1 0x20 CALLDATASIZE PUSH1 0x3 NOT ADD SLT PUSH2 0x179 JUMPI PUSH2 0xCB9 PUSH2 0x14D8 JUMP JUMPDEST CALLDATALOAD PUSH1 0x5 SSTORE STOP JUMPDEST POP CALLVALUE PUSH2 0x179 JUMPI PUSH1 0x0 CALLDATASIZE PUSH1 0x3 NOT ADD SLT PUSH2 0x179 JUMPI PUSH1 0x20 SWAP1 SLOAD PUSH1 0xA0 MLOAD MLOAD SWAP1 DUP2 MSTORE RETURN JUMPDEST CALLVALUE PUSH2 0x179 JUMPI PUSH1 0x0 CALLDATASIZE PUSH1 0x3 NOT ADD SLT PUSH2 0x179 JUMPI PUSH2 0xCF7 PUSH2 0x14D8 JUMP JUMPDEST PUSH1 0x0 DUP1 SLOAD PUSH1 0x1 PUSH1 0x1 PUSH1 0xA0 SHL SUB NOT DUP2 AND DUP3 SSTORE PUSH1 0x1 PUSH1 0x1 PUSH1 0xA0 SHL SUB AND PUSH32 0x8BE0079C531659141344CD1FD0A4F28419497F9722A3DAAFE3B4186F6B6457E0 DUP3 DUP1 LOG3 STOP JUMPDEST POP CALLVALUE PUSH2 0x179 JUMPI PUSH1 0x20 CALLDATASIZE PUSH1 0x3 NOT ADD SLT PUSH2 0x179 JUMPI CALLDATALOAD PUSH1 0x0 SWAP1 DUP2 MSTORE PUSH1 0x6 PUSH1 0x20 MSTORE PUSH1 0xA0 MLOAD SWAP1 KECCAK256 DUP1 SLOAD PUSH1 0x1 DUP3 ADD SLOAD PUSH1 0x1 PUSH1 0x1 PUSH1 0xA0 SHL SUB AND SWAP2 PUSH2 0xD76 PUSH1 0x2 DUP3 ADD PUSH2 0x1351 JUMP JUMPDEST PUSH2 0xD82 PUSH1 0x3 DUP4 ADD PUSH2 0x1351 JUMP JUMPDEST SWAP2 PUSH1 0x6 DUP2 ADD SLOAD SWAP3 PUSH1 0x7 DUP3 ADD SLOAD PUSH2 0xDD6 PUSH1 0x8 DUP5 ADD SLOAD SWAP3 PUSH2 0xDC8 PUSH1 0xA PUSH1 0xFF PUSH1 0x9 DUP9 ADD SLOAD AND SWAP7 ADD SLOAD SWAP7 PUSH1 0xA0 MLOAD MLOAD SWAP11 DUP12 SWAP11 DUP12 MSTORE PUSH1 0x20 DUP12 ADD MSTORE PUSH2 0x120 DUP1 PUSH1 0xA0 MLOAD DUP13 ADD MSTORE DUP11 ADD SWAP1 PUSH2 0x13F7 JUMP JUMPDEST SWAP1 DUP9 DUP3 SUB PUSH1 0x60 DUP11 ADD MSTORE PUSH2 0x13F7 JUMP JUMPDEST SWAP5 PUSH1 0x80 DUP8 ADD MSTORE PUSH1 0xA0 DUP7 ADD MSTORE PUSH1 0xC0 DUP6 ADD MSTORE ISZERO ISZERO PUSH1 0xE0 DUP5 ADD MSTORE PUSH2 0x100 DUP4 ADD MSTORE SUB SWAP1 RETURN JUMPDEST POP CALLVALUE PUSH2 0x179 JUMPI PUSH1 0x0 CALLDATASIZE PUSH1 0x3 NOT ADD SLT PUSH2 0x179 JUMPI PUSH2 0xE11 PUSH2 0x14D8 JUMP JUMPDEST PUSH1 0x3 SLOAD PUSH1 0xA0 MLOAD MLOAD PUSH4 0x70A08231 PUSH1 0xE0 SHL DUP2 MSTORE ADDRESS DUP2 DUP5 ADD MSTORE PUSH1 0x20 SWAP3 SWAP1 SWAP2 PUSH1 0x1 PUSH1 0x1 PUSH1 0xA0 SHL SUB SWAP1 DUP2 AND SWAP2 SWAP1 DUP5 DUP5 PUSH1 0x24 DUP2 DUP7 GAS STATICCALL SWAP4 DUP5 ISZERO PUSH2 0x924 JUMPI PUSH1 0x0 SWAP5 PUSH2 0xF06 JUMPI JUMPDEST POP DUP4 ISZERO PUSH2 0xECB JUMPI PUSH1 0x0 DUP1 SLOAD PUSH1 0xA0 MLOAD MLOAD PUSH4 0xA9059CBB PUSH1 0xE0 SHL DUP2 MSTORE SWAP3 AND PUSH1 0x1 PUSH1 0x1 PUSH1 0xA0 SHL SUB AND SWAP3 DUP3 ADD SWAP3 DUP4 MSTORE PUSH1 0x20 DUP4 ADD SWAP5 SWAP1 SWAP5 MSTORE SWAP3 DUP5 SWAP3 DUP5 SWAP3 SWAP1 SWAP2 DUP4 SWAP2 DUP3 SWAP1 PUSH1 0x40 ADD SUB SWAP3 GAS CALL SWAP1 DUP2 ISZERO PUSH2 0x924 JUMPI PUSH2 0x2CA SWAP3 PUSH1 0x0 SWAP3 PUSH2 0xEAE JUMPI JUMPDEST POP POP PUSH2 0x16BA JUMP JUMPDEST PUSH2 0xEC4 SWAP3 POP DUP1 RETURNDATASIZE LT PUSH2 0x91D JUMPI PUSH2 0x90F DUP2 DUP4 PUSH2 0x1319 JUMP JUMPDEST CODESIZE DUP1 PUSH2 0xEA7 JUMP JUMPDEST PUSH1 0xA0 MLOAD MLOAD PUSH3 0x461BCD PUSH1 0xE5 SHL DUP2 MSTORE DUP1 DUP4 ADD DUP7 SWAP1 MSTORE PUSH1 0x13 PUSH1 0x24 DUP3 ADD MSTORE PUSH19 0x4E6F206665657320746F207769746864726177 PUSH1 0x68 SHL PUSH1 0x44 DUP3 ADD MSTORE PUSH1 0x64 SWAP1 REVERT JUMPDEST SWAP1 SWAP4 POP DUP5 DUP2 DUP2 RETURNDATASIZE DUP4 GT PUSH2 0xF2E JUMPI JUMPDEST PUSH2 0xF1E DUP2 DUP4 PUSH2 0x1319 JUMP JUMPDEST DUP2 ADD SUB SLT PUSH2 0x179 JUMPI MLOAD SWAP3 CODESIZE PUSH2 0xE50 JUMP JUMPDEST POP RETURNDATASIZE PUSH2 0xF14 JUMP JUMPDEST CALLVALUE PUSH2 0x179 JUMPI PUSH1 0x0 CALLDATASIZE PUSH1 0x3 NOT ADD SLT PUSH2 0x179 JUMPI PUSH1 0x3 SLOAD PUSH1 0xA0 MLOAD MLOAD PUSH1 0x1 PUSH1 0x1 PUSH1 0xA0 SHL SUB SWAP1 SWAP2 AND DUP2 MSTORE PUSH1 0x20 SWAP1 RETURN JUMPDEST POP CALLVALUE PUSH2 0x179 JUMPI PUSH1 0x60 CALLDATASIZE PUSH1 0x3 NOT ADD SLT PUSH2 0x179 JUMPI DUP1 CALLDATALOAD PUSH1 0x24 DUP1 CALLDATALOAD SWAP3 PUSH1 0x44 SWAP2 DUP3 CALLDATALOAD SWAP3 PUSH2 0xF86 PUSH2 0x16F8 JUMP JUMPDEST PUSH1 0x2 SLOAD DUP6 GT ISZERO DUP1 PUSH2 0x1231 JUMPI JUMPDEST PUSH2 0xF9B SWAP1 PUSH2 0x165E JUMP JUMPDEST DUP5 PUSH1 0x0 MSTORE PUSH1 0x6 SWAP2 PUSH1 0x20 SWAP4 DUP4 DUP6 MSTORE PUSH1 0xA0 MLOAD DUP1 PUSH1 0x0 KECCAK256 PUSH1 0xFF PUSH1 0x9 DUP3 ADD SLOAD AND ISZERO SWAP1 DUP2 PUSH2 0x1223 JUMPI JUMPDEST POP ISZERO PUSH2 0x11F0 JUMPI POP PUSH1 0x5 SLOAD DUP7 LT PUSH2 0x11B8 JUMPI DUP7 PUSH1 0x0 MSTORE DUP4 DUP6 MSTORE PUSH1 0xA0 MLOAD DUP2 DUP2 PUSH1 0x0 KECCAK256 ADD SLOAD DUP10 LT ISZERO PUSH2 0x1188 JUMPI POP DUP7 PUSH1 0x0 MSTORE DUP4 DUP6 MSTORE PUSH1 0xA0 MLOAD PUSH1 0xB DUP2 PUSH1 0x0 KECCAK256 ADD CALLER PUSH1 0x0 MSTORE DUP7 MSTORE PUSH1 0xFF DUP2 PUSH1 0x0 KECCAK256 SLOAD AND PUSH2 0x1159 JUMPI POP SWAP1 PUSH1 0x64 DUP6 SWAP3 PUSH1 0x0 PUSH1 0x1 DUP1 PUSH1 0xA0 SHL SUB PUSH1 0x3 SLOAD AND DUP10 PUSH1 0xA0 MLOAD MLOAD SWAP8 DUP9 SWAP7 DUP8 SWAP6 PUSH4 0x23B872DD PUSH1 0xE0 SHL DUP8 MSTORE CALLER SWAP1 DUP8 ADD MSTORE ADDRESS SWAP1 DUP7 ADD MSTORE DUP5 ADD MSTORE GAS CALL DUP1 ISZERO PUSH2 0x924 JUMPI PUSH2 0x1059 SWAP2 PUSH1 0x0 SWAP2 PUSH2 0x113C JUMPI JUMPDEST POP PUSH2 0x16BA JUMP JUMPDEST DUP4 PUSH1 0x0 MSTORE DUP1 DUP3 MSTORE PUSH2 0x10C9 DUP6 PUSH1 0x5 PUSH1 0xA0 MLOAD PUSH1 0xB DUP2 PUSH1 0x0 KECCAK256 ADD CALLER PUSH1 0x0 MSTORE DUP7 MSTORE DUP1 PUSH1 0x0 KECCAK256 PUSH1 0x1 PUSH1 0xFF NOT DUP3 SLOAD AND OR SWAP1 SSTORE DUP8 PUSH1 0x0 MSTORE DUP5 DUP7 MSTORE PUSH1 0xC DUP2 PUSH1 0x0 KECCAK256 ADD CALLER PUSH1 0x0 MSTORE DUP7 MSTORE DUP7 DUP2 PUSH1 0x0 KECCAK256 SSTORE DUP8 PUSH1 0x0 MSTORE DUP5 DUP7 MSTORE PUSH1 0xD DUP2 PUSH1 0x0 KECCAK256 ADD CALLER PUSH1 0x0 MSTORE DUP7 MSTORE DUP3 DUP2 PUSH1 0x0 KECCAK256 SSTORE DUP8 PUSH1 0x0 MSTORE DUP5 DUP7 MSTORE PUSH1 0x0 KECCAK256 ADD PUSH2 0x1646 JUMP JUMPDEST DUP2 SLOAD SWAP1 PUSH1 0x3 SHL SWAP1 PUSH2 0x10DC DUP7 DUP3 DUP5 SHR PUSH2 0x1639 JUMP JUMPDEST DUP3 SHL SWAP2 PUSH1 0x0 NOT SWAP1 SHL NOT AND OR SWAP1 SSTORE DUP4 PUSH1 0x0 MSTORE DUP1 DUP3 MSTORE PUSH1 0xA0 MLOAD PUSH1 0x0 KECCAK256 ADD PUSH2 0x1102 DUP4 DUP3 SLOAD PUSH2 0x1639 JUMP JUMPDEST SWAP1 SSTORE PUSH1 0xA0 MLOAD MLOAD SWAP4 DUP5 MSTORE DUP4 ADD MSTORE PUSH32 0xE10FDDE2C5CD9B92E449EE25DF01FEBDA2CBEBC5553E38F2250FFE7F2D5143BC CALLER SWAP3 PUSH1 0xA0 MLOAD SWAP1 LOG3 PUSH1 0x1 DUP1 SSTORE STOP JUMPDEST PUSH2 0x1153 SWAP2 POP DUP5 RETURNDATASIZE DUP7 GT PUSH2 0x91D JUMPI PUSH2 0x90F DUP2 DUP4 PUSH2 0x1319 JUMP JUMPDEST CODESIZE PUSH2 0x1053 JUMP JUMPDEST DUP4 PUSH1 0xD PUSH1 0x64 SWAP5 DUP9 PUSH13 0x105B1C9958591E481D9BDD1959 PUSH1 0x9A SHL SWAP5 MLOAD SWAP6 PUSH3 0x461BCD PUSH1 0xE5 SHL DUP8 MSTORE DUP7 ADD MSTORE DUP5 ADD MSTORE DUP3 ADD MSTORE REVERT JUMPDEST DUP4 PUSH1 0xE PUSH1 0x64 SWAP5 DUP9 PUSH14 0x24B73B30B634B21037B83A34B7B7 PUSH1 0x91 SHL SWAP5 MLOAD SWAP6 PUSH3 0x461BCD PUSH1 0xE5 SHL DUP8 MSTORE DUP7 ADD MSTORE DUP5 ADD MSTORE DUP3 ADD MSTORE REVERT JUMPDEST PUSH20 0x5374616B6520616D6F756E7420746F6F206C6F77 PUSH1 0x60 SHL DUP4 PUSH1 0x14 PUSH1 0x64 SWAP5 DUP9 PUSH1 0xA0 MLOAD MLOAD SWAP6 PUSH3 0x461BCD PUSH1 0xE5 SHL DUP8 MSTORE DUP7 ADD MSTORE DUP5 ADD MSTORE DUP3 ADD MSTORE REVERT JUMPDEST DUP4 PUSH1 0x11 PUSH1 0x64 SWAP5 DUP9 PUSH17 0x446562617465206E6F7420616374697665 PUSH1 0x78 SHL SWAP5 MLOAD SWAP6 PUSH3 0x461BCD PUSH1 0xE5 SHL DUP8 MSTORE DUP7 ADD MSTORE DUP5 ADD MSTORE DUP3 ADD MSTORE REVERT JUMPDEST PUSH1 0x8 SWAP2 POP ADD SLOAD TIMESTAMP LT CODESIZE PUSH2 0xFBF JUMP JUMPDEST POP DUP5 ISZERO ISZERO PUSH2 0xF92 JUMP JUMPDEST POP CALLVALUE PUSH2 0x179 JUMPI PUSH1 0x40 CALLDATASIZE PUSH1 0x3 NOT ADD SLT PUSH2 0x179 JUMPI CALLDATALOAD PUSH2 0x1255 PUSH2 0x12C9 JUMP JUMPDEST PUSH1 0x2 SLOAD DUP3 GT ISZERO DUP1 PUSH2 0x12C0 JUMPI JUMPDEST PUSH2 0x126A SWAP1 PUSH2 0x165E JUMP JUMPDEST DUP2 PUSH1 0x0 MSTORE PUSH1 0x6 PUSH1 0x20 MSTORE PUSH1 0xA0 MLOAD SWAP1 PUSH1 0xC DUP3 PUSH1 0x0 KECCAK256 ADD SWAP1 PUSH1 0x1 DUP1 PUSH1 0xA0 SHL SUB AND SWAP1 DUP2 PUSH1 0x0 MSTORE PUSH1 0x20 MSTORE DUP2 PUSH1 0x0 KECCAK256 SLOAD SWAP3 PUSH1 0x0 MSTORE PUSH1 0x6 PUSH1 0x20 MSTORE PUSH1 0xD DUP3 PUSH1 0x0 KECCAK256 ADD SWAP1 PUSH1 0x0 MSTORE PUSH1 0x20 MSTORE DUP1 PUSH1 0x0 KECCAK256 SLOAD SWAP1 MLOAD SWAP2 DUP3 MSTORE PUSH1 0x20 DUP3 ADD MSTORE PUSH1 0xA0 MLOAD SWAP1 RETURN JUMPDEST POP DUP2 ISZERO ISZERO PUSH2 0x1261 JUMP JUMPDEST PUSH1 0x24 CALLDATALOAD SWAP1 PUSH1 0x1 PUSH1 0x1 PUSH1 0xA0 SHL SUB DUP3 AND DUP3 SUB PUSH2 0x179 JUMPI JUMP JUMPDEST SWAP1 PUSH1 0x1 DUP3 DUP2 SHR SWAP3 AND DUP1 ISZERO PUSH2 0x130F JUMPI JUMPDEST PUSH1 0x20 DUP4 LT EQ PUSH2 0x12F9 JUMPI JUMP JUMPDEST PUSH4 0x4E487B71 PUSH1 0xE0 SHL PUSH1 0x0 MSTORE PUSH1 0x22 PUSH1 0x4 MSTORE PUSH1 0x24 PUSH1 0x0 REVERT JUMPDEST SWAP2 PUSH1 0x7F AND SWAP2 PUSH2 0x12EE JUMP JUMPDEST SWAP1 PUSH1 0x1F DUP1 NOT SWAP2 ADD AND DUP2 ADD SWAP1 DUP2 LT PUSH8 0xFFFFFFFFFFFFFFFF DUP3 GT OR PUSH2 0x133B JUMPI PUSH1 0x40 MSTORE JUMP JUMPDEST PUSH4 0x4E487B71 PUSH1 0xE0 SHL PUSH1 0x0 MSTORE PUSH1 0x41 PUSH1 0x4 MSTORE PUSH1 0x24 PUSH1 0x0 REVERT JUMPDEST SWAP1 PUSH1 0x40 MLOAD SWAP2 DUP3 PUSH1 0x0 DUP3 SLOAD SWAP3 PUSH2 0x1365 DUP5 PUSH2 0x12DF JUMP JUMPDEST SWAP1 DUP2 DUP5 MSTORE PUSH1 0x1 SWAP5 DUP6 DUP2 AND SWAP1 DUP2 PUSH1 0x0 EQ PUSH2 0x13D4 JUMPI POP PUSH1 0x1 EQ PUSH2 0x1391 JUMPI JUMPDEST POP POP PUSH2 0x138F SWAP3 POP SUB DUP4 PUSH2 0x1319 JUMP JUMPDEST JUMP JUMPDEST SWAP1 SWAP4 SWAP2 POP PUSH1 0x0 MSTORE PUSH1 0x20 SWAP1 DUP2 PUSH1 0x0 KECCAK256 SWAP4 PUSH1 0x0 SWAP2 JUMPDEST DUP2 DUP4 LT PUSH2 0x13BC JUMPI POP POP PUSH2 0x138F SWAP4 POP DUP3 ADD ADD CODESIZE DUP1 PUSH2 0x1381 JUMP JUMPDEST DUP6 SLOAD DUP9 DUP5 ADD DUP6 ADD MSTORE SWAP5 DUP6 ADD SWAP5 DUP8 SWAP5 POP SWAP2 DUP4 ADD SWAP2 PUSH2 0x13A4 JUMP JUMPDEST SWAP2 POP POP PUSH2 0x138F SWAP5 POP PUSH1 0x20 SWAP3 POP PUSH1 0xFF NOT AND DUP3 DUP5 ADD MSTORE ISZERO ISZERO PUSH1 0x5 SHL DUP3 ADD ADD CODESIZE DUP1 PUSH2 0x1381 JUMP JUMPDEST SWAP2 SWAP1 DUP3 MLOAD SWAP3 DUP4 DUP3 MSTORE PUSH1 0x0 JUMPDEST DUP5 DUP2 LT PUSH2 0x1423 JUMPI POP POP DUP3 PUSH1 0x0 PUSH1 0x20 DUP1 SWAP5 SWAP6 DUP5 ADD ADD MSTORE PUSH1 0x1F DUP1 NOT SWAP2 ADD AND ADD ADD SWAP1 JUMP JUMPDEST PUSH1 0x20 DUP2 DUP4 ADD DUP2 ADD MLOAD DUP5 DUP4 ADD DUP3 ADD MSTORE ADD PUSH2 0x1402 JUMP JUMPDEST DUP2 PUSH1 0x1F DUP3 ADD SLT ISZERO PUSH2 0x179 JUMPI DUP1 CALLDATALOAD SWAP1 PUSH8 0xFFFFFFFFFFFFFFFF DUP3 GT PUSH2 0x133B JUMPI PUSH1 0x40 MLOAD SWAP3 PUSH2 0x146C PUSH1 0x1F DUP5 ADD PUSH1 0x1F NOT AND PUSH1 0x20 ADD DUP6 PUSH2 0x1319 JUMP JUMPDEST DUP3 DUP5 MSTORE PUSH1 0x20 DUP4 DUP4 ADD ADD GT PUSH2 0x179 JUMPI DUP2 PUSH1 0x0 SWAP3 PUSH1 0x20 DUP1 SWAP4 ADD DUP4 DUP7 ADD CALLDATACOPY DUP4 ADD ADD MSTORE SWAP1 JUMP JUMPDEST PUSH8 0xFFFFFFFFFFFFFFFF DUP2 GT PUSH2 0x133B JUMPI PUSH1 0x5 SHL PUSH1 0x20 ADD SWAP1 JUMP JUMPDEST DUP1 SLOAD DUP3 LT ISZERO PUSH2 0x14C2 JUMPI PUSH1 0x0 MSTORE PUSH1 0x3 PUSH1 0x20 PUSH1 0x0 KECCAK256 SWAP2 MUL ADD SWAP1 PUSH1 0x0 SWAP1 JUMP JUMPDEST PUSH4 0x4E487B71 PUSH1 0xE0 SHL PUSH1 0x0 MSTORE PUSH1 0x32 PUSH1 0x4 MSTORE PUSH1 0x24 PUSH1 0x0 REVERT JUMPDEST PUSH1 0x0 SLOAD PUSH1 0x1 PUSH1 0x1 PUSH1 0xA0 SHL SUB AND CALLER SUB PUSH2 0x14EC JUMPI JUMP JUMPDEST PUSH1 0x40 MLOAD PUSH4 0x118CDAA7 PUSH1 0xE0 SHL DUP2 MSTORE CALLER PUSH1 0x4 DUP3 ADD MSTORE PUSH1 0x24 SWAP1 REVERT JUMPDEST PUSH1 0x0 NOT DUP2 EQ PUSH2 0x1513 JUMPI PUSH1 0x1 ADD SWAP1 JUMP JUMPDEST PUSH4 0x4E487B71 PUSH1 0xE0 SHL PUSH1 0x0 MSTORE PUSH1 0x11 PUSH1 0x4 MSTORE PUSH1 0x24 PUSH1 0x0 REVERT JUMPDEST SWAP2 SWAP1 SWAP2 DUP3 MLOAD PUSH8 0xFFFFFFFFFFFFFFFF DUP2 GT PUSH2 0x133B JUMPI PUSH2 0x1547 DUP3 SLOAD PUSH2 0x12DF JUMP JUMPDEST PUSH1 0x1F DUP2 GT PUSH2 0x15F1 JUMPI JUMPDEST POP PUSH1 0x20 DUP1 PUSH1 0x1F DUP4 GT PUSH1 0x1 EQ PUSH2 0x158D JUMPI POP DUP2 SWAP3 SWAP4 SWAP5 PUSH1 0x0 SWAP3 PUSH2 0x1582 JUMPI JUMPDEST POP POP DUP2 PUSH1 0x1 SHL SWAP2 PUSH1 0x0 NOT SWAP1 PUSH1 0x3 SHL SHR NOT AND OR SWAP1 SSTORE JUMP JUMPDEST ADD MLOAD SWAP1 POP CODESIZE DUP1 PUSH2 0x156C JUMP JUMPDEST SWAP1 PUSH1 0x1F NOT DUP4 AND SWAP6 DUP5 PUSH1 0x0 MSTORE DUP3 PUSH1 0x0 KECCAK256 SWAP3 PUSH1 0x0 SWAP1 JUMPDEST DUP9 DUP3 LT PUSH2 0x15D9 JUMPI POP POP DUP4 PUSH1 0x1 SWAP6 SWAP7 SWAP8 LT PUSH2 0x15C0 JUMPI JUMPDEST POP POP POP DUP2 SHL ADD SWAP1 SSTORE JUMP JUMPDEST ADD MLOAD PUSH1 0x0 NOT PUSH1 0xF8 DUP5 PUSH1 0x3 SHL AND SHR NOT AND SWAP1 SSTORE CODESIZE DUP1 DUP1 PUSH2 0x15B6 JUMP JUMPDEST DUP1 PUSH1 0x1 DUP6 SWAP7 DUP3 SWAP5 SWAP7 DUP7 ADD MLOAD DUP2 SSTORE ADD SWAP6 ADD SWAP4 ADD SWAP1 PUSH2 0x15A1 JUMP JUMPDEST PUSH1 0x0 DUP4 DUP2 MSTORE PUSH1 0x20 DUP2 KECCAK256 PUSH1 0x1F DUP5 ADD PUSH1 0x5 SHR DUP2 ADD SWAP3 PUSH1 0x20 DUP6 LT PUSH2 0x162F JUMPI JUMPDEST PUSH1 0x1F ADD PUSH1 0x5 SHR ADD SWAP2 JUMPDEST DUP3 DUP2 LT PUSH2 0x1624 JUMPI POP POP PUSH2 0x1550 JUMP JUMPDEST DUP2 DUP2 SSTORE PUSH1 0x1 ADD PUSH2 0x1616 JUMP JUMPDEST SWAP1 SWAP3 POP DUP3 SWAP1 PUSH2 0x160D JUMP JUMPDEST SWAP2 SWAP1 DUP3 ADD DUP1 SWAP3 GT PUSH2 0x1513 JUMPI JUMP JUMPDEST DUP1 SLOAD DUP3 LT ISZERO PUSH2 0x14C2 JUMPI PUSH1 0x0 MSTORE PUSH1 0x20 PUSH1 0x0 KECCAK256 ADD SWAP1 PUSH1 0x0 SWAP1 JUMP JUMPDEST ISZERO PUSH2 0x1665 JUMPI JUMP JUMPDEST PUSH1 0x40 MLOAD PUSH3 0x461BCD PUSH1 0xE5 SHL DUP2 MSTORE PUSH1 0x20 PUSH1 0x4 DUP3 ADD MSTORE PUSH1 0x15 PUSH1 0x24 DUP3 ADD MSTORE PUSH21 0x111958985D1948191BD95CC81B9BDD08195E1A5CDD PUSH1 0x5A SHL PUSH1 0x44 DUP3 ADD MSTORE PUSH1 0x64 SWAP1 REVERT JUMPDEST SWAP1 DUP2 PUSH1 0x20 SWAP2 SUB SLT PUSH2 0x179 JUMPI MLOAD DUP1 ISZERO ISZERO DUP2 SUB PUSH2 0x179 JUMPI SWAP1 JUMP JUMPDEST ISZERO PUSH2 0x16C1 JUMPI JUMP JUMPDEST PUSH1 0x40 MLOAD PUSH3 0x461BCD PUSH1 0xE5 SHL DUP2 MSTORE PUSH1 0x20 PUSH1 0x4 DUP3 ADD MSTORE PUSH1 0xF PUSH1 0x24 DUP3 ADD MSTORE PUSH15 0x151C985B9CD9995C8819985A5B1959 PUSH1 0x8A SHL PUSH1 0x44 DUP3 ADD MSTORE PUSH1 0x64 SWAP1 REVERT JUMPDEST PUSH1 0x2 PUSH1 0x1 SLOAD EQ PUSH2 0x1709 JUMPI PUSH1 0x2 PUSH1 0x1 SSTORE JUMP JUMPDEST PUSH1 0x40 MLOAD PUSH4 0x3EE5AEB5 PUSH1 0xE0 SHL DUP2 MSTORE PUSH1 0x4 SWAP1 REVERT JUMPDEST DUP2 DUP2 MUL SWAP3 SWAP2 DUP2 ISZERO SWAP2 DUP5 DIV EQ OR ISZERO PUSH2 0x1513 JUMPI JUMP JUMPDEST DUP2 ISZERO PUSH2 0x1738 JUMPI DIV SWAP1 JUMP JUMPDEST PUSH4 0x4E487B71 PUSH1 0xE0 SHL PUSH1 0x0 MSTORE PUSH1 0x12 PUSH1 0x4 MSTORE PUSH1 0x24 PUSH1 0x0 REVERT JUMPDEST SWAP2 SWAP1 DUP3 SUB SWAP2 DUP3 GT PUSH2 0x1513 JUMPI JUMP JUMPDEST PUSH1 0x0 DUP2 DUP2 MSTORE PUSH1 0x20 SWAP1 PUSH1 0x6 DUP3 MSTORE PUSH1 0x40 DUP1 DUP3 KECCAK256 SWAP4 PUSH1 0xA DUP6 ADD SLOAD SWAP6 PUSH1 0x5 DUP7 ADD SWAP1 PUSH2 0x1782 DUP9 DUP4 PUSH2 0x1646 JUMP JUMPDEST SWAP1 SLOAD PUSH1 0x3 SWAP2 DUP3 SHL SHR SWAP3 DUP4 ISZERO PUSH2 0x18E9 JUMPI PUSH2 0x822 SWAP10 PUSH2 0x17AA PUSH1 0x6 DUP12 ADD SLOAD PUSH1 0x64 PUSH1 0x4 SWAP14 DUP15 SLOAD DUP4 PUSH2 0x171B JUMP JUMPDEST SWAP4 DUP12 DUP10 SWAP12 ADD SWAP11 JUMPDEST DUP12 SLOAD DUP2 LT ISZERO PUSH2 0x18DA JUMPI DUP3 DUP2 EQ PUSH2 0x17D0 JUMPI JUMPDEST PUSH2 0x17CB SWAP1 PUSH2 0x1504 JUMP JUMPDEST PUSH2 0x17B1 JUMP JUMPDEST DUP7 PUSH2 0x17DB DUP3 DUP7 PUSH2 0x1646 JUMP JUMPDEST SWAP1 SLOAD SWAP1 DUP8 SHL SHR DUP1 PUSH2 0x17EE JUMPI JUMPDEST POP POP PUSH2 0x17C2 JUMP JUMPDEST SWAP1 PUSH2 0x82E PUSH2 0x17FC SWAP3 DUP10 PUSH2 0x171B JUMP JUMPDEST DUP9 DUP12 MSTORE PUSH1 0x7 DUP13 MSTORE DUP10 DUP12 KECCAK256 DUP11 MLOAD SWAP1 PUSH1 0x60 DUP3 ADD DUP3 DUP2 LT PUSH8 0xFFFFFFFFFFFFFFFF DUP3 GT OR PUSH2 0x18C5 JUMPI DUP13 MSTORE DUP13 DUP3 MSTORE DUP14 DUP3 ADD SWAP3 DUP4 MSTORE DUP12 DUP3 ADD SWAP3 DUP14 DUP5 MSTORE DUP2 SLOAD PUSH1 0x1 PUSH1 0x40 SHL DUP2 LT ISZERO PUSH2 0x18AF JUMPI PUSH2 0x1851 SWAP1 PUSH1 0x1 SWAP4 DUP5 DUP3 ADD DUP2 SSTORE PUSH2 0x14A6 JUMP JUMPDEST SWAP4 SWAP1 SWAP4 PUSH2 0x189A JUMPI MLOAD DUP4 SLOAD PUSH1 0x1 PUSH1 0x1 PUSH1 0xA0 SHL SUB SWAP1 SWAP2 AND PUSH1 0x1 PUSH1 0x1 PUSH1 0xA0 SHL SUB NOT SWAP1 SWAP2 AND OR DUP4 SSTORE MLOAD SWAP1 DUP3 ADD SSTORE SWAP1 MLOAD PUSH1 0x2 SWAP1 SWAP2 ADD DUP1 SLOAD PUSH1 0xFF NOT AND SWAP2 ISZERO ISZERO PUSH1 0xFF AND SWAP2 SWAP1 SWAP2 OR SWAP1 SSTORE DUP7 CODESIZE PUSH2 0x17E7 JUMP JUMPDEST POP POP DUP16 DUP14 DUP1 PUSH1 0x24 SWAP3 PUSH4 0x4E487B71 PUSH1 0xE0 SHL DUP3 MSTORE MSTORE REVERT JUMPDEST POP POP DUP16 DUP14 PUSH1 0x41 PUSH1 0x24 SWAP3 PUSH4 0x4E487B71 PUSH1 0xE0 SHL DUP4 MSTORE MSTORE REVERT JUMPDEST POP DUP16 DUP14 PUSH1 0x41 PUSH1 0x24 SWAP3 PUSH4 0x4E487B71 PUSH1 0xE0 SHL DUP4 MSTORE MSTORE REVERT JUMPDEST POP SWAP11 POP POP POP POP POP POP POP POP POP POP POP JUMP JUMPDEST POP POP SWAP7 POP POP POP POP POP POP POP JUMP INVALID LOG2 PUSH5 0x6970667358 0x22 SLT KECCAK256 0xD2 0xAA 0xEB 0xAF 0xD 0x5D COINBASE SWAP2 0x1E INVALID 0xDA 0xC9 SGT PUSH29 0x9D1E2190179227BB5A01FD18C6ED30F41CE064736F6C63430008140033 "},"methodIdentifiers":{"claimReward(uint256)":"ae169a50","createDebate(string,string,string[],uint256)":"b3c3c845","debateRewards(uint256,uint256)":"c172c3ca","debates(uint256)":"59758fcf","endDebate(uint256)":"d2fa9560","getDebate(uint256)":"98d336af","getUserVote(uint256,address)":"03c7881a","hasUserVoted(uint256,address)":"dc296ae1","minStakeAmount()":"f1887684","owner()":"8da5cb5b","platformFeePercent()":"8c639a85","renounceOwnership()":"715018a6","stakeAndVote(uint256,uint256,uint256)":"0f07a76c","transferOwnership(address)":"f2fde38b","updateMinStake(uint256)":"8cdb442f","updatePlatformFee(uint256)":"aa0b5988","usdcToken()":"11eac855","withdrawFees()":"476343ee"}}}}}