{"contracts/DebateContractV2.sol":{"DebateContractV2":{"abi":[{"inputs":[{"internalType":"address","name":"_debateToken","type":"address"}],"stateMutability":"nonpayable","type":"constructor"},{"inputs":[],"name":"EnforcedPause","type":"error"},{"inputs":[],"name":"ExpectedPause","type":"error"},{"inputs":[{"internalType":"address","name":"owner","type":"address"}],"name":"OwnableInvalidOwner","type":"error"},{"inputs":[{"internalType":"address","name":"account","type":"address"}],"name":"OwnableUnauthorizedAccount","type":"error"},{"inputs":[],"name":"ReentrancyGuardReentrantCall","type":"error"},{"anonymous":false,"inputs":[{"indexed":true,"internalType":"uint256","name":"debateId","type":"uint256"},{"indexed":true,"internalType":"address","name":"creator","type":"address"},{"indexed":false,"internalType":"string","name":"title","type":"string"},{"indexed":false,"internalType":"uint256","name":"duration","type":"uint256"}],"name":"DebateCreated","type":"event"},{"anonymous":false,"inputs":[{"indexed":true,"internalType":"uint256","name":"debateId","type":"uint256"},{"indexed":false,"internalType":"uint256","name":"winningOption","type":"uint256"},{"indexed":false,"internalType":"uint256","name":"totalStaked","type":"uint256"}],"name":"DebateEnded","type":"event"},{"anonymous":false,"inputs":[{"indexed":true,"internalType":"address","name":"previousOwner","type":"address"},{"indexed":true,"internalType":"address","name":"newOwner","type":"address"}],"name":"OwnershipTransferred","type":"event"},{"anonymous":false,"inputs":[{"indexed":false,"internalType":"address","name":"account","type":"address"}],"name":"Paused","type":"event"},{"anonymous":false,"inputs":[{"indexed":true,"internalType":"uint256","name":"debateId","type":"uint256"},{"indexed":true,"internalType":"address","name":"winner","type":"address"},{"indexed":false,"internalType":"uint256","name":"amount","type":"uint256"}],"name":"RewardClaimed","type":"event"},{"anonymous":false,"inputs":[{"indexed":true,"internalType":"uint256","name":"debateId","type":"uint256"},{"indexed":true,"internalType":"address","name":"winner","type":"address"},{"indexed":false,"internalType":"uint256","name":"amount","type":"uint256"}],"name":"RewardsDistributed","type":"event"},{"anonymous":false,"inputs":[{"indexed":true,"internalType":"uint256","name":"debateId","type":"uint256"},{"indexed":true,"internalType":"address","name":"voter","type":"address"},{"indexed":false,"internalType":"uint256","name":"optionIndex","type":"uint256"},{"indexed":false,"internalType":"uint256","name":"amount","type":"uint256"}],"name":"StakePlaced","type":"event"},{"anonymous":false,"inputs":[{"indexed":false,"internalType":"address","name":"account","type":"address"}],"name":"Unpaused","type":"event"},{"inputs":[{"internalType":"uint256","name":"debateId","type":"uint256"},{"internalType":"address","name":"user","type":"address"}],"name":"calculateUserReward","outputs":[{"internalType":"uint256","name":"","type":"uint256"}],"stateMutability":"view","type":"function"},{"inputs":[{"internalType":"uint256","name":"debateId","type":"uint256"}],"name":"claimReward","outputs":[],"stateMutability":"nonpayable","type":"function"},{"inputs":[{"internalType":"string","name":"title","type":"string"},{"internalType":"string","name":"description","type":"string"},{"internalType":"string[]","name":"options","type":"string[]"},{"internalType":"uint256","name":"duration","type":"uint256"}],"name":"createDebate","outputs":[{"internalType":"uint256","name":"","type":"uint256"}],"stateMutability":"nonpayable","type":"function"},{"inputs":[],"name":"debateCreationFee","outputs":[{"internalType":"uint256","name":"","type":"uint256"}],"stateMutability":"view","type":"function"},{"inputs":[],"name":"debateToken","outputs":[{"internalType":"contract DebateToken","name":"","type":"address"}],"stateMutability":"view","type":"function"},{"inputs":[{"internalType":"uint256","name":"","type":"uint256"}],"name":"debates","outputs":[{"internalType":"uint256","name":"id","type":"uint256"},{"internalType":"address","name":"creator","type":"address"},{"internalType":"string","name":"title","type":"string"},{"internalType":"string","name":"description","type":"string"},{"internalType":"uint256","name":"totalStaked","type":"uint256"},{"internalType":"uint256","name":"startTime","type":"uint256"},{"internalType":"uint256","name":"endTime","type":"uint256"},{"internalType":"bool","name":"ended","type":"bool"},{"internalType":"uint256","name":"winningOption","type":"uint256"},{"internalType":"uint256","name":"platformFeeCollected","type":"uint256"}],"stateMutability":"view","type":"function"},{"inputs":[{"internalType":"uint256","name":"debateId","type":"uint256"}],"name":"endDebate","outputs":[],"stateMutability":"nonpayable","type":"function"},{"inputs":[{"internalType":"uint256","name":"debateId","type":"uint256"}],"name":"getDebate","outputs":[{"internalType":"uint256","name":"id","type":"uint256"},{"internalType":"address","name":"creator","type":"address"},{"internalType":"string","name":"title","type":"string"},{"internalType":"string","name":"description","type":"string"},{"internalType":"string[]","name":"options","type":"string[]"},{"internalType":"uint256[]","name":"stakes","type":"uint256[]"},{"internalType":"uint256","name":"totalStaked","type":"uint256"},{"internalType":"uint256","name":"startTime","type":"uint256"},{"internalType":"uint256","name":"endTime","type":"uint256"},{"internalType":"bool","name":"ended","type":"bool"},{"internalType":"uint256","name":"winningOption","type":"uint256"},{"internalType":"uint256","name":"platformFeeCollected","type":"uint256"}],"stateMutability":"view","type":"function"},{"inputs":[],"name":"getTotalDebates","outputs":[{"internalType":"uint256","name":"","type":"uint256"}],"stateMutability":"view","type":"function"},{"inputs":[{"internalType":"address","name":"user","type":"address"}],"name":"getUserActiveDebate","outputs":[{"internalType":"uint256","name":"","type":"uint256"}],"stateMutability":"view","type":"function"},{"inputs":[{"internalType":"uint256","name":"debateId","type":"uint256"},{"internalType":"address","name":"user","type":"address"}],"name":"getUserVote","outputs":[{"internalType":"uint256","name":"stake","type":"uint256"},{"internalType":"uint256","name":"option","type":"uint256"},{"internalType":"bool","name":"hasClaimed","type":"bool"}],"stateMutability":"view","type":"function"},{"inputs":[{"internalType":"uint256","name":"debateId","type":"uint256"},{"internalType":"address","name":"user","type":"address"}],"name":"hasUserVoted","outputs":[{"internalType":"bool","name":"","type":"bool"}],"stateMutability":"view","type":"function"},{"inputs":[],"name":"maxStakeAmount","outputs":[{"internalType":"uint256","name":"","type":"uint256"}],"stateMutability":"view","type":"function"},{"inputs":[],"name":"minStakeAmount","outputs":[{"internalType":"uint256","name":"","type":"uint256"}],"stateMutability":"view","type":"function"},{"inputs":[],"name":"owner","outputs":[{"internalType":"address","name":"","type":"address"}],"stateMutability":"view","type":"function"},{"inputs":[],"name":"pause","outputs":[],"stateMutability":"nonpayable","type":"function"},{"inputs":[],"name":"paused","outputs":[{"internalType":"bool","name":"","type":"bool"}],"stateMutability":"view","type":"function"},{"inputs":[],"name":"platformFeePercent","outputs":[{"internalType":"uint256","name":"","type":"uint256"}],"stateMutability":"view","type":"function"},{"inputs":[],"name":"renounceOwnership","outputs":[],"stateMutability":"nonpayable","type":"function"},{"inputs":[{"internalType":"uint256","name":"debateId","type":"uint256"},{"internalType":"uint256","name":"optionIndex","type":"uint256"},{"internalType":"uint256","name":"amount","type":"uint256"}],"name":"stakeAndVote","outputs":[],"stateMutability":"nonpayable","type":"function"},{"inputs":[{"internalType":"address","name":"newOwner","type":"address"}],"name":"transferOwnership","outputs":[],"stateMutability":"nonpayable","type":"function"},{"inputs":[],"name":"unpause","outputs":[],"stateMutability":"nonpayable","type":"function"},{"inputs":[{"internalType":"uint256","name":"newFee","type":"uint256"}],"name":"updateCreationFee","outputs":[],"stateMutability":"nonpayable","type":"function"},{"inputs":[{"internalType":"uint256","name":"newMaxStake","type":"uint256"}],"name":"updateMaxStake","outputs":[],"stateMutability":"nonpayable","type":"function"},{"inputs":[{"internalType":"uint256","name":"newMinStake","type":"uint256"}],"name":"updateMinStake","outputs":[],"stateMutability":"nonpayable","type":"function"},{"inputs":[{"internalType":"uint256","name":"newFeePercent","type":"uint256"}],"name":"updatePlatformFee","outputs":[],"stateMutability":"nonpayable","type":"function"},{"inputs":[{"internalType":"address","name":"","type":"address"}],"name":"userActiveDebates","outputs":[{"internalType":"uint256","name":"","type":"uint256"}],"stateMutability":"view","type":"function"},{"inputs":[],"name":"withdrawFees","outputs":[],"stateMutability":"nonpayable","type":"function"}],"evm":{"bytecode":{"linkReferences":{},"object":"6080346100fb57601f611f1238819003918201601f19168301916001600160401b03831184841017610100578084926020946040528339810103126100fb57516001600160a01b0390818116908190036100fb5733156100e25760005460018060a01b0319903382821617600055604051933391167f8be0079c531659141344cd1fd0a4f28419497f9722a3daafe3b4186f6b6457e0600080a36001805560006003556005805568056bc75e2d6310000060065569021e19e0c9bab24000006007556802b5e3af16b18800006008556004541617600455611dfb90816101178239f35b604051631e4fbdf760e01b815260006004820152602490fd5b600080fd5b634e487b7160e01b600052604160045260246000fdfe608060405260048036101561001357600080fd5b60003560e01c90816303c7881a146117e05781630f07a76c146114d957816321af0da7146114b25781633461f164146114945781633f4ba83a1461142b578163476343ee146112ea57816359758fcf146112225781635c975abb146111ff5781635d80ca32146111e15781636fa23795146111c2578163715018a6146111695781638456cb591461110f5781638c639a85146110f15781638cdb442f146110855781638da5cb5b1461105c5781638fa7f74514610fe157816398d336af14610db8578163a7d67ae114610d9a578163aa0b598814610d3d578163ae169a5014610a65578163b3c3c84514610500578163c546295b14610153578163d2fa9560146102f7578163dc296ae11461028a578163e750d6fa1461023e578163f188768414610220578163f2fde38b14610192575063ff0b2ba61461015357600080fd5b3461018d57602036600319011261018d576001600160a01b0361017461188b565b16600052600a6020526020604060002054604051908152f35b600080fd5b3461018d57602036600319011261018d576101ab61188b565b6101b3611a68565b6001600160a01b039081169182156102085750600054826bffffffffffffffffffffffff60a01b821617600055167f8be0079c531659141344cd1fd0a4f28419497f9722a3daafe3b4186f6b6457e0600080a3005b602490600060405191631e4fbdf760e01b8352820152fd5b3461018d57600036600319011261018d576020600654604051908152f35b3461018d57604036600319011261018d576102796020913561025e611875565b9060035481111580610281575b61027490611c71565b611d33565b604051908152f35b5080151561026b565b3461018d57604036600319011261018d57356102a4611875565b90600354811115806102ee575b6102ba90611c71565b6000526009602052600c6040600020019060018060a01b0316600052602052602060ff604060002054166040519015158152f35b508015156102b1565b3461018d576020908160031936011261018d578035916003918254841115806104f7575b61032490611c71565b8360005260098252604060002090600882015442106104bc5760098201805460ff81166104815760018401546001600160a01b039081169390338514908115610473575b501561042f575060ff19166001179055600582018054600095909186805b8481106103f057897fef017bda8789bb32f3eea835ca786f6e79441b7df11b0a549f560d815dcabce760408b8b8b8b83600a8301556006820191600b60646103d2855460055490611cf3565b04910155600052600a825260008481205554908351928352820152a2005b816103fb8285611c18565b905490861b1c11610415575b61041090611aac565b610386565b809850610423915082611c18565b905490831b1c87610407565b60405162461bcd60e51b8152908101869052601d60248201527f4f6e6c792063726561746f72206f72206f776e65722063616e20656e640000006044820152606490fd5b905060005416331489610368565b60405162461bcd60e51b81528084018690526014602482015273111958985d1948185b1c9958591e48195b99195960621b6044820152606490fd5b60405162461bcd60e51b81529081018390526014602482015273111958985d19481b9bdd081e595d08195b99195960621b6044820152606490fd5b5083151561031b565b3461018d57608036600319011261018d5767ffffffffffffffff813581811161018d5761053090369084016119f9565b916024803583811161018d5761054990369084016119f9565b9360449283359385851161018d573660238601121561018d57848201359461057086611a50565b9561057e60405197886118db565b808752602097868989019260051b8401019236841161018d57878101925b848410610a3f5750505050506064918235946105b6611c4e565b6105be611c30565b33600052600a88526040600020546109f6578451156109bf5788511561098057865160028110159081610974575b501561093d57610e1086101580610930575b156108e7578154600854604080516323b872dd60e01b8152338187019081523060208201529182019290925290918a9183916001600160a01b0316908290600090829060600103925af19081156108db576000916108ae575b501561086f5790886106be969593926003926106738454611aac565b998a978886558860005260098d5260406000209689885560019b8c96878a01336bffffffffffffffffffffffff60a01b8254161790556106b68b60028c01611ad1565b888a01611ad1565b4260078901556106ce8b42611be1565b60088901556009880160ff19815416905560006005858a019901965b61074f575b8e8b8e8e827f0b65520c4493fbf0a5306921aa079653edfb08b0f7ca621269a41e7b59a585d68f33600052600a87528260406000205561073a604051916040835260408301906119b9565b93878201528033940390a38055604051908152f35b909192939495969798998451821015610868575061076d8185611bee565b51511561082e5761077e8185611bee565b5189549068010000000000000000918281101561081a57808f6107a492018d558c611c18565b61080757906107b291611ad1565b8754908110156107f3578c98979695949392916107d7828b6107ea94018a5589611c18565b815490600019908c1b1b19169055611aac565b8d9a99986106ea565b86604187634e487b7160e01b600052526000fd5b88600089634e487b7160e01b8252526000fd5b88604189634e487b7160e01b600052526000fd5b50754f7074696f6e2063616e6e6f7420626520656d70747960501b849160168f88906040519562461bcd60e51b8752860152840152820152fd5b99986106ef565b91601c7f4372656174696f6e20666565207472616e73666572206661696c6564000000009293896040519562461bcd60e51b8752860152840152820152fd5b6108ce9150893d8b116108d4575b6108c681836118db565b810190611a94565b8a610657565b503d6108bc565b6040513d6000823e3d90fd5b837f4475726174696f6e206d757374206265203120686f757220746f2031207765656084946021606b60f81b948c6040519762461bcd60e51b8952880152860152840152820152fd5b5062093a808611156105fe565b916015740c8b4c4c081bdc1d1a5bdb9cc81c995c5d5a5c9959605a1b9293896040519562461bcd60e51b8752860152840152820152fd5b600a915011158a6105ec565b91601b7f4465736372697074696f6e2063616e6e6f7420626520656d70747900000000009293896040519562461bcd60e51b8752860152840152820152fd5b916015745469746c652063616e6e6f7420626520656d70747960581b9293896040519562461bcd60e51b8752860152840152820152fd5b837f5573657220616c72656164792068617320616e206163746976652064656261746084946021606560f81b948c6040519762461bcd60e51b8952880152860152840152820152fd5b833583811161018d578b91610a5a83928c36918701016119f9565b81520193019261059c565b3461018d5760208060031936011261018d57813590610a82611c4e565b60035482111580610d34575b610a9790611c71565b8160005260098152604060002060ff600982015416908115610d25575b5015610cec57816000526009815260406000209233600052600c8401825260ff6040600020541615610cb45733600052600e8401825260406000205493600a810154809503610c8257600f8101943360005285845260ff60406000205416610c4c5790610b5a610b5f9233600052600d83018652610b55610b3e6040600020549260058601611c18565b90549060031b1c936006600b820154910154611d26565b611cf3565b611d06565b3360008181529584526040808720805460ff191660011790558354815163a9059cbb60e01b8152808601938452602084018590529397869385939084900301918391906001600160a01b03165af19081156108db57600091610c2f575b5015610bf457507f24b5efa61dd1cfc659205a97fb8ed868f3cb8c81922bab2b96423e5de1de2cb7906040519384523393a360018055005b6064916040519162461bcd60e51b8352820152601660248201527514995dd85c99081d1c985b9cd9995c8819985a5b195960521b6044820152fd5b610c469150833d85116108d4576108c681836118db565b85610bbc565b60405162461bcd60e51b8152808401859052600f60248201526e105b1c9958591e4818db185a5b5959608a1b6044820152606490fd5b506064916040519162461bcd60e51b8352820152600c60248201526b2737ba1030903bb4b73732b960a11b6044820152fd5b6064916040519162461bcd60e51b83528201526013602482015272446964206e6f7420706172746963697061746560681b6044820152fd5b826064916040519162461bcd60e51b83528201526013602482015272446562617465207374696c6c2061637469766560681b6044820152fd5b60089150015442101584610ab4565b50811515610a8e565b3461018d57602036600319011261018d57803590610d59611a68565b60148211610d675750600555005b60649060206040519162461bcd60e51b8352820152600c60248201526b08ccaca40e8dede40d0d2ced60a31b6044820152fd5b3461018d57600036600319011261018d576020600854604051908152f35b3461018d57602036600319011261018d57803560035481111580610fd8575b610de090611c71565b6000526009602052604060002080549060018060a01b036001820154169281019260068201546007830154600884015460ff60098601541691600a86015493600b87015495610e3160028901611913565b610e3d60038a01611913565b908b5492610e4a84611a50565b93610e5860405195866118db565b80855260208501809e60005260206000206000915b838310610fbb57505050509060059392918b60405160208197889301549182815201906005829f0160005260206000209060005b818110610fa25750505003610eb690866118db565b6040519c8d5260208d01528b6101806040819201528c01610ed6916119b9565b8b810360608d0152610ee7916119b9565b908a820360808c01525180825260208201918160051b81016020019c926000915b838310610f755750505050898b0360a08b01525051808a5260009960200197905b808b10610f5d57505087985060c088015260e087015261010086015215156101208501526101408401526101608301520390f35b90976020806001928b5181520199019a019990610f29565b909192939d8e601f198383030184525190610f8f916119b9565b9d60209081019493600101920190610f08565b8254845289945060209093019260019283019201610ea1565b600160208192610fca85611913565b815201920192019190610e6d565b50801515610dd7565b3461018d57602036600319011261018d57803590610ffd611a68565b60065482111561100d5750600755005b60849060206040519162461bcd60e51b8352820152602260248201527f4d6178207374616b65206d7573742062652067726561746572207468616e206d60448201526134b760f11b6064820152fd5b3461018d57600036600319011261018d576000546040516001600160a01b039091168152602090f35b3461018d57602036600319011261018d578035906110a1611a68565b81156110ad5750600655005b60649060206040519162461bcd60e51b8352820152601a60248201527f4d696e207374616b65206d75737420626520706f7369746976650000000000006044820152fd5b3461018d57600036600319011261018d576020600554604051908152f35b3461018d57600036600319011261018d57611128611a68565b611130611c30565b600160ff1960025416176002557f62e78cea01bee320cd4e420270b5ea74000d11b0c9f74754ebdbfc544b05a2586020604051338152a1005b3461018d57600036600319011261018d57611182611a68565b600080546001600160a01b0319811682556001600160a01b03167f8be0079c531659141344cd1fd0a4f28419497f9722a3daafe3b4186f6b6457e08280a3005b3461018d57602036600319011261018d576111db611a68565b35600855005b3461018d57600036600319011261018d576020600754604051908152f35b3461018d57600036600319011261018d57602060ff600254166040519015158152f35b3461018d57602036600319011261018d57356000908152600960205260409020805460018201546001600160a01b03169161125f60028201611913565b61126b60038301611913565b9160068101549260078201546008830154906112c360ff600986015416936112b5600b600a880154970154976040519b8c9b8c5260208c01526101408060408d01528b01906119b9565b9089820360608b01526119b9565b95608088015260a087015260c0860152151560e08501526101008401526101208301520390f35b3461018d57600036600319011261018d57611303611a68565b80546040516370a0823160e01b8152308184015260209290916001600160a01b0390811691908484602481865afa9384156108db576000946113fc575b5083156113c25791611385939160008694815416916040519687958694859363a9059cbb60e01b8552840160209093929193604081019460018060a01b031681520152565b03925af19081156108db576113a3926000926113a5575b5050611cb5565b005b6113bb9250803d106108d4576108c681836118db565b828061139c565b60405162461bcd60e51b815280830186905260136024820152724e6f206665657320746f20776974686472617760681b6044820152606490fd5b9093508481813d8311611424575b61141481836118db565b8101031261018d57519285611340565b503d61140a565b3461018d57600036600319011261018d57611444611a68565b6002549060ff821615611485575060ff19166002557f5db9ee0a495bf2e6ff9c91a7834c1ba4fdd244a5e8aa4e537bd38aeae4b073aa6020604051338152a1005b604051638dfc202b60e01b8152fd5b3461018d57600036600319011261018d576020600354604051908152f35b3461018d57600036600319011261018d57546040516001600160a01b039091168152602090f35b3461018d57606036600319011261018d57803560243591604435906114fc611c4e565b611504611c30565b600354831115806117d7575b61151990611c71565b826000526009602091818352604060002060ff83820154161590816117c9575b50156117915760065484101580611785575b1561174a578460005281835280604060002001548610156117155784600052818352600c60406000200133600052835260ff604060002054166116e1578054604080516323b872dd60e01b81523393810193845230602085015290830186905291849183918290036060019082906000906001600160a01b03165af180156108db576115df916000916116c4575b50611cb5565b83600052808252600c6040600020013360005282526040600020600160ff1982541617905583600052808252600d6040600020013360005282528260406000205583600052808252600e6040600020013360005282528460406000205583600052808252611654856005604060002001611c18565b81549060031b906116678682841c611be1565b821b91600019901b1916179055836000528152600660406000200161168d838254611be1565b90556040519384528301527fe10fdde2c5cd9b92e449ee25df01febda2cbebc5553e38f2250ffe7f2d5143bc60403393a360018055005b6116db9150843d86116108d4576108c681836118db565b876115d9565b60405162461bcd60e51b8152908101839052600d60248201526c105b1c9958591e481d9bdd1959609a1b6044820152606490fd5b60405162461bcd60e51b8152908101839052600e60248201526d24b73b30b634b21037b83a34b7b760911b6044820152606490fd5b60405162461bcd60e51b81529081018390526014602482015273125b9d985b1a59081cdd185ad948185b5bdd5b9d60621b6044820152606490fd5b5060075484111561154b565b60405162461bcd60e51b81529081018390526011602482015270446562617465206e6f742061637469766560781b6044820152606490fd5b600891500154421087611539565b50821515611510565b3461018d57604036600319011261018d57606090356117fd611875565b906003548111158061186c575b61181390611c71565b600052600960205260406000209060018060a01b0316600052600d810160205260406000205490600e8101602052600f604060002054910160205260ff6040600020541690604051928352602083015215156040820152f35b5080151561180a565b602435906001600160a01b038216820361018d57565b600435906001600160a01b038216820361018d57565b90600182811c921680156118d1575b60208310146118bb57565b634e487b7160e01b600052602260045260246000fd5b91607f16916118b0565b90601f8019910116810190811067ffffffffffffffff8211176118fd57604052565b634e487b7160e01b600052604160045260246000fd5b9060405191826000825492611927846118a1565b9081845260019485811690816000146119965750600114611953575b5050611951925003836118db565b565b9093915060005260209081600020936000915b81831061197e57505061195193508201013880611943565b85548884018501529485019487945091830191611966565b91505061195194506020925060ff191682840152151560051b8201013880611943565b919082519283825260005b8481106119e5575050826000602080949584010152601f8019910116010190565b6020818301810151848301820152016119c4565b81601f8201121561018d5780359067ffffffffffffffff82116118fd5760405192611a2e601f8401601f1916602001856118db565b8284526020838301011161018d57816000926020809301838601378301015290565b67ffffffffffffffff81116118fd5760051b60200190565b6000546001600160a01b03163303611a7c57565b60405163118cdaa760e01b8152336004820152602490fd5b9081602091031261018d5751801515810361018d5790565b6000198114611abb5760010190565b634e487b7160e01b600052601160045260246000fd5b919091825167ffffffffffffffff81116118fd57611aef82546118a1565b601f8111611b99575b50602080601f8311600114611b35575081929394600092611b2a575b50508160011b916000199060031b1c1916179055565b015190503880611b14565b90601f198316958460005282600020926000905b888210611b8157505083600195969710611b68575b505050811b019055565b015160001960f88460031b161c19169055388080611b5e565b80600185968294968601518155019501930190611b49565b600083815260208120601f840160051c81019260208510611bd7575b601f0160051c01915b828110611bcc575050611af8565b818155600101611bbe565b9092508290611bb5565b91908201809211611abb57565b8051821015611c025760209160051b010190565b634e487b7160e01b600052603260045260246000fd5b8054821015611c025760005260206000200190600090565b60ff60025416611c3c57565b60405163d93c066560e01b8152600490fd5b600260015414611c5f576002600155565b604051633ee5aeb560e01b8152600490fd5b15611c7857565b60405162461bcd60e51b8152602060048201526015602482015274111958985d1948191bd95cc81b9bdd08195e1a5cdd605a1b6044820152606490fd5b15611cbc57565b60405162461bcd60e51b815260206004820152600f60248201526e151c985b9cd9995c8819985a5b1959608a1b6044820152606490fd5b81810292918115918404141715611abb57565b8115611d10570490565b634e487b7160e01b600052601260045260246000fd5b91908203918211611abb57565b9060009182526009602052604082209060018060a01b03168252600c810160205260ff604083205416158015611dac575b611da857610b5a6040611da593600d84016020522054610b556006611d90600a86015460058701611c18565b919054600b8701549260031b1c950154611d26565b90565b5090565b50600e81016020526040822054600a8201541415611d6456fea26469706673582212200b3a1dd07036d998441e2f215c237abe88f24c667613ba1c87273a0a57d1778964736f6c63430008140033","opcodes":"PUSH1 0x80 CALLVALUE PUSH2 0xFB JUMPI PUSH1 0x1F PUSH2 0x1F12 CODESIZE DUP2 SWAP1 SUB SWAP2 DUP3 ADD PUSH1 0x1F NOT AND DUP4 ADD SWAP2 PUSH1 0x1 PUSH1 0x1 PUSH1 0x40 SHL SUB DUP4 GT DUP5 DUP5 LT OR PUSH2 0x100 JUMPI DUP1 DUP5 SWAP3 PUSH1 0x20 SWAP5 PUSH1 0x40 MSTORE DUP4 CODECOPY DUP2 ADD SUB SLT PUSH2 0xFB JUMPI MLOAD PUSH1 0x1 PUSH1 0x1 PUSH1 0xA0 SHL SUB SWAP1 DUP2 DUP2 AND SWAP1 DUP2 SWAP1 SUB PUSH2 0xFB JUMPI CALLER ISZERO PUSH2 0xE2 JUMPI PUSH1 0x0 SLOAD PUSH1 0x1 DUP1 PUSH1 0xA0 SHL SUB NOT SWAP1 CALLER DUP3 DUP3 AND OR PUSH1 0x0 SSTORE PUSH1 0x40 MLOAD SWAP4 CALLER SWAP2 AND PUSH32 0x8BE0079C531659141344CD1FD0A4F28419497F9722A3DAAFE3B4186F6B6457E0 PUSH1 0x0 DUP1 LOG3 PUSH1 0x1 DUP1 SSTORE PUSH1 0x0 PUSH1 0x3 SSTORE PUSH1 0x5 DUP1 SSTORE PUSH9 0x56BC75E2D63100000 PUSH1 0x6 SSTORE PUSH10 0x21E19E0C9BAB2400000 PUSH1 0x7 SSTORE PUSH9 0x2B5E3AF16B1880000 PUSH1 0x8 SSTORE PUSH1 0x4 SLOAD AND OR PUSH1 0x4 SSTORE PUSH2 0x1DFB SWAP1 DUP2 PUSH2 0x117 DUP3 CODECOPY RETURN JUMPDEST PUSH1 0x40 MLOAD PUSH4 0x1E4FBDF7 PUSH1 0xE0 SHL DUP2 MSTORE PUSH1 0x0 PUSH1 0x4 DUP3 ADD MSTORE PUSH1 0x24 SWAP1 REVERT JUMPDEST PUSH1 0x0 DUP1 REVERT JUMPDEST PUSH4 0x4E487B71 PUSH1 0xE0 SHL PUSH1 0x0 MSTORE PUSH1 0x41 PUSH1 0x4 MSTORE PUSH1 0x24 PUSH1 0x0 REVERT INVALID PUSH1 0x80 PUSH1 0x40 MSTORE PUSH1 0x4 DUP1 CALLDATASIZE LT ISZERO PUSH2 0x13 JUMPI PUSH1 0x0 DUP1 REVERT JUMPDEST PUSH1 0x0 CALLDATALOAD PUSH1 0xE0 SHR SWAP1 DUP2 PUSH4 0x3C7881A EQ PUSH2 0x17E0 JUMPI DUP2 PUSH4 0xF07A76C EQ PUSH2 0x14D9 JUMPI DUP2 PUSH4 0x21AF0DA7 EQ PUSH2 0x14B2 JUMPI DUP2 PUSH4 0x3461F164 EQ PUSH2 0x1494 JUMPI DUP2 PUSH4 0x3F4BA83A EQ PUSH2 0x142B JUMPI DUP2 PUSH4 0x476343EE EQ PUSH2 0x12EA JUMPI DUP2 PUSH4 0x59758FCF EQ PUSH2 0x1222 JUMPI DUP2 PUSH4 0x5C975ABB EQ PUSH2 0x11FF JUMPI DUP2 PUSH4 0x5D80CA32 EQ PUSH2 0x11E1 JUMPI DUP2 PUSH4 0x6FA23795 EQ PUSH2 0x11C2 JUMPI DUP2 PUSH4 0x715018A6 EQ PUSH2 0x1169 JUMPI DUP2 PUSH4 0x8456CB59 EQ PUSH2 0x110F JUMPI DUP2 PUSH4 0x8C639A85 EQ PUSH2 0x10F1 JUMPI DUP2 PUSH4 0x8CDB442F EQ PUSH2 0x1085 JUMPI DUP2 PUSH4 0x8DA5CB5B EQ PUSH2 0x105C JUMPI DUP2 PUSH4 0x8FA7F745 EQ PUSH2 0xFE1 JUMPI DUP2 PUSH4 0x98D336AF EQ PUSH2 0xDB8 JUMPI DUP2 PUSH4 0xA7D67AE1 EQ PUSH2 0xD9A JUMPI DUP2 PUSH4 0xAA0B5988 EQ PUSH2 0xD3D JUMPI DUP2 PUSH4 0xAE169A50 EQ PUSH2 0xA65 JUMPI DUP2 PUSH4 0xB3C3C845 EQ PUSH2 0x500 JUMPI DUP2 PUSH4 0xC546295B EQ PUSH2 0x153 JUMPI DUP2 PUSH4 0xD2FA9560 EQ PUSH2 0x2F7 JUMPI DUP2 PUSH4 0xDC296AE1 EQ PUSH2 0x28A JUMPI DUP2 PUSH4 0xE750D6FA EQ PUSH2 0x23E JUMPI DUP2 PUSH4 0xF1887684 EQ PUSH2 0x220 JUMPI DUP2 PUSH4 0xF2FDE38B EQ PUSH2 0x192 JUMPI POP PUSH4 0xFF0B2BA6 EQ PUSH2 0x153 JUMPI PUSH1 0x0 DUP1 REVERT JUMPDEST CALLVALUE PUSH2 0x18D JUMPI PUSH1 0x20 CALLDATASIZE PUSH1 0x3 NOT ADD SLT PUSH2 0x18D JUMPI PUSH1 0x1 PUSH1 0x1 PUSH1 0xA0 SHL SUB PUSH2 0x174 PUSH2 0x188B JUMP JUMPDEST AND PUSH1 0x0 MSTORE PUSH1 0xA PUSH1 0x20 MSTORE PUSH1 0x20 PUSH1 0x40 PUSH1 0x0 KECCAK256 SLOAD PUSH1 0x40 MLOAD SWAP1 DUP2 MSTORE RETURN JUMPDEST PUSH1 0x0 DUP1 REVERT JUMPDEST CALLVALUE PUSH2 0x18D JUMPI PUSH1 0x20 CALLDATASIZE PUSH1 0x3 NOT ADD SLT PUSH2 0x18D JUMPI PUSH2 0x1AB PUSH2 0x188B JUMP JUMPDEST PUSH2 0x1B3 PUSH2 0x1A68 JUMP JUMPDEST PUSH1 0x1 PUSH1 0x1 PUSH1 0xA0 SHL SUB SWAP1 DUP2 AND SWAP2 DUP3 ISZERO PUSH2 0x208 JUMPI POP PUSH1 0x0 SLOAD DUP3 PUSH12 0xFFFFFFFFFFFFFFFFFFFFFFFF PUSH1 0xA0 SHL DUP3 AND OR PUSH1 0x0 SSTORE AND PUSH32 0x8BE0079C531659141344CD1FD0A4F28419497F9722A3DAAFE3B4186F6B6457E0 PUSH1 0x0 DUP1 LOG3 STOP JUMPDEST PUSH1 0x24 SWAP1 PUSH1 0x0 PUSH1 0x40 MLOAD SWAP2 PUSH4 0x1E4FBDF7 PUSH1 0xE0 SHL DUP4 MSTORE DUP3 ADD MSTORE REVERT JUMPDEST CALLVALUE PUSH2 0x18D JUMPI PUSH1 0x0 CALLDATASIZE PUSH1 0x3 NOT ADD SLT PUSH2 0x18D JUMPI PUSH1 0x20 PUSH1 0x6 SLOAD PUSH1 0x40 MLOAD SWAP1 DUP2 MSTORE RETURN JUMPDEST CALLVALUE PUSH2 0x18D JUMPI PUSH1 0x40 CALLDATASIZE PUSH1 0x3 NOT ADD SLT PUSH2 0x18D JUMPI PUSH2 0x279 PUSH1 0x20 SWAP2 CALLDATALOAD PUSH2 0x25E PUSH2 0x1875 JUMP JUMPDEST SWAP1 PUSH1 0x3 SLOAD DUP2 GT ISZERO DUP1 PUSH2 0x281 JUMPI JUMPDEST PUSH2 0x274 SWAP1 PUSH2 0x1C71 JUMP JUMPDEST PUSH2 0x1D33 JUMP JUMPDEST PUSH1 0x40 MLOAD SWAP1 DUP2 MSTORE RETURN JUMPDEST POP DUP1 ISZERO ISZERO PUSH2 0x26B JUMP JUMPDEST CALLVALUE PUSH2 0x18D JUMPI PUSH1 0x40 CALLDATASIZE PUSH1 0x3 NOT ADD SLT PUSH2 0x18D JUMPI CALLDATALOAD PUSH2 0x2A4 PUSH2 0x1875 JUMP JUMPDEST SWAP1 PUSH1 0x3 SLOAD DUP2 GT ISZERO DUP1 PUSH2 0x2EE JUMPI JUMPDEST PUSH2 0x2BA SWAP1 PUSH2 0x1C71 JUMP JUMPDEST PUSH1 0x0 MSTORE PUSH1 0x9 PUSH1 0x20 MSTORE PUSH1 0xC PUSH1 0x40 PUSH1 0x0 KECCAK256 ADD SWAP1 PUSH1 0x1 DUP1 PUSH1 0xA0 SHL SUB AND PUSH1 0x0 MSTORE PUSH1 0x20 MSTORE PUSH1 0x20 PUSH1 0xFF PUSH1 0x40 PUSH1 0x0 KECCAK256 SLOAD AND PUSH1 0x40 MLOAD SWAP1 ISZERO ISZERO DUP2 MSTORE RETURN JUMPDEST POP DUP1 ISZERO ISZERO PUSH2 0x2B1 JUMP JUMPDEST CALLVALUE PUSH2 0x18D JUMPI PUSH1 0x20 SWAP1 DUP2 PUSH1 0x3 NOT CALLDATASIZE ADD SLT PUSH2 0x18D JUMPI DUP1 CALLDATALOAD SWAP2 PUSH1 0x3 SWAP2 DUP3 SLOAD DUP5 GT ISZERO DUP1 PUSH2 0x4F7 JUMPI JUMPDEST PUSH2 0x324 SWAP1 PUSH2 0x1C71 JUMP JUMPDEST DUP4 PUSH1 0x0 MSTORE PUSH1 0x9 DUP3 MSTORE PUSH1 0x40 PUSH1 0x0 KECCAK256 SWAP1 PUSH1 0x8 DUP3 ADD SLOAD TIMESTAMP LT PUSH2 0x4BC JUMPI PUSH1 0x9 DUP3 ADD DUP1 SLOAD PUSH1 0xFF DUP2 AND PUSH2 0x481 JUMPI PUSH1 0x1 DUP5 ADD SLOAD PUSH1 0x1 PUSH1 0x1 PUSH1 0xA0 SHL SUB SWAP1 DUP2 AND SWAP4 SWAP1 CALLER DUP6 EQ SWAP1 DUP2 ISZERO PUSH2 0x473 JUMPI JUMPDEST POP ISZERO PUSH2 0x42F JUMPI POP PUSH1 0xFF NOT AND PUSH1 0x1 OR SWAP1 SSTORE PUSH1 0x5 DUP3 ADD DUP1 SLOAD PUSH1 0x0 SWAP6 SWAP1 SWAP2 DUP7 DUP1 JUMPDEST DUP5 DUP2 LT PUSH2 0x3F0 JUMPI DUP10 PUSH32 0xEF017BDA8789BB32F3EEA835CA786F6E79441B7DF11B0A549F560D815DCABCE7 PUSH1 0x40 DUP12 DUP12 DUP12 DUP12 DUP4 PUSH1 0xA DUP4 ADD SSTORE PUSH1 0x6 DUP3 ADD SWAP2 PUSH1 0xB PUSH1 0x64 PUSH2 0x3D2 DUP6 SLOAD PUSH1 0x5 SLOAD SWAP1 PUSH2 0x1CF3 JUMP JUMPDEST DIV SWAP2 ADD SSTORE PUSH1 0x0 MSTORE PUSH1 0xA DUP3 MSTORE PUSH1 0x0 DUP5 DUP2 KECCAK256 SSTORE SLOAD SWAP1 DUP4 MLOAD SWAP3 DUP4 MSTORE DUP3 ADD MSTORE LOG2 STOP JUMPDEST DUP2 PUSH2 0x3FB DUP3 DUP6 PUSH2 0x1C18 JUMP JUMPDEST SWAP1 SLOAD SWAP1 DUP7 SHL SHR GT PUSH2 0x415 JUMPI JUMPDEST PUSH2 0x410 SWAP1 PUSH2 0x1AAC JUMP JUMPDEST PUSH2 0x386 JUMP JUMPDEST DUP1 SWAP9 POP PUSH2 0x423 SWAP2 POP DUP3 PUSH2 0x1C18 JUMP JUMPDEST SWAP1 SLOAD SWAP1 DUP4 SHL SHR DUP8 PUSH2 0x407 JUMP JUMPDEST PUSH1 0x40 MLOAD PUSH3 0x461BCD PUSH1 0xE5 SHL DUP2 MSTORE SWAP1 DUP2 ADD DUP7 SWAP1 MSTORE PUSH1 0x1D PUSH1 0x24 DUP3 ADD MSTORE PUSH32 0x4F6E6C792063726561746F72206F72206F776E65722063616E20656E64000000 PUSH1 0x44 DUP3 ADD MSTORE PUSH1 0x64 SWAP1 REVERT JUMPDEST SWAP1 POP PUSH1 0x0 SLOAD AND CALLER EQ DUP10 PUSH2 0x368 JUMP JUMPDEST PUSH1 0x40 MLOAD PUSH3 0x461BCD PUSH1 0xE5 SHL DUP2 MSTORE DUP1 DUP5 ADD DUP7 SWAP1 MSTORE PUSH1 0x14 PUSH1 0x24 DUP3 ADD MSTORE PUSH20 0x111958985D1948185B1C9958591E48195B991959 PUSH1 0x62 SHL PUSH1 0x44 DUP3 ADD MSTORE PUSH1 0x64 SWAP1 REVERT JUMPDEST PUSH1 0x40 MLOAD PUSH3 0x461BCD PUSH1 0xE5 SHL DUP2 MSTORE SWAP1 DUP2 ADD DUP4 SWAP1 MSTORE PUSH1 0x14 PUSH1 0x24 DUP3 ADD MSTORE PUSH20 0x111958985D19481B9BDD081E595D08195B991959 PUSH1 0x62 SHL PUSH1 0x44 DUP3 ADD MSTORE PUSH1 0x64 SWAP1 REVERT JUMPDEST POP DUP4 ISZERO ISZERO PUSH2 0x31B JUMP JUMPDEST CALLVALUE PUSH2 0x18D JUMPI PUSH1 0x80 CALLDATASIZE PUSH1 0x3 NOT ADD SLT PUSH2 0x18D JUMPI PUSH8 0xFFFFFFFFFFFFFFFF DUP2 CALLDATALOAD DUP2 DUP2 GT PUSH2 0x18D JUMPI PUSH2 0x530 SWAP1 CALLDATASIZE SWAP1 DUP5 ADD PUSH2 0x19F9 JUMP JUMPDEST SWAP2 PUSH1 0x24 DUP1 CALLDATALOAD DUP4 DUP2 GT PUSH2 0x18D JUMPI PUSH2 0x549 SWAP1 CALLDATASIZE SWAP1 DUP5 ADD PUSH2 0x19F9 JUMP JUMPDEST SWAP4 PUSH1 0x44 SWAP3 DUP4 CALLDATALOAD SWAP4 DUP6 DUP6 GT PUSH2 0x18D JUMPI CALLDATASIZE PUSH1 0x23 DUP7 ADD SLT ISZERO PUSH2 0x18D JUMPI DUP5 DUP3 ADD CALLDATALOAD SWAP5 PUSH2 0x570 DUP7 PUSH2 0x1A50 JUMP JUMPDEST SWAP6 PUSH2 0x57E PUSH1 0x40 MLOAD SWAP8 DUP9 PUSH2 0x18DB JUMP JUMPDEST DUP1 DUP8 MSTORE PUSH1 0x20 SWAP8 DUP7 DUP10 DUP10 ADD SWAP3 PUSH1 0x5 SHL DUP5 ADD ADD SWAP3 CALLDATASIZE DUP5 GT PUSH2 0x18D JUMPI DUP8 DUP2 ADD SWAP3 JUMPDEST DUP5 DUP5 LT PUSH2 0xA3F JUMPI POP POP POP POP POP PUSH1 0x64 SWAP2 DUP3 CALLDATALOAD SWAP5 PUSH2 0x5B6 PUSH2 0x1C4E JUMP JUMPDEST PUSH2 0x5BE PUSH2 0x1C30 JUMP JUMPDEST CALLER PUSH1 0x0 MSTORE PUSH1 0xA DUP9 MSTORE PUSH1 0x40 PUSH1 0x0 KECCAK256 SLOAD PUSH2 0x9F6 JUMPI DUP5 MLOAD ISZERO PUSH2 0x9BF JUMPI DUP9 MLOAD ISZERO PUSH2 0x980 JUMPI DUP7 MLOAD PUSH1 0x2 DUP2 LT ISZERO SWAP1 DUP2 PUSH2 0x974 JUMPI JUMPDEST POP ISZERO PUSH2 0x93D JUMPI PUSH2 0xE10 DUP7 LT ISZERO DUP1 PUSH2 0x930 JUMPI JUMPDEST ISZERO PUSH2 0x8E7 JUMPI DUP2 SLOAD PUSH1 0x8 SLOAD PUSH1 0x40 DUP1 MLOAD PUSH4 0x23B872DD PUSH1 0xE0 SHL DUP2 MSTORE CALLER DUP2 DUP8 ADD SWAP1 DUP2 MSTORE ADDRESS PUSH1 0x20 DUP3 ADD MSTORE SWAP2 DUP3 ADD SWAP3 SWAP1 SWAP3 MSTORE SWAP1 SWAP2 DUP11 SWAP2 DUP4 SWAP2 PUSH1 0x1 PUSH1 0x1 PUSH1 0xA0 SHL SUB AND SWAP1 DUP3 SWAP1 PUSH1 0x0 SWAP1 DUP3 SWAP1 PUSH1 0x60 ADD SUB SWAP3 GAS CALL SWAP1 DUP2 ISZERO PUSH2 0x8DB JUMPI PUSH1 0x0 SWAP2 PUSH2 0x8AE JUMPI JUMPDEST POP ISZERO PUSH2 0x86F JUMPI SWAP1 DUP9 PUSH2 0x6BE SWAP7 SWAP6 SWAP4 SWAP3 PUSH1 0x3 SWAP3 PUSH2 0x673 DUP5 SLOAD PUSH2 0x1AAC JUMP JUMPDEST SWAP10 DUP11 SWAP8 DUP9 DUP7 SSTORE DUP9 PUSH1 0x0 MSTORE PUSH1 0x9 DUP14 MSTORE PUSH1 0x40 PUSH1 0x0 KECCAK256 SWAP7 DUP10 DUP9 SSTORE PUSH1 0x1 SWAP12 DUP13 SWAP7 DUP8 DUP11 ADD CALLER PUSH12 0xFFFFFFFFFFFFFFFFFFFFFFFF PUSH1 0xA0 SHL DUP3 SLOAD AND OR SWAP1 SSTORE PUSH2 0x6B6 DUP12 PUSH1 0x2 DUP13 ADD PUSH2 0x1AD1 JUMP JUMPDEST DUP9 DUP11 ADD PUSH2 0x1AD1 JUMP JUMPDEST TIMESTAMP PUSH1 0x7 DUP10 ADD SSTORE PUSH2 0x6CE DUP12 TIMESTAMP PUSH2 0x1BE1 JUMP JUMPDEST PUSH1 0x8 DUP10 ADD SSTORE PUSH1 0x9 DUP9 ADD PUSH1 0xFF NOT DUP2 SLOAD AND SWAP1 SSTORE PUSH1 0x0 PUSH1 0x5 DUP6 DUP11 ADD SWAP10 ADD SWAP7 JUMPDEST PUSH2 0x74F JUMPI JUMPDEST DUP15 DUP12 DUP15 DUP15 DUP3 PUSH32 0xB65520C4493FBF0A5306921AA079653EDFB08B0F7CA621269A41E7B59A585D6 DUP16 CALLER PUSH1 0x0 MSTORE PUSH1 0xA DUP8 MSTORE DUP3 PUSH1 0x40 PUSH1 0x0 KECCAK256 SSTORE PUSH2 0x73A PUSH1 0x40 MLOAD SWAP2 PUSH1 0x40 DUP4 MSTORE PUSH1 0x40 DUP4 ADD SWAP1 PUSH2 0x19B9 JUMP JUMPDEST SWAP4 DUP8 DUP3 ADD MSTORE DUP1 CALLER SWAP5 SUB SWAP1 LOG3 DUP1 SSTORE PUSH1 0x40 MLOAD SWAP1 DUP2 MSTORE RETURN JUMPDEST SWAP1 SWAP2 SWAP3 SWAP4 SWAP5 SWAP6 SWAP7 SWAP8 SWAP9 SWAP10 DUP5 MLOAD DUP3 LT ISZERO PUSH2 0x868 JUMPI POP PUSH2 0x76D DUP2 DUP6 PUSH2 0x1BEE JUMP JUMPDEST MLOAD MLOAD ISZERO PUSH2 0x82E JUMPI PUSH2 0x77E DUP2 DUP6 PUSH2 0x1BEE JUMP JUMPDEST MLOAD DUP10 SLOAD SWAP1 PUSH9 0x10000000000000000 SWAP2 DUP3 DUP2 LT ISZERO PUSH2 0x81A JUMPI DUP1 DUP16 PUSH2 0x7A4 SWAP3 ADD DUP14 SSTORE DUP13 PUSH2 0x1C18 JUMP JUMPDEST PUSH2 0x807 JUMPI SWAP1 PUSH2 0x7B2 SWAP2 PUSH2 0x1AD1 JUMP JUMPDEST DUP8 SLOAD SWAP1 DUP2 LT ISZERO PUSH2 0x7F3 JUMPI DUP13 SWAP9 SWAP8 SWAP7 SWAP6 SWAP5 SWAP4 SWAP3 SWAP2 PUSH2 0x7D7 DUP3 DUP12 PUSH2 0x7EA SWAP5 ADD DUP11 SSTORE DUP10 PUSH2 0x1C18 JUMP JUMPDEST DUP2 SLOAD SWAP1 PUSH1 0x0 NOT SWAP1 DUP13 SHL SHL NOT AND SWAP1 SSTORE PUSH2 0x1AAC JUMP JUMPDEST DUP14 SWAP11 SWAP10 SWAP9 PUSH2 0x6EA JUMP JUMPDEST DUP7 PUSH1 0x41 DUP8 PUSH4 0x4E487B71 PUSH1 0xE0 SHL PUSH1 0x0 MSTORE MSTORE PUSH1 0x0 REVERT JUMPDEST DUP9 PUSH1 0x0 DUP10 PUSH4 0x4E487B71 PUSH1 0xE0 SHL DUP3 MSTORE MSTORE PUSH1 0x0 REVERT JUMPDEST DUP9 PUSH1 0x41 DUP10 PUSH4 0x4E487B71 PUSH1 0xE0 SHL PUSH1 0x0 MSTORE MSTORE PUSH1 0x0 REVERT JUMPDEST POP PUSH22 0x4F7074696F6E2063616E6E6F7420626520656D707479 PUSH1 0x50 SHL DUP5 SWAP2 PUSH1 0x16 DUP16 DUP9 SWAP1 PUSH1 0x40 MLOAD SWAP6 PUSH3 0x461BCD PUSH1 0xE5 SHL DUP8 MSTORE DUP7 ADD MSTORE DUP5 ADD MSTORE DUP3 ADD MSTORE REVERT JUMPDEST SWAP10 SWAP9 PUSH2 0x6EF JUMP JUMPDEST SWAP2 PUSH1 0x1C PUSH32 0x4372656174696F6E20666565207472616E73666572206661696C656400000000 SWAP3 SWAP4 DUP10 PUSH1 0x40 MLOAD SWAP6 PUSH3 0x461BCD PUSH1 0xE5 SHL DUP8 MSTORE DUP7 ADD MSTORE DUP5 ADD MSTORE DUP3 ADD MSTORE REVERT JUMPDEST PUSH2 0x8CE SWAP2 POP DUP10 RETURNDATASIZE DUP12 GT PUSH2 0x8D4 JUMPI JUMPDEST PUSH2 0x8C6 DUP2 DUP4 PUSH2 0x18DB JUMP JUMPDEST DUP2 ADD SWAP1 PUSH2 0x1A94 JUMP JUMPDEST DUP11 PUSH2 0x657 JUMP JUMPDEST POP RETURNDATASIZE PUSH2 0x8BC JUMP JUMPDEST PUSH1 0x40 MLOAD RETURNDATASIZE PUSH1 0x0 DUP3 RETURNDATACOPY RETURNDATASIZE SWAP1 REVERT JUMPDEST DUP4 PUSH32 0x4475726174696F6E206D757374206265203120686F757220746F203120776565 PUSH1 0x84 SWAP5 PUSH1 0x21 PUSH1 0x6B PUSH1 0xF8 SHL SWAP5 DUP13 PUSH1 0x40 MLOAD SWAP8 PUSH3 0x461BCD PUSH1 0xE5 SHL DUP10 MSTORE DUP9 ADD MSTORE DUP7 ADD MSTORE DUP5 ADD MSTORE DUP3 ADD MSTORE REVERT JUMPDEST POP PUSH3 0x93A80 DUP7 GT ISZERO PUSH2 0x5FE JUMP JUMPDEST SWAP2 PUSH1 0x15 PUSH21 0xC8B4C4C081BDC1D1A5BDB9CC81C995C5D5A5C9959 PUSH1 0x5A SHL SWAP3 SWAP4 DUP10 PUSH1 0x40 MLOAD SWAP6 PUSH3 0x461BCD PUSH1 0xE5 SHL DUP8 MSTORE DUP7 ADD MSTORE DUP5 ADD MSTORE DUP3 ADD MSTORE REVERT JUMPDEST PUSH1 0xA SWAP2 POP GT ISZERO DUP11 PUSH2 0x5EC JUMP JUMPDEST SWAP2 PUSH1 0x1B PUSH32 0x4465736372697074696F6E2063616E6E6F7420626520656D7074790000000000 SWAP3 SWAP4 DUP10 PUSH1 0x40 MLOAD SWAP6 PUSH3 0x461BCD PUSH1 0xE5 SHL DUP8 MSTORE DUP7 ADD MSTORE DUP5 ADD MSTORE DUP3 ADD MSTORE REVERT JUMPDEST SWAP2 PUSH1 0x15 PUSH21 0x5469746C652063616E6E6F7420626520656D707479 PUSH1 0x58 SHL SWAP3 SWAP4 DUP10 PUSH1 0x40 MLOAD SWAP6 PUSH3 0x461BCD PUSH1 0xE5 SHL DUP8 MSTORE DUP7 ADD MSTORE DUP5 ADD MSTORE DUP3 ADD MSTORE REVERT JUMPDEST DUP4 PUSH32 0x5573657220616C72656164792068617320616E20616374697665206465626174 PUSH1 0x84 SWAP5 PUSH1 0x21 PUSH1 0x65 PUSH1 0xF8 SHL SWAP5 DUP13 PUSH1 0x40 MLOAD SWAP8 PUSH3 0x461BCD PUSH1 0xE5 SHL DUP10 MSTORE DUP9 ADD MSTORE DUP7 ADD MSTORE DUP5 ADD MSTORE DUP3 ADD MSTORE REVERT JUMPDEST DUP4 CALLDATALOAD DUP4 DUP2 GT PUSH2 0x18D JUMPI DUP12 SWAP2 PUSH2 0xA5A DUP4 SWAP3 DUP13 CALLDATASIZE SWAP2 DUP8 ADD ADD PUSH2 0x19F9 JUMP JUMPDEST DUP2 MSTORE ADD SWAP4 ADD SWAP3 PUSH2 0x59C JUMP JUMPDEST CALLVALUE PUSH2 0x18D JUMPI PUSH1 0x20 DUP1 PUSH1 0x3 NOT CALLDATASIZE ADD SLT PUSH2 0x18D JUMPI DUP2 CALLDATALOAD SWAP1 PUSH2 0xA82 PUSH2 0x1C4E JUMP JUMPDEST PUSH1 0x3 SLOAD DUP3 GT ISZERO DUP1 PUSH2 0xD34 JUMPI JUMPDEST PUSH2 0xA97 SWAP1 PUSH2 0x1C71 JUMP JUMPDEST DUP2 PUSH1 0x0 MSTORE PUSH1 0x9 DUP2 MSTORE PUSH1 0x40 PUSH1 0x0 KECCAK256 PUSH1 0xFF PUSH1 0x9 DUP3 ADD SLOAD AND SWAP1 DUP2 ISZERO PUSH2 0xD25 JUMPI JUMPDEST POP ISZERO PUSH2 0xCEC JUMPI DUP2 PUSH1 0x0 MSTORE PUSH1 0x9 DUP2 MSTORE PUSH1 0x40 PUSH1 0x0 KECCAK256 SWAP3 CALLER PUSH1 0x0 MSTORE PUSH1 0xC DUP5 ADD DUP3 MSTORE PUSH1 0xFF PUSH1 0x40 PUSH1 0x0 KECCAK256 SLOAD AND ISZERO PUSH2 0xCB4 JUMPI CALLER PUSH1 0x0 MSTORE PUSH1 0xE DUP5 ADD DUP3 MSTORE PUSH1 0x40 PUSH1 0x0 KECCAK256 SLOAD SWAP4 PUSH1 0xA DUP2 ADD SLOAD DUP1 SWAP6 SUB PUSH2 0xC82 JUMPI PUSH1 0xF DUP2 ADD SWAP5 CALLER PUSH1 0x0 MSTORE DUP6 DUP5 MSTORE PUSH1 0xFF PUSH1 0x40 PUSH1 0x0 KECCAK256 SLOAD AND PUSH2 0xC4C JUMPI SWAP1 PUSH2 0xB5A PUSH2 0xB5F SWAP3 CALLER PUSH1 0x0 MSTORE PUSH1 0xD DUP4 ADD DUP7 MSTORE PUSH2 0xB55 PUSH2 0xB3E PUSH1 0x40 PUSH1 0x0 KECCAK256 SLOAD SWAP3 PUSH1 0x5 DUP7 ADD PUSH2 0x1C18 JUMP JUMPDEST SWAP1 SLOAD SWAP1 PUSH1 0x3 SHL SHR SWAP4 PUSH1 0x6 PUSH1 0xB DUP3 ADD SLOAD SWAP2 ADD SLOAD PUSH2 0x1D26 JUMP JUMPDEST PUSH2 0x1CF3 JUMP JUMPDEST PUSH2 0x1D06 JUMP JUMPDEST CALLER PUSH1 0x0 DUP2 DUP2 MSTORE SWAP6 DUP5 MSTORE PUSH1 0x40 DUP1 DUP8 KECCAK256 DUP1 SLOAD PUSH1 0xFF NOT AND PUSH1 0x1 OR SWAP1 SSTORE DUP4 SLOAD DUP2 MLOAD PUSH4 0xA9059CBB PUSH1 0xE0 SHL DUP2 MSTORE DUP1 DUP7 ADD SWAP4 DUP5 MSTORE PUSH1 0x20 DUP5 ADD DUP6 SWAP1 MSTORE SWAP4 SWAP8 DUP7 SWAP4 DUP6 SWAP4 SWAP1 DUP5 SWAP1 SUB ADD SWAP2 DUP4 SWAP2 SWAP1 PUSH1 0x1 PUSH1 0x1 PUSH1 0xA0 SHL SUB AND GAS CALL SWAP1 DUP2 ISZERO PUSH2 0x8DB JUMPI PUSH1 0x0 SWAP2 PUSH2 0xC2F JUMPI JUMPDEST POP ISZERO PUSH2 0xBF4 JUMPI POP PUSH32 0x24B5EFA61DD1CFC659205A97FB8ED868F3CB8C81922BAB2B96423E5DE1DE2CB7 SWAP1 PUSH1 0x40 MLOAD SWAP4 DUP5 MSTORE CALLER SWAP4 LOG3 PUSH1 0x1 DUP1 SSTORE STOP JUMPDEST PUSH1 0x64 SWAP2 PUSH1 0x40 MLOAD SWAP2 PUSH3 0x461BCD PUSH1 0xE5 SHL DUP4 MSTORE DUP3 ADD MSTORE PUSH1 0x16 PUSH1 0x24 DUP3 ADD MSTORE PUSH22 0x14995DD85C99081D1C985B9CD9995C8819985A5B1959 PUSH1 0x52 SHL PUSH1 0x44 DUP3 ADD MSTORE REVERT JUMPDEST PUSH2 0xC46 SWAP2 POP DUP4 RETURNDATASIZE DUP6 GT PUSH2 0x8D4 JUMPI PUSH2 0x8C6 DUP2 DUP4 PUSH2 0x18DB JUMP JUMPDEST DUP6 PUSH2 0xBBC JUMP JUMPDEST PUSH1 0x40 MLOAD PUSH3 0x461BCD PUSH1 0xE5 SHL DUP2 MSTORE DUP1 DUP5 ADD DUP6 SWAP1 MSTORE PUSH1 0xF PUSH1 0x24 DUP3 ADD MSTORE PUSH15 0x105B1C9958591E4818DB185A5B5959 PUSH1 0x8A SHL PUSH1 0x44 DUP3 ADD MSTORE PUSH1 0x64 SWAP1 REVERT JUMPDEST POP PUSH1 0x64 SWAP2 PUSH1 0x40 MLOAD SWAP2 PUSH3 0x461BCD PUSH1 0xE5 SHL DUP4 MSTORE DUP3 ADD MSTORE PUSH1 0xC PUSH1 0x24 DUP3 ADD MSTORE PUSH12 0x2737BA1030903BB4B73732B9 PUSH1 0xA1 SHL PUSH1 0x44 DUP3 ADD MSTORE REVERT JUMPDEST PUSH1 0x64 SWAP2 PUSH1 0x40 MLOAD SWAP2 PUSH3 0x461BCD PUSH1 0xE5 SHL DUP4 MSTORE DUP3 ADD MSTORE PUSH1 0x13 PUSH1 0x24 DUP3 ADD MSTORE PUSH19 0x446964206E6F74207061727469636970617465 PUSH1 0x68 SHL PUSH1 0x44 DUP3 ADD MSTORE REVERT JUMPDEST DUP3 PUSH1 0x64 SWAP2 PUSH1 0x40 MLOAD SWAP2 PUSH3 0x461BCD PUSH1 0xE5 SHL DUP4 MSTORE DUP3 ADD MSTORE PUSH1 0x13 PUSH1 0x24 DUP3 ADD MSTORE PUSH19 0x446562617465207374696C6C20616374697665 PUSH1 0x68 SHL PUSH1 0x44 DUP3 ADD MSTORE REVERT JUMPDEST PUSH1 0x8 SWAP2 POP ADD SLOAD TIMESTAMP LT ISZERO DUP5 PUSH2 0xAB4 JUMP JUMPDEST POP DUP2 ISZERO ISZERO PUSH2 0xA8E JUMP JUMPDEST CALLVALUE PUSH2 0x18D JUMPI PUSH1 0x20 CALLDATASIZE PUSH1 0x3 NOT ADD SLT PUSH2 0x18D JUMPI DUP1 CALLDATALOAD SWAP1 PUSH2 0xD59 PUSH2 0x1A68 JUMP JUMPDEST PUSH1 0x14 DUP3 GT PUSH2 0xD67 JUMPI POP PUSH1 0x5 SSTORE STOP JUMPDEST PUSH1 0x64 SWAP1 PUSH1 0x20 PUSH1 0x40 MLOAD SWAP2 PUSH3 0x461BCD PUSH1 0xE5 SHL DUP4 MSTORE DUP3 ADD MSTORE PUSH1 0xC PUSH1 0x24 DUP3 ADD MSTORE PUSH12 0x8CCACA40E8DEDE40D0D2CED PUSH1 0xA3 SHL PUSH1 0x44 DUP3 ADD MSTORE REVERT JUMPDEST CALLVALUE PUSH2 0x18D JUMPI PUSH1 0x0 CALLDATASIZE PUSH1 0x3 NOT ADD SLT PUSH2 0x18D JUMPI PUSH1 0x20 PUSH1 0x8 SLOAD PUSH1 0x40 MLOAD SWAP1 DUP2 MSTORE RETURN JUMPDEST CALLVALUE PUSH2 0x18D JUMPI PUSH1 0x20 CALLDATASIZE PUSH1 0x3 NOT ADD SLT PUSH2 0x18D JUMPI DUP1 CALLDATALOAD PUSH1 0x3 SLOAD DUP2 GT ISZERO DUP1 PUSH2 0xFD8 JUMPI JUMPDEST PUSH2 0xDE0 SWAP1 PUSH2 0x1C71 JUMP JUMPDEST PUSH1 0x0 MSTORE PUSH1 0x9 PUSH1 0x20 MSTORE PUSH1 0x40 PUSH1 0x0 KECCAK256 DUP1 SLOAD SWAP1 PUSH1 0x1 DUP1 PUSH1 0xA0 SHL SUB PUSH1 0x1 DUP3 ADD SLOAD AND SWAP3 DUP2 ADD SWAP3 PUSH1 0x6 DUP3 ADD SLOAD PUSH1 0x7 DUP4 ADD SLOAD PUSH1 0x8 DUP5 ADD SLOAD PUSH1 0xFF PUSH1 0x9 DUP7 ADD SLOAD AND SWAP2 PUSH1 0xA DUP7 ADD SLOAD SWAP4 PUSH1 0xB DUP8 ADD SLOAD SWAP6 PUSH2 0xE31 PUSH1 0x2 DUP10 ADD PUSH2 0x1913 JUMP JUMPDEST PUSH2 0xE3D PUSH1 0x3 DUP11 ADD PUSH2 0x1913 JUMP JUMPDEST SWAP1 DUP12 SLOAD SWAP3 PUSH2 0xE4A DUP5 PUSH2 0x1A50 JUMP JUMPDEST SWAP4 PUSH2 0xE58 PUSH1 0x40 MLOAD SWAP6 DUP7 PUSH2 0x18DB JUMP JUMPDEST DUP1 DUP6 MSTORE PUSH1 0x20 DUP6 ADD DUP1 SWAP15 PUSH1 0x0 MSTORE PUSH1 0x20 PUSH1 0x0 KECCAK256 PUSH1 0x0 SWAP2 JUMPDEST DUP4 DUP4 LT PUSH2 0xFBB JUMPI POP POP POP POP SWAP1 PUSH1 0x5 SWAP4 SWAP3 SWAP2 DUP12 PUSH1 0x40 MLOAD PUSH1 0x20 DUP2 SWAP8 DUP9 SWAP4 ADD SLOAD SWAP2 DUP3 DUP2 MSTORE ADD SWAP1 PUSH1 0x5 DUP3 SWAP16 ADD PUSH1 0x0 MSTORE PUSH1 0x20 PUSH1 0x0 KECCAK256 SWAP1 PUSH1 0x0 JUMPDEST DUP2 DUP2 LT PUSH2 0xFA2 JUMPI POP POP POP SUB PUSH2 0xEB6 SWAP1 DUP7 PUSH2 0x18DB JUMP JUMPDEST PUSH1 0x40 MLOAD SWAP13 DUP14 MSTORE PUSH1 0x20 DUP14 ADD MSTORE DUP12 PUSH2 0x180 PUSH1 0x40 DUP2 SWAP3 ADD MSTORE DUP13 ADD PUSH2 0xED6 SWAP2 PUSH2 0x19B9 JUMP JUMPDEST DUP12 DUP2 SUB PUSH1 0x60 DUP14 ADD MSTORE PUSH2 0xEE7 SWAP2 PUSH2 0x19B9 JUMP JUMPDEST SWAP1 DUP11 DUP3 SUB PUSH1 0x80 DUP13 ADD MSTORE MLOAD DUP1 DUP3 MSTORE PUSH1 0x20 DUP3 ADD SWAP2 DUP2 PUSH1 0x5 SHL DUP2 ADD PUSH1 0x20 ADD SWAP13 SWAP3 PUSH1 0x0 SWAP2 JUMPDEST DUP4 DUP4 LT PUSH2 0xF75 JUMPI POP POP POP POP DUP10 DUP12 SUB PUSH1 0xA0 DUP12 ADD MSTORE POP MLOAD DUP1 DUP11 MSTORE PUSH1 0x0 SWAP10 PUSH1 0x20 ADD SWAP8 SWAP1 JUMPDEST DUP1 DUP12 LT PUSH2 0xF5D JUMPI POP POP DUP8 SWAP9 POP PUSH1 0xC0 DUP9 ADD MSTORE PUSH1 0xE0 DUP8 ADD MSTORE PUSH2 0x100 DUP7 ADD MSTORE ISZERO ISZERO PUSH2 0x120 DUP6 ADD MSTORE PUSH2 0x140 DUP5 ADD MSTORE PUSH2 0x160 DUP4 ADD MSTORE SUB SWAP1 RETURN JUMPDEST SWAP1 SWAP8 PUSH1 0x20 DUP1 PUSH1 0x1 SWAP3 DUP12 MLOAD DUP2 MSTORE ADD SWAP10 ADD SWAP11 ADD SWAP10 SWAP1 PUSH2 0xF29 JUMP JUMPDEST SWAP1 SWAP2 SWAP3 SWAP4 SWAP14 DUP15 PUSH1 0x1F NOT DUP4 DUP4 SUB ADD DUP5 MSTORE MLOAD SWAP1 PUSH2 0xF8F SWAP2 PUSH2 0x19B9 JUMP JUMPDEST SWAP14 PUSH1 0x20 SWAP1 DUP2 ADD SWAP5 SWAP4 PUSH1 0x1 ADD SWAP3 ADD SWAP1 PUSH2 0xF08 JUMP JUMPDEST DUP3 SLOAD DUP5 MSTORE DUP10 SWAP5 POP PUSH1 0x20 SWAP1 SWAP4 ADD SWAP3 PUSH1 0x1 SWAP3 DUP4 ADD SWAP3 ADD PUSH2 0xEA1 JUMP JUMPDEST PUSH1 0x1 PUSH1 0x20 DUP2 SWAP3 PUSH2 0xFCA DUP6 PUSH2 0x1913 JUMP JUMPDEST DUP2 MSTORE ADD SWAP3 ADD SWAP3 ADD SWAP2 SWAP1 PUSH2 0xE6D JUMP JUMPDEST POP DUP1 ISZERO ISZERO PUSH2 0xDD7 JUMP JUMPDEST CALLVALUE PUSH2 0x18D JUMPI PUSH1 0x20 CALLDATASIZE PUSH1 0x3 NOT ADD SLT PUSH2 0x18D JUMPI DUP1 CALLDATALOAD SWAP1 PUSH2 0xFFD PUSH2 0x1A68 JUMP JUMPDEST PUSH1 0x6 SLOAD DUP3 GT ISZERO PUSH2 0x100D JUMPI POP PUSH1 0x7 SSTORE STOP JUMPDEST PUSH1 0x84 SWAP1 PUSH1 0x20 PUSH1 0x40 MLOAD SWAP2 PUSH3 0x461BCD PUSH1 0xE5 SHL DUP4 MSTORE DUP3 ADD MSTORE PUSH1 0x22 PUSH1 0x24 DUP3 ADD MSTORE PUSH32 0x4D6178207374616B65206D7573742062652067726561746572207468616E206D PUSH1 0x44 DUP3 ADD MSTORE PUSH2 0x34B7 PUSH1 0xF1 SHL PUSH1 0x64 DUP3 ADD MSTORE REVERT JUMPDEST CALLVALUE PUSH2 0x18D JUMPI PUSH1 0x0 CALLDATASIZE PUSH1 0x3 NOT ADD SLT PUSH2 0x18D JUMPI PUSH1 0x0 SLOAD PUSH1 0x40 MLOAD PUSH1 0x1 PUSH1 0x1 PUSH1 0xA0 SHL SUB SWAP1 SWAP2 AND DUP2 MSTORE PUSH1 0x20 SWAP1 RETURN JUMPDEST CALLVALUE PUSH2 0x18D JUMPI PUSH1 0x20 CALLDATASIZE PUSH1 0x3 NOT ADD SLT PUSH2 0x18D JUMPI DUP1 CALLDATALOAD SWAP1 PUSH2 0x10A1 PUSH2 0x1A68 JUMP JUMPDEST DUP2 ISZERO PUSH2 0x10AD JUMPI POP PUSH1 0x6 SSTORE STOP JUMPDEST PUSH1 0x64 SWAP1 PUSH1 0x20 PUSH1 0x40 MLOAD SWAP2 PUSH3 0x461BCD PUSH1 0xE5 SHL DUP4 MSTORE DUP3 ADD MSTORE PUSH1 0x1A PUSH1 0x24 DUP3 ADD MSTORE PUSH32 0x4D696E207374616B65206D75737420626520706F736974697665000000000000 PUSH1 0x44 DUP3 ADD MSTORE REVERT JUMPDEST CALLVALUE PUSH2 0x18D JUMPI PUSH1 0x0 CALLDATASIZE PUSH1 0x3 NOT ADD SLT PUSH2 0x18D JUMPI PUSH1 0x20 PUSH1 0x5 SLOAD PUSH1 0x40 MLOAD SWAP1 DUP2 MSTORE RETURN JUMPDEST CALLVALUE PUSH2 0x18D JUMPI PUSH1 0x0 CALLDATASIZE PUSH1 0x3 NOT ADD SLT PUSH2 0x18D JUMPI PUSH2 0x1128 PUSH2 0x1A68 JUMP JUMPDEST PUSH2 0x1130 PUSH2 0x1C30 JUMP JUMPDEST PUSH1 0x1 PUSH1 0xFF NOT PUSH1 0x2 SLOAD AND OR PUSH1 0x2 SSTORE PUSH32 0x62E78CEA01BEE320CD4E420270B5EA74000D11B0C9F74754EBDBFC544B05A258 PUSH1 0x20 PUSH1 0x40 MLOAD CALLER DUP2 MSTORE LOG1 STOP JUMPDEST CALLVALUE PUSH2 0x18D JUMPI PUSH1 0x0 CALLDATASIZE PUSH1 0x3 NOT ADD SLT PUSH2 0x18D JUMPI PUSH2 0x1182 PUSH2 0x1A68 JUMP JUMPDEST PUSH1 0x0 DUP1 SLOAD PUSH1 0x1 PUSH1 0x1 PUSH1 0xA0 SHL SUB NOT DUP2 AND DUP3 SSTORE PUSH1 0x1 PUSH1 0x1 PUSH1 0xA0 SHL SUB AND PUSH32 0x8BE0079C531659141344CD1FD0A4F28419497F9722A3DAAFE3B4186F6B6457E0 DUP3 DUP1 LOG3 STOP JUMPDEST CALLVALUE PUSH2 0x18D JUMPI PUSH1 0x20 CALLDATASIZE PUSH1 0x3 NOT ADD SLT PUSH2 0x18D JUMPI PUSH2 0x11DB PUSH2 0x1A68 JUMP JUMPDEST CALLDATALOAD PUSH1 0x8 SSTORE STOP JUMPDEST CALLVALUE PUSH2 0x18D JUMPI PUSH1 0x0 CALLDATASIZE PUSH1 0x3 NOT ADD SLT PUSH2 0x18D JUMPI PUSH1 0x20 PUSH1 0x7 SLOAD PUSH1 0x40 MLOAD SWAP1 DUP2 MSTORE RETURN JUMPDEST CALLVALUE PUSH2 0x18D JUMPI PUSH1 0x0 CALLDATASIZE PUSH1 0x3 NOT ADD SLT PUSH2 0x18D JUMPI PUSH1 0x20 PUSH1 0xFF PUSH1 0x2 SLOAD AND PUSH1 0x40 MLOAD SWAP1 ISZERO ISZERO DUP2 MSTORE RETURN JUMPDEST CALLVALUE PUSH2 0x18D JUMPI PUSH1 0x20 CALLDATASIZE PUSH1 0x3 NOT ADD SLT PUSH2 0x18D JUMPI CALLDATALOAD PUSH1 0x0 SWAP1 DUP2 MSTORE PUSH1 0x9 PUSH1 0x20 MSTORE PUSH1 0x40 SWAP1 KECCAK256 DUP1 SLOAD PUSH1 0x1 DUP3 ADD SLOAD PUSH1 0x1 PUSH1 0x1 PUSH1 0xA0 SHL SUB AND SWAP2 PUSH2 0x125F PUSH1 0x2 DUP3 ADD PUSH2 0x1913 JUMP JUMPDEST PUSH2 0x126B PUSH1 0x3 DUP4 ADD PUSH2 0x1913 JUMP JUMPDEST SWAP2 PUSH1 0x6 DUP2 ADD SLOAD SWAP3 PUSH1 0x7 DUP3 ADD SLOAD PUSH1 0x8 DUP4 ADD SLOAD SWAP1 PUSH2 0x12C3 PUSH1 0xFF PUSH1 0x9 DUP7 ADD SLOAD AND SWAP4 PUSH2 0x12B5 PUSH1 0xB PUSH1 0xA DUP9 ADD SLOAD SWAP8 ADD SLOAD SWAP8 PUSH1 0x40 MLOAD SWAP12 DUP13 SWAP12 DUP13 MSTORE PUSH1 0x20 DUP13 ADD MSTORE PUSH2 0x140 DUP1 PUSH1 0x40 DUP14 ADD MSTORE DUP12 ADD SWAP1 PUSH2 0x19B9 JUMP JUMPDEST SWAP1 DUP10 DUP3 SUB PUSH1 0x60 DUP12 ADD MSTORE PUSH2 0x19B9 JUMP JUMPDEST SWAP6 PUSH1 0x80 DUP9 ADD MSTORE PUSH1 0xA0 DUP8 ADD MSTORE PUSH1 0xC0 DUP7 ADD MSTORE ISZERO ISZERO PUSH1 0xE0 DUP6 ADD MSTORE PUSH2 0x100 DUP5 ADD MSTORE PUSH2 0x120 DUP4 ADD MSTORE SUB SWAP1 RETURN JUMPDEST CALLVALUE PUSH2 0x18D JUMPI PUSH1 0x0 CALLDATASIZE PUSH1 0x3 NOT ADD SLT PUSH2 0x18D JUMPI PUSH2 0x1303 PUSH2 0x1A68 JUMP JUMPDEST DUP1 SLOAD PUSH1 0x40 MLOAD PUSH4 0x70A08231 PUSH1 0xE0 SHL DUP2 MSTORE ADDRESS DUP2 DUP5 ADD MSTORE PUSH1 0x20 SWAP3 SWAP1 SWAP2 PUSH1 0x1 PUSH1 0x1 PUSH1 0xA0 SHL SUB SWAP1 DUP2 AND SWAP2 SWAP1 DUP5 DUP5 PUSH1 0x24 DUP2 DUP7 GAS STATICCALL SWAP4 DUP5 ISZERO PUSH2 0x8DB JUMPI PUSH1 0x0 SWAP5 PUSH2 0x13FC JUMPI JUMPDEST POP DUP4 ISZERO PUSH2 0x13C2 JUMPI SWAP2 PUSH2 0x1385 SWAP4 SWAP2 PUSH1 0x0 DUP7 SWAP5 DUP2 SLOAD AND SWAP2 PUSH1 0x40 MLOAD SWAP7 DUP8 SWAP6 DUP7 SWAP5 DUP6 SWAP4 PUSH4 0xA9059CBB PUSH1 0xE0 SHL DUP6 MSTORE DUP5 ADD PUSH1 0x20 SWAP1 SWAP4 SWAP3 SWAP2 SWAP4 PUSH1 0x40 DUP2 ADD SWAP5 PUSH1 0x1 DUP1 PUSH1 0xA0 SHL SUB AND DUP2 MSTORE ADD MSTORE JUMP JUMPDEST SUB SWAP3 GAS CALL SWAP1 DUP2 ISZERO PUSH2 0x8DB JUMPI PUSH2 0x13A3 SWAP3 PUSH1 0x0 SWAP3 PUSH2 0x13A5 JUMPI JUMPDEST POP POP PUSH2 0x1CB5 JUMP JUMPDEST STOP JUMPDEST PUSH2 0x13BB SWAP3 POP DUP1 RETURNDATASIZE LT PUSH2 0x8D4 JUMPI PUSH2 0x8C6 DUP2 DUP4 PUSH2 0x18DB JUMP JUMPDEST DUP3 DUP1 PUSH2 0x139C JUMP JUMPDEST PUSH1 0x40 MLOAD PUSH3 0x461BCD PUSH1 0xE5 SHL DUP2 MSTORE DUP1 DUP4 ADD DUP7 SWAP1 MSTORE PUSH1 0x13 PUSH1 0x24 DUP3 ADD MSTORE PUSH19 0x4E6F206665657320746F207769746864726177 PUSH1 0x68 SHL PUSH1 0x44 DUP3 ADD MSTORE PUSH1 0x64 SWAP1 REVERT JUMPDEST SWAP1 SWAP4 POP DUP5 DUP2 DUP2 RETURNDATASIZE DUP4 GT PUSH2 0x1424 JUMPI JUMPDEST PUSH2 0x1414 DUP2 DUP4 PUSH2 0x18DB JUMP JUMPDEST DUP2 ADD SUB SLT PUSH2 0x18D JUMPI MLOAD SWAP3 DUP6 PUSH2 0x1340 JUMP JUMPDEST POP RETURNDATASIZE PUSH2 0x140A JUMP JUMPDEST CALLVALUE PUSH2 0x18D JUMPI PUSH1 0x0 CALLDATASIZE PUSH1 0x3 NOT ADD SLT PUSH2 0x18D JUMPI PUSH2 0x1444 PUSH2 0x1A68 JUMP JUMPDEST PUSH1 0x2 SLOAD SWAP1 PUSH1 0xFF DUP3 AND ISZERO PUSH2 0x1485 JUMPI POP PUSH1 0xFF NOT AND PUSH1 0x2 SSTORE PUSH32 0x5DB9EE0A495BF2E6FF9C91A7834C1BA4FDD244A5E8AA4E537BD38AEAE4B073AA PUSH1 0x20 PUSH1 0x40 MLOAD CALLER DUP2 MSTORE LOG1 STOP JUMPDEST PUSH1 0x40 MLOAD PUSH4 0x8DFC202B PUSH1 0xE0 SHL DUP2 MSTORE REVERT JUMPDEST CALLVALUE PUSH2 0x18D JUMPI PUSH1 0x0 CALLDATASIZE PUSH1 0x3 NOT ADD SLT PUSH2 0x18D JUMPI PUSH1 0x20 PUSH1 0x3 SLOAD PUSH1 0x40 MLOAD SWAP1 DUP2 MSTORE RETURN JUMPDEST CALLVALUE PUSH2 0x18D JUMPI PUSH1 0x0 CALLDATASIZE PUSH1 0x3 NOT ADD SLT PUSH2 0x18D JUMPI SLOAD PUSH1 0x40 MLOAD PUSH1 0x1 PUSH1 0x1 PUSH1 0xA0 SHL SUB SWAP1 SWAP2 AND DUP2 MSTORE PUSH1 0x20 SWAP1 RETURN JUMPDEST CALLVALUE PUSH2 0x18D JUMPI PUSH1 0x60 CALLDATASIZE PUSH1 0x3 NOT ADD SLT PUSH2 0x18D JUMPI DUP1 CALLDATALOAD PUSH1 0x24 CALLDATALOAD SWAP2 PUSH1 0x44 CALLDATALOAD SWAP1 PUSH2 0x14FC PUSH2 0x1C4E JUMP JUMPDEST PUSH2 0x1504 PUSH2 0x1C30 JUMP JUMPDEST PUSH1 0x3 SLOAD DUP4 GT ISZERO DUP1 PUSH2 0x17D7 JUMPI JUMPDEST PUSH2 0x1519 SWAP1 PUSH2 0x1C71 JUMP JUMPDEST DUP3 PUSH1 0x0 MSTORE PUSH1 0x9 PUSH1 0x20 SWAP2 DUP2 DUP4 MSTORE PUSH1 0x40 PUSH1 0x0 KECCAK256 PUSH1 0xFF DUP4 DUP3 ADD SLOAD AND ISZERO SWAP1 DUP2 PUSH2 0x17C9 JUMPI JUMPDEST POP ISZERO PUSH2 0x1791 JUMPI PUSH1 0x6 SLOAD DUP5 LT ISZERO DUP1 PUSH2 0x1785 JUMPI JUMPDEST ISZERO PUSH2 0x174A JUMPI DUP5 PUSH1 0x0 MSTORE DUP2 DUP4 MSTORE DUP1 PUSH1 0x40 PUSH1 0x0 KECCAK256 ADD SLOAD DUP7 LT ISZERO PUSH2 0x1715 JUMPI DUP5 PUSH1 0x0 MSTORE DUP2 DUP4 MSTORE PUSH1 0xC PUSH1 0x40 PUSH1 0x0 KECCAK256 ADD CALLER PUSH1 0x0 MSTORE DUP4 MSTORE PUSH1 0xFF PUSH1 0x40 PUSH1 0x0 KECCAK256 SLOAD AND PUSH2 0x16E1 JUMPI DUP1 SLOAD PUSH1 0x40 DUP1 MLOAD PUSH4 0x23B872DD PUSH1 0xE0 SHL DUP2 MSTORE CALLER SWAP4 DUP2 ADD SWAP4 DUP5 MSTORE ADDRESS PUSH1 0x20 DUP6 ADD MSTORE SWAP1 DUP4 ADD DUP7 SWAP1 MSTORE SWAP2 DUP5 SWAP2 DUP4 SWAP2 DUP3 SWAP1 SUB PUSH1 0x60 ADD SWAP1 DUP3 SWAP1 PUSH1 0x0 SWAP1 PUSH1 0x1 PUSH1 0x1 PUSH1 0xA0 SHL SUB AND GAS CALL DUP1 ISZERO PUSH2 0x8DB JUMPI PUSH2 0x15DF SWAP2 PUSH1 0x0 SWAP2 PUSH2 0x16C4 JUMPI JUMPDEST POP PUSH2 0x1CB5 JUMP JUMPDEST DUP4 PUSH1 0x0 MSTORE DUP1 DUP3 MSTORE PUSH1 0xC PUSH1 0x40 PUSH1 0x0 KECCAK256 ADD CALLER PUSH1 0x0 MSTORE DUP3 MSTORE PUSH1 0x40 PUSH1 0x0 KECCAK256 PUSH1 0x1 PUSH1 0xFF NOT DUP3 SLOAD AND OR SWAP1 SSTORE DUP4 PUSH1 0x0 MSTORE DUP1 DUP3 MSTORE PUSH1 0xD PUSH1 0x40 PUSH1 0x0 KECCAK256 ADD CALLER PUSH1 0x0 MSTORE DUP3 MSTORE DUP3 PUSH1 0x40 PUSH1 0x0 KECCAK256 SSTORE DUP4 PUSH1 0x0 MSTORE DUP1 DUP3 MSTORE PUSH1 0xE PUSH1 0x40 PUSH1 0x0 KECCAK256 ADD CALLER PUSH1 0x0 MSTORE DUP3 MSTORE DUP5 PUSH1 0x40 PUSH1 0x0 KECCAK256 SSTORE DUP4 PUSH1 0x0 MSTORE DUP1 DUP3 MSTORE PUSH2 0x1654 DUP6 PUSH1 0x5 PUSH1 0x40 PUSH1 0x0 KECCAK256 ADD PUSH2 0x1C18 JUMP JUMPDEST DUP2 SLOAD SWAP1 PUSH1 0x3 SHL SWAP1 PUSH2 0x1667 DUP7 DUP3 DUP5 SHR PUSH2 0x1BE1 JUMP JUMPDEST DUP3 SHL SWAP2 PUSH1 0x0 NOT SWAP1 SHL NOT AND OR SWAP1 SSTORE DUP4 PUSH1 0x0 MSTORE DUP2 MSTORE PUSH1 0x6 PUSH1 0x40 PUSH1 0x0 KECCAK256 ADD PUSH2 0x168D DUP4 DUP3 SLOAD PUSH2 0x1BE1 JUMP JUMPDEST SWAP1 SSTORE PUSH1 0x40 MLOAD SWAP4 DUP5 MSTORE DUP4 ADD MSTORE PUSH32 0xE10FDDE2C5CD9B92E449EE25DF01FEBDA2CBEBC5553E38F2250FFE7F2D5143BC PUSH1 0x40 CALLER SWAP4 LOG3 PUSH1 0x1 DUP1 SSTORE STOP JUMPDEST PUSH2 0x16DB SWAP2 POP DUP5 RETURNDATASIZE DUP7 GT PUSH2 0x8D4 JUMPI PUSH2 0x8C6 DUP2 DUP4 PUSH2 0x18DB JUMP JUMPDEST DUP8 PUSH2 0x15D9 JUMP JUMPDEST PUSH1 0x40 MLOAD PUSH3 0x461BCD PUSH1 0xE5 SHL DUP2 MSTORE SWAP1 DUP2 ADD DUP4 SWAP1 MSTORE PUSH1 0xD PUSH1 0x24 DUP3 ADD MSTORE PUSH13 0x105B1C9958591E481D9BDD1959 PUSH1 0x9A SHL PUSH1 0x44 DUP3 ADD MSTORE PUSH1 0x64 SWAP1 REVERT JUMPDEST PUSH1 0x40 MLOAD PUSH3 0x461BCD PUSH1 0xE5 SHL DUP2 MSTORE SWAP1 DUP2 ADD DUP4 SWAP1 MSTORE PUSH1 0xE PUSH1 0x24 DUP3 ADD MSTORE PUSH14 0x24B73B30B634B21037B83A34B7B7 PUSH1 0x91 SHL PUSH1 0x44 DUP3 ADD MSTORE PUSH1 0x64 SWAP1 REVERT JUMPDEST PUSH1 0x40 MLOAD PUSH3 0x461BCD PUSH1 0xE5 SHL DUP2 MSTORE SWAP1 DUP2 ADD DUP4 SWAP1 MSTORE PUSH1 0x14 PUSH1 0x24 DUP3 ADD MSTORE PUSH20 0x125B9D985B1A59081CDD185AD948185B5BDD5B9D PUSH1 0x62 SHL PUSH1 0x44 DUP3 ADD MSTORE PUSH1 0x64 SWAP1 REVERT JUMPDEST POP PUSH1 0x7 SLOAD DUP5 GT ISZERO PUSH2 0x154B JUMP JUMPDEST PUSH1 0x40 MLOAD PUSH3 0x461BCD PUSH1 0xE5 SHL DUP2 MSTORE SWAP1 DUP2 ADD DUP4 SWAP1 MSTORE PUSH1 0x11 PUSH1 0x24 DUP3 ADD MSTORE PUSH17 0x446562617465206E6F7420616374697665 PUSH1 0x78 SHL PUSH1 0x44 DUP3 ADD MSTORE PUSH1 0x64 SWAP1 REVERT JUMPDEST PUSH1 0x8 SWAP2 POP ADD SLOAD TIMESTAMP LT DUP8 PUSH2 0x1539 JUMP JUMPDEST POP DUP3 ISZERO ISZERO PUSH2 0x1510 JUMP JUMPDEST CALLVALUE PUSH2 0x18D JUMPI PUSH1 0x40 CALLDATASIZE PUSH1 0x3 NOT ADD SLT PUSH2 0x18D JUMPI PUSH1 0x60 SWAP1 CALLDATALOAD PUSH2 0x17FD PUSH2 0x1875 JUMP JUMPDEST SWAP1 PUSH1 0x3 SLOAD DUP2 GT ISZERO DUP1 PUSH2 0x186C JUMPI JUMPDEST PUSH2 0x1813 SWAP1 PUSH2 0x1C71 JUMP JUMPDEST PUSH1 0x0 MSTORE PUSH1 0x9 PUSH1 0x20 MSTORE PUSH1 0x40 PUSH1 0x0 KECCAK256 SWAP1 PUSH1 0x1 DUP1 PUSH1 0xA0 SHL SUB AND PUSH1 0x0 MSTORE PUSH1 0xD DUP2 ADD PUSH1 0x20 MSTORE PUSH1 0x40 PUSH1 0x0 KECCAK256 SLOAD SWAP1 PUSH1 0xE DUP2 ADD PUSH1 0x20 MSTORE PUSH1 0xF PUSH1 0x40 PUSH1 0x0 KECCAK256 SLOAD SWAP2 ADD PUSH1 0x20 MSTORE PUSH1 0xFF PUSH1 0x40 PUSH1 0x0 KECCAK256 SLOAD AND SWAP1 PUSH1 0x40 MLOAD SWAP3 DUP4 MSTORE PUSH1 0x20 DUP4 ADD MSTORE ISZERO ISZERO PUSH1 0x40 DUP3 ADD MSTORE RETURN JUMPDEST POP DUP1 ISZERO ISZERO PUSH2 0x180A JUMP JUMPDEST PUSH1 0x24 CALLDATALOAD SWAP1 PUSH1 0x1 PUSH1 0x1 PUSH1 0xA0 SHL SUB DUP3 AND DUP3 SUB PUSH2 0x18D JUMPI JUMP JUMPDEST PUSH1 0x4 CALLDATALOAD SWAP1 PUSH1 0x1 PUSH1 0x1 PUSH1 0xA0 SHL SUB DUP3 AND DUP3 SUB PUSH2 0x18D JUMPI JUMP JUMPDEST SWAP1 PUSH1 0x1 DUP3 DUP2 SHR SWAP3 AND DUP1 ISZERO PUSH2 0x18D1 JUMPI JUMPDEST PUSH1 0x20 DUP4 LT EQ PUSH2 0x18BB JUMPI JUMP JUMPDEST PUSH4 0x4E487B71 PUSH1 0xE0 SHL PUSH1 0x0 MSTORE PUSH1 0x22 PUSH1 0x4 MSTORE PUSH1 0x24 PUSH1 0x0 REVERT JUMPDEST SWAP2 PUSH1 0x7F AND SWAP2 PUSH2 0x18B0 JUMP JUMPDEST SWAP1 PUSH1 0x1F DUP1 NOT SWAP2 ADD AND DUP2 ADD SWAP1 DUP2 LT PUSH8 0xFFFFFFFFFFFFFFFF DUP3 GT OR PUSH2 0x18FD JUMPI PUSH1 0x40 MSTORE JUMP JUMPDEST PUSH4 0x4E487B71 PUSH1 0xE0 SHL PUSH1 0x0 MSTORE PUSH1 0x41 PUSH1 0x4 MSTORE PUSH1 0x24 PUSH1 0x0 REVERT JUMPDEST SWAP1 PUSH1 0x40 MLOAD SWAP2 DUP3 PUSH1 0x0 DUP3 SLOAD SWAP3 PUSH2 0x1927 DUP5 PUSH2 0x18A1 JUMP JUMPDEST SWAP1 DUP2 DUP5 MSTORE PUSH1 0x1 SWAP5 DUP6 DUP2 AND SWAP1 DUP2 PUSH1 0x0 EQ PUSH2 0x1996 JUMPI POP PUSH1 0x1 EQ PUSH2 0x1953 JUMPI JUMPDEST POP POP PUSH2 0x1951 SWAP3 POP SUB DUP4 PUSH2 0x18DB JUMP JUMPDEST JUMP JUMPDEST SWAP1 SWAP4 SWAP2 POP PUSH1 0x0 MSTORE PUSH1 0x20 SWAP1 DUP2 PUSH1 0x0 KECCAK256 SWAP4 PUSH1 0x0 SWAP2 JUMPDEST DUP2 DUP4 LT PUSH2 0x197E JUMPI POP POP PUSH2 0x1951 SWAP4 POP DUP3 ADD ADD CODESIZE DUP1 PUSH2 0x1943 JUMP JUMPDEST DUP6 SLOAD DUP9 DUP5 ADD DUP6 ADD MSTORE SWAP5 DUP6 ADD SWAP5 DUP8 SWAP5 POP SWAP2 DUP4 ADD SWAP2 PUSH2 0x1966 JUMP JUMPDEST SWAP2 POP POP PUSH2 0x1951 SWAP5 POP PUSH1 0x20 SWAP3 POP PUSH1 0xFF NOT AND DUP3 DUP5 ADD MSTORE ISZERO ISZERO PUSH1 0x5 SHL DUP3 ADD ADD CODESIZE DUP1 PUSH2 0x1943 JUMP JUMPDEST SWAP2 SWAP1 DUP3 MLOAD SWAP3 DUP4 DUP3 MSTORE PUSH1 0x0 JUMPDEST DUP5 DUP2 LT PUSH2 0x19E5 JUMPI POP POP DUP3 PUSH1 0x0 PUSH1 0x20 DUP1 SWAP5 SWAP6 DUP5 ADD ADD MSTORE PUSH1 0x1F DUP1 NOT SWAP2 ADD AND ADD ADD SWAP1 JUMP JUMPDEST PUSH1 0x20 DUP2 DUP4 ADD DUP2 ADD MLOAD DUP5 DUP4 ADD DUP3 ADD MSTORE ADD PUSH2 0x19C4 JUMP JUMPDEST DUP2 PUSH1 0x1F DUP3 ADD SLT ISZERO PUSH2 0x18D JUMPI DUP1 CALLDATALOAD SWAP1 PUSH8 0xFFFFFFFFFFFFFFFF DUP3 GT PUSH2 0x18FD JUMPI PUSH1 0x40 MLOAD SWAP3 PUSH2 0x1A2E PUSH1 0x1F DUP5 ADD PUSH1 0x1F NOT AND PUSH1 0x20 ADD DUP6 PUSH2 0x18DB JUMP JUMPDEST DUP3 DUP5 MSTORE PUSH1 0x20 DUP4 DUP4 ADD ADD GT PUSH2 0x18D JUMPI DUP2 PUSH1 0x0 SWAP3 PUSH1 0x20 DUP1 SWAP4 ADD DUP4 DUP7 ADD CALLDATACOPY DUP4 ADD ADD MSTORE SWAP1 JUMP JUMPDEST PUSH8 0xFFFFFFFFFFFFFFFF DUP2 GT PUSH2 0x18FD JUMPI PUSH1 0x5 SHL PUSH1 0x20 ADD SWAP1 JUMP JUMPDEST PUSH1 0x0 SLOAD PUSH1 0x1 PUSH1 0x1 PUSH1 0xA0 SHL SUB AND CALLER SUB PUSH2 0x1A7C JUMPI JUMP JUMPDEST PUSH1 0x40 MLOAD PUSH4 0x118CDAA7 PUSH1 0xE0 SHL DUP2 MSTORE CALLER PUSH1 0x4 DUP3 ADD MSTORE PUSH1 0x24 SWAP1 REVERT JUMPDEST SWAP1 DUP2 PUSH1 0x20 SWAP2 SUB SLT PUSH2 0x18D JUMPI MLOAD DUP1 ISZERO ISZERO DUP2 SUB PUSH2 0x18D JUMPI SWAP1 JUMP JUMPDEST PUSH1 0x0 NOT DUP2 EQ PUSH2 0x1ABB JUMPI PUSH1 0x1 ADD SWAP1 JUMP JUMPDEST PUSH4 0x4E487B71 PUSH1 0xE0 SHL PUSH1 0x0 MSTORE PUSH1 0x11 PUSH1 0x4 MSTORE PUSH1 0x24 PUSH1 0x0 REVERT JUMPDEST SWAP2 SWAP1 SWAP2 DUP3 MLOAD PUSH8 0xFFFFFFFFFFFFFFFF DUP2 GT PUSH2 0x18FD JUMPI PUSH2 0x1AEF DUP3 SLOAD PUSH2 0x18A1 JUMP JUMPDEST PUSH1 0x1F DUP2 GT PUSH2 0x1B99 JUMPI JUMPDEST POP PUSH1 0x20 DUP1 PUSH1 0x1F DUP4 GT PUSH1 0x1 EQ PUSH2 0x1B35 JUMPI POP DUP2 SWAP3 SWAP4 SWAP5 PUSH1 0x0 SWAP3 PUSH2 0x1B2A JUMPI JUMPDEST POP POP DUP2 PUSH1 0x1 SHL SWAP2 PUSH1 0x0 NOT SWAP1 PUSH1 0x3 SHL SHR NOT AND OR SWAP1 SSTORE JUMP JUMPDEST ADD MLOAD SWAP1 POP CODESIZE DUP1 PUSH2 0x1B14 JUMP JUMPDEST SWAP1 PUSH1 0x1F NOT DUP4 AND SWAP6 DUP5 PUSH1 0x0 MSTORE DUP3 PUSH1 0x0 KECCAK256 SWAP3 PUSH1 0x0 SWAP1 JUMPDEST DUP9 DUP3 LT PUSH2 0x1B81 JUMPI POP POP DUP4 PUSH1 0x1 SWAP6 SWAP7 SWAP8 LT PUSH2 0x1B68 JUMPI JUMPDEST POP POP POP DUP2 SHL ADD SWAP1 SSTORE JUMP JUMPDEST ADD MLOAD PUSH1 0x0 NOT PUSH1 0xF8 DUP5 PUSH1 0x3 SHL AND SHR NOT AND SWAP1 SSTORE CODESIZE DUP1 DUP1 PUSH2 0x1B5E JUMP JUMPDEST DUP1 PUSH1 0x1 DUP6 SWAP7 DUP3 SWAP5 SWAP7 DUP7 ADD MLOAD DUP2 SSTORE ADD SWAP6 ADD SWAP4 ADD SWAP1 PUSH2 0x1B49 JUMP JUMPDEST PUSH1 0x0 DUP4 DUP2 MSTORE PUSH1 0x20 DUP2 KECCAK256 PUSH1 0x1F DUP5 ADD PUSH1 0x5 SHR DUP2 ADD SWAP3 PUSH1 0x20 DUP6 LT PUSH2 0x1BD7 JUMPI JUMPDEST PUSH1 0x1F ADD PUSH1 0x5 SHR ADD SWAP2 JUMPDEST DUP3 DUP2 LT PUSH2 0x1BCC JUMPI POP POP PUSH2 0x1AF8 JUMP JUMPDEST DUP2 DUP2 SSTORE PUSH1 0x1 ADD PUSH2 0x1BBE JUMP JUMPDEST SWAP1 SWAP3 POP DUP3 SWAP1 PUSH2 0x1BB5 JUMP JUMPDEST SWAP2 SWAP1 DUP3 ADD DUP1 SWAP3 GT PUSH2 0x1ABB JUMPI JUMP JUMPDEST DUP1 MLOAD DUP3 LT ISZERO PUSH2 0x1C02 JUMPI PUSH1 0x20 SWAP2 PUSH1 0x5 SHL ADD ADD SWAP1 JUMP JUMPDEST PUSH4 0x4E487B71 PUSH1 0xE0 SHL PUSH1 0x0 MSTORE PUSH1 0x32 PUSH1 0x4 MSTORE PUSH1 0x24 PUSH1 0x0 REVERT JUMPDEST DUP1 SLOAD DUP3 LT ISZERO PUSH2 0x1C02 JUMPI PUSH1 0x0 MSTORE PUSH1 0x20 PUSH1 0x0 KECCAK256 ADD SWAP1 PUSH1 0x0 SWAP1 JUMP JUMPDEST PUSH1 0xFF PUSH1 0x2 SLOAD AND PUSH2 0x1C3C JUMPI JUMP JUMPDEST PUSH1 0x40 MLOAD PUSH4 0xD93C0665 PUSH1 0xE0 SHL DUP2 MSTORE PUSH1 0x4 SWAP1 REVERT JUMPDEST PUSH1 0x2 PUSH1 0x1 SLOAD EQ PUSH2 0x1C5F JUMPI PUSH1 0x2 PUSH1 0x1 SSTORE JUMP JUMPDEST PUSH1 0x40 MLOAD PUSH4 0x3EE5AEB5 PUSH1 0xE0 SHL DUP2 MSTORE PUSH1 0x4 SWAP1 REVERT JUMPDEST ISZERO PUSH2 0x1C78 JUMPI JUMP JUMPDEST PUSH1 0x40 MLOAD PUSH3 0x461BCD PUSH1 0xE5 SHL DUP2 MSTORE PUSH1 0x20 PUSH1 0x4 DUP3 ADD MSTORE PUSH1 0x15 PUSH1 0x24 DUP3 ADD MSTORE PUSH21 0x111958985D1948191BD95CC81B9BDD08195E1A5CDD PUSH1 0x5A SHL PUSH1 0x44 DUP3 ADD MSTORE PUSH1 0x64 SWAP1 REVERT JUMPDEST ISZERO PUSH2 0x1CBC JUMPI JUMP JUMPDEST PUSH1 0x40 MLOAD PUSH3 0x461BCD PUSH1 0xE5 SHL DUP2 MSTORE PUSH1 0x20 PUSH1 0x4 DUP3 ADD MSTORE PUSH1 0xF PUSH1 0x24 DUP3 ADD MSTORE PUSH15 0x151C985B9CD9995C8819985A5B1959 PUSH1 0x8A SHL PUSH1 0x44 DUP3 ADD MSTORE PUSH1 0x64 SWAP1 REVERT JUMPDEST DUP2 DUP2 MUL SWAP3 SWAP2 DUP2 ISZERO SWAP2 DUP5 DIV EQ OR ISZERO PUSH2 0x1ABB JUMPI JUMP JUMPDEST DUP2 ISZERO PUSH2 0x1D10 JUMPI DIV SWAP1 JUMP JUMPDEST PUSH4 0x4E487B71 PUSH1 0xE0 SHL PUSH1 0x0 MSTORE PUSH1 0x12 PUSH1 0x4 MSTORE PUSH1 0x24 PUSH1 0x0 REVERT JUMPDEST SWAP2 SWAP1 DUP3 SUB SWAP2 DUP3 GT PUSH2 0x1ABB JUMPI JUMP JUMPDEST SWAP1 PUSH1 0x0 SWAP2 DUP3 MSTORE PUSH1 0x9 PUSH1 0x20 MSTORE PUSH1 0x40 DUP3 KECCAK256 SWAP1 PUSH1 0x1 DUP1 PUSH1 0xA0 SHL SUB AND DUP3 MSTORE PUSH1 0xC DUP2 ADD PUSH1 0x20 MSTORE PUSH1 0xFF PUSH1 0x40 DUP4 KECCAK256 SLOAD AND ISZERO DUP1 ISZERO PUSH2 0x1DAC JUMPI JUMPDEST PUSH2 0x1DA8 JUMPI PUSH2 0xB5A PUSH1 0x40 PUSH2 0x1DA5 SWAP4 PUSH1 0xD DUP5 ADD PUSH1 0x20 MSTORE KECCAK256 SLOAD PUSH2 0xB55 PUSH1 0x6 PUSH2 0x1D90 PUSH1 0xA DUP7 ADD SLOAD PUSH1 0x5 DUP8 ADD PUSH2 0x1C18 JUMP JUMPDEST SWAP2 SWAP1 SLOAD PUSH1 0xB DUP8 ADD SLOAD SWAP3 PUSH1 0x3 SHL SHR SWAP6 ADD SLOAD PUSH2 0x1D26 JUMP JUMPDEST SWAP1 JUMP JUMPDEST POP SWAP1 JUMP JUMPDEST POP PUSH1 0xE DUP2 ADD PUSH1 0x20 MSTORE PUSH1 0x40 DUP3 KECCAK256 SLOAD PUSH1 0xA DUP3 ADD SLOAD EQ ISZERO PUSH2 0x1D64 JUMP INVALID LOG2 PUSH5 0x6970667358 0x22 SLT KECCAK256 SIGNEXTEND GASPRICE SAR 0xD0 PUSH17 0x36D998441E2F215C237ABE88F24C667613 0xBA SHR DUP8 0x27 GASPRICE EXP JUMPI 0xD1 PUSH24 0x8964736F6C63430008140033000000000000000000000000 "},"methodIdentifiers":{"calculateUserReward(uint256,address)":"e750d6fa","claimReward(uint256)":"ae169a50","createDebate(string,string,string[],uint256)":"b3c3c845","debateCreationFee()":"a7d67ae1","debateToken()":"21af0da7","debates(uint256)":"59758fcf","endDebate(uint256)":"d2fa9560","getDebate(uint256)":"98d336af","getTotalDebates()":"3461f164","getUserActiveDebate(address)":"c546295b","getUserVote(uint256,address)":"03c7881a","hasUserVoted(uint256,address)":"dc296ae1","maxStakeAmount()":"5d80ca32","minStakeAmount()":"f1887684","owner()":"8da5cb5b","pause()":"8456cb59","paused()":"5c975abb","platformFeePercent()":"8c639a85","renounceOwnership()":"715018a6","stakeAndVote(uint256,uint256,uint256)":"0f07a76c","transferOwnership(address)":"f2fde38b","unpause()":"3f4ba83a","updateCreationFee(uint256)":"6fa23795","updateMaxStake(uint256)":"8fa7f745","updateMinStake(uint256)":"8cdb442f","updatePlatformFee(uint256)":"aa0b5988","userActiveDebates(address)":"ff0b2ba6","withdrawFees()":"476343ee"}}}}}