{"contracts/MockUSDC.sol":{"MockUSDC":{"abi":[{"inputs":[],"stateMutability":"nonpayable","type":"constructor"},{"inputs":[{"internalType":"address","name":"spender","type":"address"},{"internalType":"uint256","name":"allowance","type":"uint256"},{"internalType":"uint256","name":"needed","type":"uint256"}],"name":"ERC20InsufficientAllowance","type":"error"},{"inputs":[{"internalType":"address","name":"sender","type":"address"},{"internalType":"uint256","name":"balance","type":"uint256"},{"internalType":"uint256","name":"needed","type":"uint256"}],"name":"ERC20InsufficientBalance","type":"error"},{"inputs":[{"internalType":"address","name":"approver","type":"address"}],"name":"ERC20InvalidApprover","type":"error"},{"inputs":[{"internalType":"address","name":"receiver","type":"address"}],"name":"ERC20InvalidReceiver","type":"error"},{"inputs":[{"internalType":"address","name":"sender","type":"address"}],"name":"ERC20InvalidSender","type":"error"},{"inputs":[{"internalType":"address","name":"spender","type":"address"}],"name":"ERC20InvalidSpender","type":"error"},{"inputs":[{"internalType":"address","name":"owner","type":"address"}],"name":"OwnableInvalidOwner","type":"error"},{"inputs":[{"internalType":"address","name":"account","type":"address"}],"name":"OwnableUnauthorizedAccount","type":"error"},{"inputs":[],"name":"ReentrancyGuardReentrantCall","type":"error"},{"anonymous":false,"inputs":[{"indexed":true,"internalType":"address","name":"owner","type":"address"},{"indexed":true,"internalType":"address","name":"spender","type":"address"},{"indexed":false,"internalType":"uint256","name":"value","type":"uint256"}],"name":"Approval","type":"event"},{"anonymous":false,"inputs":[{"indexed":true,"internalType":"address","name":"user","type":"address"},{"indexed":false,"internalType":"uint256","name":"amount","type":"uint256"}],"name":"FaucetUsed","type":"event"},{"anonymous":false,"inputs":[{"indexed":true,"internalType":"address","name":"previousOwner","type":"address"},{"indexed":true,"internalType":"address","name":"newOwner","type":"address"}],"name":"OwnershipTransferred","type":"event"},{"anonymous":false,"inputs":[{"indexed":true,"internalType":"address","name":"from","type":"address"},{"indexed":false,"internalType":"uint256","name":"amount","type":"uint256"}],"name":"TokensBurned","type":"event"},{"anonymous":false,"inputs":[{"indexed":true,"internalType":"address","name":"from","type":"address"},{"indexed":true,"internalType":"address","name":"to","type":"address"},{"indexed":false,"internalType":"uint256","name":"value","type":"uint256"}],"name":"Transfer","type":"event"},{"inputs":[],"name":"FAUCET_COOLDOWN","outputs":[{"internalType":"uint256","name":"","type":"uint256"}],"stateMutability":"view","type":"function"},{"inputs":[],"name":"MAX_FAUCET_AMOUNT","outputs":[{"internalType":"uint256","name":"","type":"uint256"}],"stateMutability":"view","type":"function"},{"inputs":[{"internalType":"address","name":"owner","type":"address"},{"internalType":"address","name":"spender","type":"address"}],"name":"allowance","outputs":[{"internalType":"uint256","name":"","type":"uint256"}],"stateMutability":"view","type":"function"},{"inputs":[{"internalType":"address","name":"spender","type":"address"},{"internalType":"uint256","name":"value","type":"uint256"}],"name":"approve","outputs":[{"internalType":"bool","name":"","type":"bool"}],"stateMutability":"nonpayable","type":"function"},{"inputs":[{"internalType":"address","name":"account","type":"address"}],"name":"balanceOf","outputs":[{"internalType":"uint256","name":"","type":"uint256"}],"stateMutability":"view","type":"function"},{"inputs":[{"internalType":"uint256","name":"amount","type":"uint256"}],"name":"burn","outputs":[],"stateMutability":"nonpayable","type":"function"},{"inputs":[{"internalType":"address","name":"from","type":"address"},{"internalType":"uint256","name":"amount","type":"uint256"}],"name":"burnFrom","outputs":[],"stateMutability":"nonpayable","type":"function"},{"inputs":[],"name":"decimals","outputs":[{"internalType":"uint8","name":"","type":"uint8"}],"stateMutability":"view","type":"function"},{"inputs":[],"name":"faucet","outputs":[],"stateMutability":"nonpayable","type":"function"},{"inputs":[{"internalType":"address","name":"user","type":"address"}],"name":"getFaucetInfo","outputs":[{"internalType":"bool","name":"canUseFaucet","type":"bool"},{"internalType":"uint256","name":"timeUntilNextFaucet","type":"uint256"},{"internalType":"uint256","name":"totalClaimed","type":"uint256"}],"stateMutability":"view","type":"function"},{"inputs":[{"internalType":"address","name":"","type":"address"}],"name":"lastFaucetTime","outputs":[{"internalType":"uint256","name":"","type":"uint256"}],"stateMutability":"view","type":"function"},{"inputs":[{"internalType":"address","name":"to","type":"address"},{"internalType":"uint256","name":"amount","type":"uint256"}],"name":"mint","outputs":[],"stateMutability":"nonpayable","type":"function"},{"inputs":[],"name":"name","outputs":[{"internalType":"string","name":"","type":"string"}],"stateMutability":"view","type":"function"},{"inputs":[],"name":"owner","outputs":[{"internalType":"address","name":"","type":"address"}],"stateMutability":"view","type":"function"},{"inputs":[],"name":"renounceOwnership","outputs":[],"stateMutability":"nonpayable","type":"function"},{"inputs":[{"internalType":"address","name":"user","type":"address"}],"name":"resetFaucet","outputs":[],"stateMutability":"nonpayable","type":"function"},{"inputs":[],"name":"symbol","outputs":[{"internalType":"string","name":"","type":"string"}],"stateMutability":"view","type":"function"},{"inputs":[{"internalType":"address","name":"","type":"address"}],"name":"totalFaucetClaimed","outputs":[{"internalType":"uint256","name":"","type":"uint256"}],"stateMutability":"view","type":"function"},{"inputs":[],"name":"totalFaucetSupply","outputs":[{"internalType":"uint256","name":"","type":"uint256"}],"stateMutability":"view","type":"function"},{"inputs":[],"name":"totalSupply","outputs":[{"internalType":"uint256","name":"","type":"uint256"}],"stateMutability":"view","type":"function"},{"inputs":[{"internalType":"address","name":"to","type":"address"},{"internalType":"uint256","name":"value","type":"uint256"}],"name":"transfer","outputs":[{"internalType":"bool","name":"","type":"bool"}],"stateMutability":"nonpayable","type":"function"},{"inputs":[{"internalType":"address","name":"from","type":"address"},{"internalType":"address","name":"to","type":"address"},{"internalType":"uint256","name":"amount","type":"uint256"}],"name":"transferFrom","outputs":[{"internalType":"bool","name":"","type":"bool"}],"stateMutability":"nonpayable","type":"function"},{"inputs":[{"internalType":"address","name":"newOwner","type":"address"}],"name":"transferOwnership","outputs":[],"stateMutability":"nonpayable","type":"function"}],"evm":{"bytecode":{"linkReferences":{},"object":"608034620003fd576040906001600160401b039080830182811182821017620002ff578352600d81526020906c26b7b1b5902aa9a21021b7b4b760991b8282015283519284840184811082821117620002ff578552600590818552646d5553444360d81b848601528251818111620002ff576003908154906001958683811c93168015620003f2575b88841014620003dc578190601f9384811162000388575b508890848311600114620003215760009262000315575b505060001982851b1c191690861b1782555b8651928311620002ff5760049687548681811c91168015620002f4575b88821014620002df57908183869594931162000287575b50879184116001146200021c5760009362000210575b505082851b92600019911b1c19161784555b3315620001f9578054336001600160a01b0319821681179092556001600160a01b03167f8be0079c531659141344cd1fd0a4f28419497f9722a3daafe3b4186f6b6457e0600080a360065564e8d4a510009182600a55600660ff19600754161760075560025490838201809211620001e457506000917fddf252ad1be2c89b69c2b068fc378daa952ba7f163c4a11628f55a4df523b3ef9160025533835282815284832084815401905584519384523393a351610ec29081620004038239f35b601190634e487b7160e01b6000525260246000fd5b8451631e4fbdf760e01b8152600081860152602490fd5b01519150388062000112565b9190869450601f1984169289600052886000209360005b8a82821062000270575050851162000255575b50505050811b01845562000124565b01519060f884600019921b161c191690553880808062000246565b8385015187558a9890960195938401930162000233565b9091929350886000528760002083808701881c8201928a8810620002d5575b91899188979695949301891c01915b828110620002c5575050620000fc565b60008155879650899101620002b5565b92508192620002a6565b602289634e487b7160e01b6000525260246000fd5b90607f1690620000e5565b634e487b7160e01b600052604160045260246000fd5b015190503880620000b6565b90889350601f19831691866000528a6000209260005b8c82821062000371575050841162000358575b505050811b018255620000c8565b015160001983871b60f8161c191690553880806200034a565b8385015186558c9790950194938401930162000337565b909150846000528860002084808501891c8201928b8610620003d2575b918a9186959493018a1c01915b828110620003c25750506200009f565b600081558594508a9101620003b2565b92508192620003a5565b634e487b7160e01b600052602260045260246000fd5b92607f169262000088565b600080fdfe6080604081815260048036101561001557600080fd5b600092833560e01c90816306fdde0314610b7857508063095ea7b314610acf57806318160ddd14610ab057806323b872dd146109bd578063305817e91461099e578063313ce5671461097c57806340c10f19146108df57806342966c681461089457806359c303ab1461078a5780636376d2d81461076b578381636cd40a58146107235750806370a08231146106ec578063715018a61461068c57806379cc6790146106275780637bc1f6cc146105ef5780637d1d5d19146105d25780638da5cb5b146105a957806395d89b4114610489578063a9059cbb14610458578063b7cbf50314610420578063dd62ed3e146103d7578063de5f72fd146101b45763f2fde38b1461012257600080fd5b346101b05760203660031901126101b05761013b610cb6565b90610144610ce7565b6001600160a01b0391821692831561019a575050600554826bffffffffffffffffffffffff60a01b821617600555167f8be0079c531659141344cd1fd0a4f28419497f9722a3daafe3b4186f6b6457e08380a380f35b51631e4fbdf760e01b8152908101849052602490fd5b8280fd5b509190346103d357816003193601126103d3576002600654146103c457600260065533825260206008815281832054610e1081018091116103b15742106103765733835260098152633b9aca009182818520541015610333576002548381018091116102b457600a54106102f057338452600882524281852055600982528084208054908482018092116102dd575533156102c7576002548381018091116102b457907fc471df7d13ab46c73ec6eb2da0f35f84077f20d50243ba09a714b82cffc54de99291600255338552848252808520848154019055805184815285600080516020610e6d833981519152843393a3519283523392a2600160065580f35b634e487b7160e01b855260118652602485fd5b5163ec442f0560e01b8152808501849052602490fd5b634e487b7160e01b865260118752602486fd5b5162461bcd60e51b815280850191909152601760248201527f46617563657420737570706c79206578686175737465640000000000000000006044820152606490fd5b5162461bcd60e51b815280850191909152601960248201527f4d61782066617563657420616d6f756e742072656163686564000000000000006044820152606490fd5b8390606492519162461bcd60e51b8352820152601660248201527546617563657420636f6f6c646f776e2061637469766560501b6044820152fd5b634e487b7160e01b845260118552602484fd5b51633ee5aeb560e01b81529050fd5b5080fd5b5050346103d357806003193601126103d357806020926103f5610cb6565b6103fd610cd1565b6001600160a01b0391821683526001865283832091168252845220549051908152f35b5050346103d35760203660031901126103d35760209181906001600160a01b03610448610cb6565b1681526009845220549051908152f35b5050346103d357806003193601126103d357602090610482610478610cb6565b6024359033610d13565b5160018152f35b509190346103d357816003193601126103d357805190828454600181811c9080831692831561059f575b602093848410811461058c57838852908115610570575060011461051b575b505050829003601f01601f191682019267ffffffffffffffff8411838510176105085750829182610504925282610c6d565b0390f35b634e487b7160e01b815260418552602490fd5b8787529192508591837f8a35acfbc15ff81a39ae7d344fd709f28e8600b4aa8c65c6b64bfe7fe36bd19b5b83851061055c57505050508301013880806104d2565b805488860183015293019284908201610546565b60ff1916878501525050151560051b84010190503880806104d2565b634e487b7160e01b895260228a52602489fd5b91607f16916104b3565b5050346103d357816003193601126103d35760055490516001600160a01b039091168152602090f35b5050346103d357816003193601126103d35760209051610e108152f35b5050346103d35760203660031901126103d35760209181906001600160a01b03610617610cb6565b1681526008845220549051908152f35b5050346103d357806003193601126103d3577ffd38818f5291bf0bb3a2a48aadc06ba8757865d1dabd804585338aab3009dcb66020610664610cb6565b60243593610670610ce7565b61067a8583610ddf565b519384526001600160a01b031692a280f35b83346106e957806003193601126106e9576106a5610ce7565b600580546001600160a01b0319811690915581906001600160a01b03167f8be0079c531659141344cd1fd0a4f28419497f9722a3daafe3b4186f6b6457e08280a380f35b80fd5b5050346103d35760203660031901126103d35760209181906001600160a01b03610714610cb6565b16815280845220549051908152f35b8084346107685760203660031901126107685761073e610cb6565b610746610ce7565b6001600160a01b03168252600860209081528183208390556009905281205580f35b50fd5b5050346103d357816003193601126103d35760209051633b9aca008152f35b509190346103d357602090816003193601126101b0576107a8610cb6565b6001600160a01b03168084526008835281842054610e10949085810190811061083457421015948561087b575b82825260088552838220548181018091116108685742101561085a578282526008855283822054908082019182811161084757429003019081116108345760609650908391925b81526009855220549282519415158552840152820152f35b634e487b7160e01b825260118752602482fd5b634e487b7160e01b845260118952602484fd5b50606095508083919261081c565b634e487b7160e01b835260118852602483fd5b945081815260098452633b9aca008382205410946107d5565b50346101b05760203660031901126101b05735906108b28233610ddf565b519081527ffd38818f5291bf0bb3a2a48aadc06ba8757865d1dabd804585338aab3009dcb660203392a280f35b5090346101b057806003193601126101b0576108f9610cb6565b9060243591610906610ce7565b6001600160a01b0316928315610967576002549083820180921161095457508492600080516020610e6d8339815191529260209260025585855284835280852082815401905551908152a380f35b634e487b7160e01b865260119052602485fd5b84602492519163ec442f0560e01b8352820152fd5b5050346103d357816003193601126103d35760209060ff600754169051908152f35b5050346103d357816003193601126103d357602090600a549051908152f35b5082346106e95760603660031901126106e9576109d8610cb6565b6109e0610cd1565b916044359360018060a01b038316808352600160205286832033845260205286832054916000198310610a1c575b602088610482898989610d13565b868310610a84578115610a6d573315610a565750825260016020908152868320338452815291869020908590039055829061048287610a0e565b8751634a1406b160e11b8152908101849052602490fd5b875163e602df0560e01b8152908101849052602490fd5b8751637dc7a0d960e11b8152339181019182526020820193909352604081018790528291506060010390fd5b5050346103d357816003193601126103d3576020906002549051908152f35b50346101b057816003193601126101b057610ae8610cb6565b602435903315610b61576001600160a01b0316918215610b4a57508083602095338152600187528181208582528752205582519081527f8c5be1e5ebec7d5bd14f71427d1e84f3dd0314c0f7b2291e5b200ac8c7c3b925843392a35160018152f35b8351634a1406b160e11b8152908101859052602490fd5b835163e602df0560e01b8152808401869052602490fd5b84915083346101b057826003193601126101b05782600354600181811c90808316928315610c63575b602093848410811461058c57838852908115610c475750600114610bf157505050829003601f01601f191682019267ffffffffffffffff8411838510176105085750829182610504925282610c6d565b600387529192508591837fc2575a0e9e593c00f959f8c92f12db2869c3395a3b0502d05e2516446f71f85b5b838510610c3357505050508301018580806104d2565b805488860183015293019284908201610c1d565b60ff1916878501525050151560051b84010190508580806104d2565b91607f1691610ba1565b6020808252825181830181905290939260005b828110610ca257505060409293506000838284010152601f8019910116010190565b818101860151848201604001528501610c80565b600435906001600160a01b0382168203610ccc57565b600080fd5b602435906001600160a01b0382168203610ccc57565b6005546001600160a01b03163303610cfb57565b60405163118cdaa760e01b8152336004820152602490fd5b916001600160a01b03808416928315610dc65716928315610dad5760009083825281602052604082205490838210610d7b57509160408282600080516020610e6d833981519152958760209652828652038282205586815220818154019055604051908152a3565b60405163391434e360e21b81526001600160a01b03919091166004820152602481019190915260448101839052606490fd5b60405163ec442f0560e01b815260006004820152602490fd5b604051634b637e8f60e11b815260006004820152602490fd5b906001600160a01b038216908115610dc65760009282845283602052604084205490828210610e3a575081600080516020610e6d833981519152926020928587528684520360408620558060025403600255604051908152a3565b60405163391434e360e21b81526001600160a01b03919091166004820152602481019190915260448101829052606490fdfeddf252ad1be2c89b69c2b068fc378daa952ba7f163c4a11628f55a4df523b3efa2646970667358221220acb811d7ee509c1b284acf92129a5a767f3a56ca9c5b2a008f03d09fd555b8c264736f6c63430008140033","opcodes":"PUSH1 0x80 CALLVALUE PUSH3 0x3FD JUMPI PUSH1 0x40 SWAP1 PUSH1 0x1 PUSH1 0x1 PUSH1 0x40 SHL SUB SWAP1 DUP1 DUP4 ADD DUP3 DUP2 GT DUP3 DUP3 LT OR PUSH3 0x2FF JUMPI DUP4 MSTORE PUSH1 0xD DUP2 MSTORE PUSH1 0x20 SWAP1 PUSH13 0x26B7B1B5902AA9A21021B7B4B7 PUSH1 0x99 SHL DUP3 DUP3 ADD MSTORE DUP4 MLOAD SWAP3 DUP5 DUP5 ADD DUP5 DUP2 LT DUP3 DUP3 GT OR PUSH3 0x2FF JUMPI DUP6 MSTORE PUSH1 0x5 SWAP1 DUP2 DUP6 MSTORE PUSH5 0x6D55534443 PUSH1 0xD8 SHL DUP5 DUP7 ADD MSTORE DUP3 MLOAD DUP2 DUP2 GT PUSH3 0x2FF JUMPI PUSH1 0x3 SWAP1 DUP2 SLOAD SWAP1 PUSH1 0x1 SWAP6 DUP7 DUP4 DUP2 SHR SWAP4 AND DUP1 ISZERO PUSH3 0x3F2 JUMPI JUMPDEST DUP9 DUP5 LT EQ PUSH3 0x3DC JUMPI DUP2 SWAP1 PUSH1 0x1F SWAP4 DUP5 DUP2 GT PUSH3 0x388 JUMPI JUMPDEST POP DUP9 SWAP1 DUP5 DUP4 GT PUSH1 0x1 EQ PUSH3 0x321 JUMPI PUSH1 0x0 SWAP3 PUSH3 0x315 JUMPI JUMPDEST POP POP PUSH1 0x0 NOT DUP3 DUP6 SHL SHR NOT AND SWAP1 DUP7 SHL OR DUP3 SSTORE JUMPDEST DUP7 MLOAD SWAP3 DUP4 GT PUSH3 0x2FF JUMPI PUSH1 0x4 SWAP7 DUP8 SLOAD DUP7 DUP2 DUP2 SHR SWAP2 AND DUP1 ISZERO PUSH3 0x2F4 JUMPI JUMPDEST DUP9 DUP3 LT EQ PUSH3 0x2DF JUMPI SWAP1 DUP2 DUP4 DUP7 SWAP6 SWAP5 SWAP4 GT PUSH3 0x287 JUMPI JUMPDEST POP DUP8 SWAP2 DUP5 GT PUSH1 0x1 EQ PUSH3 0x21C JUMPI PUSH1 0x0 SWAP4 PUSH3 0x210 JUMPI JUMPDEST POP POP DUP3 DUP6 SHL SWAP3 PUSH1 0x0 NOT SWAP2 SHL SHR NOT AND OR DUP5 SSTORE JUMPDEST CALLER ISZERO PUSH3 0x1F9 JUMPI DUP1 SLOAD CALLER PUSH1 0x1 PUSH1 0x1 PUSH1 0xA0 SHL SUB NOT DUP3 AND DUP2 OR SWAP1 SWAP3 SSTORE PUSH1 0x1 PUSH1 0x1 PUSH1 0xA0 SHL SUB AND PUSH32 0x8BE0079C531659141344CD1FD0A4F28419497F9722A3DAAFE3B4186F6B6457E0 PUSH1 0x0 DUP1 LOG3 PUSH1 0x6 SSTORE PUSH5 0xE8D4A51000 SWAP2 DUP3 PUSH1 0xA SSTORE PUSH1 0x6 PUSH1 0xFF NOT PUSH1 0x7 SLOAD AND OR PUSH1 0x7 SSTORE PUSH1 0x2 SLOAD SWAP1 DUP4 DUP3 ADD DUP1 SWAP3 GT PUSH3 0x1E4 JUMPI POP PUSH1 0x0 SWAP2 PUSH32 0xDDF252AD1BE2C89B69C2B068FC378DAA952BA7F163C4A11628F55A4DF523B3EF SWAP2 PUSH1 0x2 SSTORE CALLER DUP4 MSTORE DUP3 DUP2 MSTORE DUP5 DUP4 KECCAK256 DUP5 DUP2 SLOAD ADD SWAP1 SSTORE DUP5 MLOAD SWAP4 DUP5 MSTORE CALLER SWAP4 LOG3 MLOAD PUSH2 0xEC2 SWAP1 DUP2 PUSH3 0x403 DUP3 CODECOPY RETURN JUMPDEST PUSH1 0x11 SWAP1 PUSH4 0x4E487B71 PUSH1 0xE0 SHL PUSH1 0x0 MSTORE MSTORE PUSH1 0x24 PUSH1 0x0 REVERT JUMPDEST DUP5 MLOAD PUSH4 0x1E4FBDF7 PUSH1 0xE0 SHL DUP2 MSTORE PUSH1 0x0 DUP2 DUP7 ADD MSTORE PUSH1 0x24 SWAP1 REVERT JUMPDEST ADD MLOAD SWAP2 POP CODESIZE DUP1 PUSH3 0x112 JUMP JUMPDEST SWAP2 SWAP1 DUP7 SWAP5 POP PUSH1 0x1F NOT DUP5 AND SWAP3 DUP10 PUSH1 0x0 MSTORE DUP9 PUSH1 0x0 KECCAK256 SWAP4 PUSH1 0x0 JUMPDEST DUP11 DUP3 DUP3 LT PUSH3 0x270 JUMPI POP POP DUP6 GT PUSH3 0x255 JUMPI JUMPDEST POP POP POP POP DUP2 SHL ADD DUP5 SSTORE PUSH3 0x124 JUMP JUMPDEST ADD MLOAD SWAP1 PUSH1 0xF8 DUP5 PUSH1 0x0 NOT SWAP3 SHL AND SHR NOT AND SWAP1 SSTORE CODESIZE DUP1 DUP1 DUP1 PUSH3 0x246 JUMP JUMPDEST DUP4 DUP6 ADD MLOAD DUP8 SSTORE DUP11 SWAP9 SWAP1 SWAP7 ADD SWAP6 SWAP4 DUP5 ADD SWAP4 ADD PUSH3 0x233 JUMP JUMPDEST SWAP1 SWAP2 SWAP3 SWAP4 POP DUP9 PUSH1 0x0 MSTORE DUP8 PUSH1 0x0 KECCAK256 DUP4 DUP1 DUP8 ADD DUP9 SHR DUP3 ADD SWAP3 DUP11 DUP9 LT PUSH3 0x2D5 JUMPI JUMPDEST SWAP2 DUP10 SWAP2 DUP9 SWAP8 SWAP7 SWAP6 SWAP5 SWAP4 ADD DUP10 SHR ADD SWAP2 JUMPDEST DUP3 DUP2 LT PUSH3 0x2C5 JUMPI POP POP PUSH3 0xFC JUMP JUMPDEST PUSH1 0x0 DUP2 SSTORE DUP8 SWAP7 POP DUP10 SWAP2 ADD PUSH3 0x2B5 JUMP JUMPDEST SWAP3 POP DUP2 SWAP3 PUSH3 0x2A6 JUMP JUMPDEST PUSH1 0x22 DUP10 PUSH4 0x4E487B71 PUSH1 0xE0 SHL PUSH1 0x0 MSTORE MSTORE PUSH1 0x24 PUSH1 0x0 REVERT JUMPDEST SWAP1 PUSH1 0x7F AND SWAP1 PUSH3 0xE5 JUMP JUMPDEST PUSH4 0x4E487B71 PUSH1 0xE0 SHL PUSH1 0x0 MSTORE PUSH1 0x41 PUSH1 0x4 MSTORE PUSH1 0x24 PUSH1 0x0 REVERT JUMPDEST ADD MLOAD SWAP1 POP CODESIZE DUP1 PUSH3 0xB6 JUMP JUMPDEST SWAP1 DUP9 SWAP4 POP PUSH1 0x1F NOT DUP4 AND SWAP2 DUP7 PUSH1 0x0 MSTORE DUP11 PUSH1 0x0 KECCAK256 SWAP3 PUSH1 0x0 JUMPDEST DUP13 DUP3 DUP3 LT PUSH3 0x371 JUMPI POP POP DUP5 GT PUSH3 0x358 JUMPI JUMPDEST POP POP POP DUP2 SHL ADD DUP3 SSTORE PUSH3 0xC8 JUMP JUMPDEST ADD MLOAD PUSH1 0x0 NOT DUP4 DUP8 SHL PUSH1 0xF8 AND SHR NOT AND SWAP1 SSTORE CODESIZE DUP1 DUP1 PUSH3 0x34A JUMP JUMPDEST DUP4 DUP6 ADD MLOAD DUP7 SSTORE DUP13 SWAP8 SWAP1 SWAP6 ADD SWAP5 SWAP4 DUP5 ADD SWAP4 ADD PUSH3 0x337 JUMP JUMPDEST SWAP1 SWAP2 POP DUP5 PUSH1 0x0 MSTORE DUP9 PUSH1 0x0 KECCAK256 DUP5 DUP1 DUP6 ADD DUP10 SHR DUP3 ADD SWAP3 DUP12 DUP7 LT PUSH3 0x3D2 JUMPI JUMPDEST SWAP2 DUP11 SWAP2 DUP7 SWAP6 SWAP5 SWAP4 ADD DUP11 SHR ADD SWAP2 JUMPDEST DUP3 DUP2 LT PUSH3 0x3C2 JUMPI POP POP PUSH3 0x9F JUMP JUMPDEST PUSH1 0x0 DUP2 SSTORE DUP6 SWAP5 POP DUP11 SWAP2 ADD PUSH3 0x3B2 JUMP JUMPDEST SWAP3 POP DUP2 SWAP3 PUSH3 0x3A5 JUMP JUMPDEST PUSH4 0x4E487B71 PUSH1 0xE0 SHL PUSH1 0x0 MSTORE PUSH1 0x22 PUSH1 0x4 MSTORE PUSH1 0x24 PUSH1 0x0 REVERT JUMPDEST SWAP3 PUSH1 0x7F AND SWAP3 PUSH3 0x88 JUMP JUMPDEST PUSH1 0x0 DUP1 REVERT INVALID PUSH1 0x80 PUSH1 0x40 DUP2 DUP2 MSTORE PUSH1 0x4 DUP1 CALLDATASIZE LT ISZERO PUSH2 0x15 JUMPI PUSH1 0x0 DUP1 REVERT JUMPDEST PUSH1 0x0 SWAP3 DUP4 CALLDATALOAD PUSH1 0xE0 SHR SWAP1 DUP2 PUSH4 0x6FDDE03 EQ PUSH2 0xB78 JUMPI POP DUP1 PUSH4 0x95EA7B3 EQ PUSH2 0xACF JUMPI DUP1 PUSH4 0x18160DDD EQ PUSH2 0xAB0 JUMPI DUP1 PUSH4 0x23B872DD EQ PUSH2 0x9BD JUMPI DUP1 PUSH4 0x305817E9 EQ PUSH2 0x99E JUMPI DUP1 PUSH4 0x313CE567 EQ PUSH2 0x97C JUMPI DUP1 PUSH4 0x40C10F19 EQ PUSH2 0x8DF JUMPI DUP1 PUSH4 0x42966C68 EQ PUSH2 0x894 JUMPI DUP1 PUSH4 0x59C303AB EQ PUSH2 0x78A JUMPI DUP1 PUSH4 0x6376D2D8 EQ PUSH2 0x76B JUMPI DUP4 DUP2 PUSH4 0x6CD40A58 EQ PUSH2 0x723 JUMPI POP DUP1 PUSH4 0x70A08231 EQ PUSH2 0x6EC JUMPI DUP1 PUSH4 0x715018A6 EQ PUSH2 0x68C JUMPI DUP1 PUSH4 0x79CC6790 EQ PUSH2 0x627 JUMPI DUP1 PUSH4 0x7BC1F6CC EQ PUSH2 0x5EF JUMPI DUP1 PUSH4 0x7D1D5D19 EQ PUSH2 0x5D2 JUMPI DUP1 PUSH4 0x8DA5CB5B EQ PUSH2 0x5A9 JUMPI DUP1 PUSH4 0x95D89B41 EQ PUSH2 0x489 JUMPI DUP1 PUSH4 0xA9059CBB EQ PUSH2 0x458 JUMPI DUP1 PUSH4 0xB7CBF503 EQ PUSH2 0x420 JUMPI DUP1 PUSH4 0xDD62ED3E EQ PUSH2 0x3D7 JUMPI DUP1 PUSH4 0xDE5F72FD EQ PUSH2 0x1B4 JUMPI PUSH4 0xF2FDE38B EQ PUSH2 0x122 JUMPI PUSH1 0x0 DUP1 REVERT JUMPDEST CALLVALUE PUSH2 0x1B0 JUMPI PUSH1 0x20 CALLDATASIZE PUSH1 0x3 NOT ADD SLT PUSH2 0x1B0 JUMPI PUSH2 0x13B PUSH2 0xCB6 JUMP JUMPDEST SWAP1 PUSH2 0x144 PUSH2 0xCE7 JUMP JUMPDEST PUSH1 0x1 PUSH1 0x1 PUSH1 0xA0 SHL SUB SWAP2 DUP3 AND SWAP3 DUP4 ISZERO PUSH2 0x19A JUMPI POP POP PUSH1 0x5 SLOAD DUP3 PUSH12 0xFFFFFFFFFFFFFFFFFFFFFFFF PUSH1 0xA0 SHL DUP3 AND OR PUSH1 0x5 SSTORE AND PUSH32 0x8BE0079C531659141344CD1FD0A4F28419497F9722A3DAAFE3B4186F6B6457E0 DUP4 DUP1 LOG3 DUP1 RETURN JUMPDEST MLOAD PUSH4 0x1E4FBDF7 PUSH1 0xE0 SHL DUP2 MSTORE SWAP1 DUP2 ADD DUP5 SWAP1 MSTORE PUSH1 0x24 SWAP1 REVERT JUMPDEST DUP3 DUP1 REVERT JUMPDEST POP SWAP2 SWAP1 CALLVALUE PUSH2 0x3D3 JUMPI DUP2 PUSH1 0x3 NOT CALLDATASIZE ADD SLT PUSH2 0x3D3 JUMPI PUSH1 0x2 PUSH1 0x6 SLOAD EQ PUSH2 0x3C4 JUMPI PUSH1 0x2 PUSH1 0x6 SSTORE CALLER DUP3 MSTORE PUSH1 0x20 PUSH1 0x8 DUP2 MSTORE DUP2 DUP4 KECCAK256 SLOAD PUSH2 0xE10 DUP2 ADD DUP1 SWAP2 GT PUSH2 0x3B1 JUMPI TIMESTAMP LT PUSH2 0x376 JUMPI CALLER DUP4 MSTORE PUSH1 0x9 DUP2 MSTORE PUSH4 0x3B9ACA00 SWAP2 DUP3 DUP2 DUP6 KECCAK256 SLOAD LT ISZERO PUSH2 0x333 JUMPI PUSH1 0x2 SLOAD DUP4 DUP2 ADD DUP1 SWAP2 GT PUSH2 0x2B4 JUMPI PUSH1 0xA SLOAD LT PUSH2 0x2F0 JUMPI CALLER DUP5 MSTORE PUSH1 0x8 DUP3 MSTORE TIMESTAMP DUP2 DUP6 KECCAK256 SSTORE PUSH1 0x9 DUP3 MSTORE DUP1 DUP5 KECCAK256 DUP1 SLOAD SWAP1 DUP5 DUP3 ADD DUP1 SWAP3 GT PUSH2 0x2DD JUMPI SSTORE CALLER ISZERO PUSH2 0x2C7 JUMPI PUSH1 0x2 SLOAD DUP4 DUP2 ADD DUP1 SWAP2 GT PUSH2 0x2B4 JUMPI SWAP1 PUSH32 0xC471DF7D13AB46C73EC6EB2DA0F35F84077F20D50243BA09A714B82CFFC54DE9 SWAP3 SWAP2 PUSH1 0x2 SSTORE CALLER DUP6 MSTORE DUP5 DUP3 MSTORE DUP1 DUP6 KECCAK256 DUP5 DUP2 SLOAD ADD SWAP1 SSTORE DUP1 MLOAD DUP5 DUP2 MSTORE DUP6 PUSH1 0x0 DUP1 MLOAD PUSH1 0x20 PUSH2 0xE6D DUP4 CODECOPY DUP2 MLOAD SWAP2 MSTORE DUP5 CALLER SWAP4 LOG3 MLOAD SWAP3 DUP4 MSTORE CALLER SWAP3 LOG2 PUSH1 0x1 PUSH1 0x6 SSTORE DUP1 RETURN JUMPDEST PUSH4 0x4E487B71 PUSH1 0xE0 SHL DUP6 MSTORE PUSH1 0x11 DUP7 MSTORE PUSH1 0x24 DUP6 REVERT JUMPDEST MLOAD PUSH4 0xEC442F05 PUSH1 0xE0 SHL DUP2 MSTORE DUP1 DUP6 ADD DUP5 SWAP1 MSTORE PUSH1 0x24 SWAP1 REVERT JUMPDEST PUSH4 0x4E487B71 PUSH1 0xE0 SHL DUP7 MSTORE PUSH1 0x11 DUP8 MSTORE PUSH1 0x24 DUP7 REVERT JUMPDEST MLOAD PUSH3 0x461BCD PUSH1 0xE5 SHL DUP2 MSTORE DUP1 DUP6 ADD SWAP2 SWAP1 SWAP2 MSTORE PUSH1 0x17 PUSH1 0x24 DUP3 ADD MSTORE PUSH32 0x46617563657420737570706C7920657868617573746564000000000000000000 PUSH1 0x44 DUP3 ADD MSTORE PUSH1 0x64 SWAP1 REVERT JUMPDEST MLOAD PUSH3 0x461BCD PUSH1 0xE5 SHL DUP2 MSTORE DUP1 DUP6 ADD SWAP2 SWAP1 SWAP2 MSTORE PUSH1 0x19 PUSH1 0x24 DUP3 ADD MSTORE PUSH32 0x4D61782066617563657420616D6F756E74207265616368656400000000000000 PUSH1 0x44 DUP3 ADD MSTORE PUSH1 0x64 SWAP1 REVERT JUMPDEST DUP4 SWAP1 PUSH1 0x64 SWAP3 MLOAD SWAP2 PUSH3 0x461BCD PUSH1 0xE5 SHL DUP4 MSTORE DUP3 ADD MSTORE PUSH1 0x16 PUSH1 0x24 DUP3 ADD MSTORE PUSH22 0x46617563657420636F6F6C646F776E20616374697665 PUSH1 0x50 SHL PUSH1 0x44 DUP3 ADD MSTORE REVERT JUMPDEST PUSH4 0x4E487B71 PUSH1 0xE0 SHL DUP5 MSTORE PUSH1 0x11 DUP6 MSTORE PUSH1 0x24 DUP5 REVERT JUMPDEST MLOAD PUSH4 0x3EE5AEB5 PUSH1 0xE0 SHL DUP2 MSTORE SWAP1 POP REVERT JUMPDEST POP DUP1 REVERT JUMPDEST POP POP CALLVALUE PUSH2 0x3D3 JUMPI DUP1 PUSH1 0x3 NOT CALLDATASIZE ADD SLT PUSH2 0x3D3 JUMPI DUP1 PUSH1 0x20 SWAP3 PUSH2 0x3F5 PUSH2 0xCB6 JUMP JUMPDEST PUSH2 0x3FD PUSH2 0xCD1 JUMP JUMPDEST PUSH1 0x1 PUSH1 0x1 PUSH1 0xA0 SHL SUB SWAP2 DUP3 AND DUP4 MSTORE PUSH1 0x1 DUP7 MSTORE DUP4 DUP4 KECCAK256 SWAP2 AND DUP3 MSTORE DUP5 MSTORE KECCAK256 SLOAD SWAP1 MLOAD SWAP1 DUP2 MSTORE RETURN JUMPDEST POP POP CALLVALUE PUSH2 0x3D3 JUMPI PUSH1 0x20 CALLDATASIZE PUSH1 0x3 NOT ADD SLT PUSH2 0x3D3 JUMPI PUSH1 0x20 SWAP2 DUP2 SWAP1 PUSH1 0x1 PUSH1 0x1 PUSH1 0xA0 SHL SUB PUSH2 0x448 PUSH2 0xCB6 JUMP JUMPDEST AND DUP2 MSTORE PUSH1 0x9 DUP5 MSTORE KECCAK256 SLOAD SWAP1 MLOAD SWAP1 DUP2 MSTORE RETURN JUMPDEST POP POP CALLVALUE PUSH2 0x3D3 JUMPI DUP1 PUSH1 0x3 NOT CALLDATASIZE ADD SLT PUSH2 0x3D3 JUMPI PUSH1 0x20 SWAP1 PUSH2 0x482 PUSH2 0x478 PUSH2 0xCB6 JUMP JUMPDEST PUSH1 0x24 CALLDATALOAD SWAP1 CALLER PUSH2 0xD13 JUMP JUMPDEST MLOAD PUSH1 0x1 DUP2 MSTORE RETURN JUMPDEST POP SWAP2 SWAP1 CALLVALUE PUSH2 0x3D3 JUMPI DUP2 PUSH1 0x3 NOT CALLDATASIZE ADD SLT PUSH2 0x3D3 JUMPI DUP1 MLOAD SWAP1 DUP3 DUP5 SLOAD PUSH1 0x1 DUP2 DUP2 SHR SWAP1 DUP1 DUP4 AND SWAP3 DUP4 ISZERO PUSH2 0x59F JUMPI JUMPDEST PUSH1 0x20 SWAP4 DUP5 DUP5 LT DUP2 EQ PUSH2 0x58C JUMPI DUP4 DUP9 MSTORE SWAP1 DUP2 ISZERO PUSH2 0x570 JUMPI POP PUSH1 0x1 EQ PUSH2 0x51B JUMPI JUMPDEST POP POP POP DUP3 SWAP1 SUB PUSH1 0x1F ADD PUSH1 0x1F NOT AND DUP3 ADD SWAP3 PUSH8 0xFFFFFFFFFFFFFFFF DUP5 GT DUP4 DUP6 LT OR PUSH2 0x508 JUMPI POP DUP3 SWAP2 DUP3 PUSH2 0x504 SWAP3 MSTORE DUP3 PUSH2 0xC6D JUMP JUMPDEST SUB SWAP1 RETURN JUMPDEST PUSH4 0x4E487B71 PUSH1 0xE0 SHL DUP2 MSTORE PUSH1 0x41 DUP6 MSTORE PUSH1 0x24 SWAP1 REVERT JUMPDEST DUP8 DUP8 MSTORE SWAP2 SWAP3 POP DUP6 SWAP2 DUP4 PUSH32 0x8A35ACFBC15FF81A39AE7D344FD709F28E8600B4AA8C65C6B64BFE7FE36BD19B JUMPDEST DUP4 DUP6 LT PUSH2 0x55C JUMPI POP POP POP POP DUP4 ADD ADD CODESIZE DUP1 DUP1 PUSH2 0x4D2 JUMP JUMPDEST DUP1 SLOAD DUP9 DUP7 ADD DUP4 ADD MSTORE SWAP4 ADD SWAP3 DUP5 SWAP1 DUP3 ADD PUSH2 0x546 JUMP JUMPDEST PUSH1 0xFF NOT AND DUP8 DUP6 ADD MSTORE POP POP ISZERO ISZERO PUSH1 0x5 SHL DUP5 ADD ADD SWAP1 POP CODESIZE DUP1 DUP1 PUSH2 0x4D2 JUMP JUMPDEST PUSH4 0x4E487B71 PUSH1 0xE0 SHL DUP10 MSTORE PUSH1 0x22 DUP11 MSTORE PUSH1 0x24 DUP10 REVERT JUMPDEST SWAP2 PUSH1 0x7F AND SWAP2 PUSH2 0x4B3 JUMP JUMPDEST POP POP CALLVALUE PUSH2 0x3D3 JUMPI DUP2 PUSH1 0x3 NOT CALLDATASIZE ADD SLT PUSH2 0x3D3 JUMPI PUSH1 0x5 SLOAD SWAP1 MLOAD PUSH1 0x1 PUSH1 0x1 PUSH1 0xA0 SHL SUB SWAP1 SWAP2 AND DUP2 MSTORE PUSH1 0x20 SWAP1 RETURN JUMPDEST POP POP CALLVALUE PUSH2 0x3D3 JUMPI DUP2 PUSH1 0x3 NOT CALLDATASIZE ADD SLT PUSH2 0x3D3 JUMPI PUSH1 0x20 SWAP1 MLOAD PUSH2 0xE10 DUP2 MSTORE RETURN JUMPDEST POP POP CALLVALUE PUSH2 0x3D3 JUMPI PUSH1 0x20 CALLDATASIZE PUSH1 0x3 NOT ADD SLT PUSH2 0x3D3 JUMPI PUSH1 0x20 SWAP2 DUP2 SWAP1 PUSH1 0x1 PUSH1 0x1 PUSH1 0xA0 SHL SUB PUSH2 0x617 PUSH2 0xCB6 JUMP JUMPDEST AND DUP2 MSTORE PUSH1 0x8 DUP5 MSTORE KECCAK256 SLOAD SWAP1 MLOAD SWAP1 DUP2 MSTORE RETURN JUMPDEST POP POP CALLVALUE PUSH2 0x3D3 JUMPI DUP1 PUSH1 0x3 NOT CALLDATASIZE ADD SLT PUSH2 0x3D3 JUMPI PUSH32 0xFD38818F5291BF0BB3A2A48AADC06BA8757865D1DABD804585338AAB3009DCB6 PUSH1 0x20 PUSH2 0x664 PUSH2 0xCB6 JUMP JUMPDEST PUSH1 0x24 CALLDATALOAD SWAP4 PUSH2 0x670 PUSH2 0xCE7 JUMP JUMPDEST PUSH2 0x67A DUP6 DUP4 PUSH2 0xDDF JUMP JUMPDEST MLOAD SWAP4 DUP5 MSTORE PUSH1 0x1 PUSH1 0x1 PUSH1 0xA0 SHL SUB AND SWAP3 LOG2 DUP1 RETURN JUMPDEST DUP4 CALLVALUE PUSH2 0x6E9 JUMPI DUP1 PUSH1 0x3 NOT CALLDATASIZE ADD SLT PUSH2 0x6E9 JUMPI PUSH2 0x6A5 PUSH2 0xCE7 JUMP JUMPDEST PUSH1 0x5 DUP1 SLOAD PUSH1 0x1 PUSH1 0x1 PUSH1 0xA0 SHL SUB NOT DUP2 AND SWAP1 SWAP2 SSTORE DUP2 SWAP1 PUSH1 0x1 PUSH1 0x1 PUSH1 0xA0 SHL SUB AND PUSH32 0x8BE0079C531659141344CD1FD0A4F28419497F9722A3DAAFE3B4186F6B6457E0 DUP3 DUP1 LOG3 DUP1 RETURN JUMPDEST DUP1 REVERT JUMPDEST POP POP CALLVALUE PUSH2 0x3D3 JUMPI PUSH1 0x20 CALLDATASIZE PUSH1 0x3 NOT ADD SLT PUSH2 0x3D3 JUMPI PUSH1 0x20 SWAP2 DUP2 SWAP1 PUSH1 0x1 PUSH1 0x1 PUSH1 0xA0 SHL SUB PUSH2 0x714 PUSH2 0xCB6 JUMP JUMPDEST AND DUP2 MSTORE DUP1 DUP5 MSTORE KECCAK256 SLOAD SWAP1 MLOAD SWAP1 DUP2 MSTORE RETURN JUMPDEST DUP1 DUP5 CALLVALUE PUSH2 0x768 JUMPI PUSH1 0x20 CALLDATASIZE PUSH1 0x3 NOT ADD SLT PUSH2 0x768 JUMPI PUSH2 0x73E PUSH2 0xCB6 JUMP JUMPDEST PUSH2 0x746 PUSH2 0xCE7 JUMP JUMPDEST PUSH1 0x1 PUSH1 0x1 PUSH1 0xA0 SHL SUB AND DUP3 MSTORE PUSH1 0x8 PUSH1 0x20 SWAP1 DUP2 MSTORE DUP2 DUP4 KECCAK256 DUP4 SWAP1 SSTORE PUSH1 0x9 SWAP1 MSTORE DUP2 KECCAK256 SSTORE DUP1 RETURN JUMPDEST POP REVERT JUMPDEST POP POP CALLVALUE PUSH2 0x3D3 JUMPI DUP2 PUSH1 0x3 NOT CALLDATASIZE ADD SLT PUSH2 0x3D3 JUMPI PUSH1 0x20 SWAP1 MLOAD PUSH4 0x3B9ACA00 DUP2 MSTORE RETURN JUMPDEST POP SWAP2 SWAP1 CALLVALUE PUSH2 0x3D3 JUMPI PUSH1 0x20 SWAP1 DUP2 PUSH1 0x3 NOT CALLDATASIZE ADD SLT PUSH2 0x1B0 JUMPI PUSH2 0x7A8 PUSH2 0xCB6 JUMP JUMPDEST PUSH1 0x1 PUSH1 0x1 PUSH1 0xA0 SHL SUB AND DUP1 DUP5 MSTORE PUSH1 0x8 DUP4 MSTORE DUP2 DUP5 KECCAK256 SLOAD PUSH2 0xE10 SWAP5 SWAP1 DUP6 DUP2 ADD SWAP1 DUP2 LT PUSH2 0x834 JUMPI TIMESTAMP LT ISZERO SWAP5 DUP6 PUSH2 0x87B JUMPI JUMPDEST DUP3 DUP3 MSTORE PUSH1 0x8 DUP6 MSTORE DUP4 DUP3 KECCAK256 SLOAD DUP2 DUP2 ADD DUP1 SWAP2 GT PUSH2 0x868 JUMPI TIMESTAMP LT ISZERO PUSH2 0x85A JUMPI DUP3 DUP3 MSTORE PUSH1 0x8 DUP6 MSTORE DUP4 DUP3 KECCAK256 SLOAD SWAP1 DUP1 DUP3 ADD SWAP2 DUP3 DUP2 GT PUSH2 0x847 JUMPI TIMESTAMP SWAP1 SUB ADD SWAP1 DUP2 GT PUSH2 0x834 JUMPI PUSH1 0x60 SWAP7 POP SWAP1 DUP4 SWAP2 SWAP3 JUMPDEST DUP2 MSTORE PUSH1 0x9 DUP6 MSTORE KECCAK256 SLOAD SWAP3 DUP3 MLOAD SWAP5 ISZERO ISZERO DUP6 MSTORE DUP5 ADD MSTORE DUP3 ADD MSTORE RETURN JUMPDEST PUSH4 0x4E487B71 PUSH1 0xE0 SHL DUP3 MSTORE PUSH1 0x11 DUP8 MSTORE PUSH1 0x24 DUP3 REVERT JUMPDEST PUSH4 0x4E487B71 PUSH1 0xE0 SHL DUP5 MSTORE PUSH1 0x11 DUP10 MSTORE PUSH1 0x24 DUP5 REVERT JUMPDEST POP PUSH1 0x60 SWAP6 POP DUP1 DUP4 SWAP2 SWAP3 PUSH2 0x81C JUMP JUMPDEST PUSH4 0x4E487B71 PUSH1 0xE0 SHL DUP4 MSTORE PUSH1 0x11 DUP9 MSTORE PUSH1 0x24 DUP4 REVERT JUMPDEST SWAP5 POP DUP2 DUP2 MSTORE PUSH1 0x9 DUP5 MSTORE PUSH4 0x3B9ACA00 DUP4 DUP3 KECCAK256 SLOAD LT SWAP5 PUSH2 0x7D5 JUMP JUMPDEST POP CALLVALUE PUSH2 0x1B0 JUMPI PUSH1 0x20 CALLDATASIZE PUSH1 0x3 NOT ADD SLT PUSH2 0x1B0 JUMPI CALLDATALOAD SWAP1 PUSH2 0x8B2 DUP3 CALLER PUSH2 0xDDF JUMP JUMPDEST MLOAD SWAP1 DUP2 MSTORE PUSH32 0xFD38818F5291BF0BB3A2A48AADC06BA8757865D1DABD804585338AAB3009DCB6 PUSH1 0x20 CALLER SWAP3 LOG2 DUP1 RETURN JUMPDEST POP SWAP1 CALLVALUE PUSH2 0x1B0 JUMPI DUP1 PUSH1 0x3 NOT CALLDATASIZE ADD SLT PUSH2 0x1B0 JUMPI PUSH2 0x8F9 PUSH2 0xCB6 JUMP JUMPDEST SWAP1 PUSH1 0x24 CALLDATALOAD SWAP2 PUSH2 0x906 PUSH2 0xCE7 JUMP JUMPDEST PUSH1 0x1 PUSH1 0x1 PUSH1 0xA0 SHL SUB AND SWAP3 DUP4 ISZERO PUSH2 0x967 JUMPI PUSH1 0x2 SLOAD SWAP1 DUP4 DUP3 ADD DUP1 SWAP3 GT PUSH2 0x954 JUMPI POP DUP5 SWAP3 PUSH1 0x0 DUP1 MLOAD PUSH1 0x20 PUSH2 0xE6D DUP4 CODECOPY DUP2 MLOAD SWAP2 MSTORE SWAP3 PUSH1 0x20 SWAP3 PUSH1 0x2 SSTORE DUP6 DUP6 MSTORE DUP5 DUP4 MSTORE DUP1 DUP6 KECCAK256 DUP3 DUP2 SLOAD ADD SWAP1 SSTORE MLOAD SWAP1 DUP2 MSTORE LOG3 DUP1 RETURN JUMPDEST PUSH4 0x4E487B71 PUSH1 0xE0 SHL DUP7 MSTORE PUSH1 0x11 SWAP1 MSTORE PUSH1 0x24 DUP6 REVERT JUMPDEST DUP5 PUSH1 0x24 SWAP3 MLOAD SWAP2 PUSH4 0xEC442F05 PUSH1 0xE0 SHL DUP4 MSTORE DUP3 ADD MSTORE REVERT JUMPDEST POP POP CALLVALUE PUSH2 0x3D3 JUMPI DUP2 PUSH1 0x3 NOT CALLDATASIZE ADD SLT PUSH2 0x3D3 JUMPI PUSH1 0x20 SWAP1 PUSH1 0xFF PUSH1 0x7 SLOAD AND SWAP1 MLOAD SWAP1 DUP2 MSTORE RETURN JUMPDEST POP POP CALLVALUE PUSH2 0x3D3 JUMPI DUP2 PUSH1 0x3 NOT CALLDATASIZE ADD SLT PUSH2 0x3D3 JUMPI PUSH1 0x20 SWAP1 PUSH1 0xA SLOAD SWAP1 MLOAD SWAP1 DUP2 MSTORE RETURN JUMPDEST POP DUP3 CALLVALUE PUSH2 0x6E9 JUMPI PUSH1 0x60 CALLDATASIZE PUSH1 0x3 NOT ADD SLT PUSH2 0x6E9 JUMPI PUSH2 0x9D8 PUSH2 0xCB6 JUMP JUMPDEST PUSH2 0x9E0 PUSH2 0xCD1 JUMP JUMPDEST SWAP2 PUSH1 0x44 CALLDATALOAD SWAP4 PUSH1 0x1 DUP1 PUSH1 0xA0 SHL SUB DUP4 AND DUP1 DUP4 MSTORE PUSH1 0x1 PUSH1 0x20 MSTORE DUP7 DUP4 KECCAK256 CALLER DUP5 MSTORE PUSH1 0x20 MSTORE DUP7 DUP4 KECCAK256 SLOAD SWAP2 PUSH1 0x0 NOT DUP4 LT PUSH2 0xA1C JUMPI JUMPDEST PUSH1 0x20 DUP9 PUSH2 0x482 DUP10 DUP10 DUP10 PUSH2 0xD13 JUMP JUMPDEST DUP7 DUP4 LT PUSH2 0xA84 JUMPI DUP2 ISZERO PUSH2 0xA6D JUMPI CALLER ISZERO PUSH2 0xA56 JUMPI POP DUP3 MSTORE PUSH1 0x1 PUSH1 0x20 SWAP1 DUP2 MSTORE DUP7 DUP4 KECCAK256 CALLER DUP5 MSTORE DUP2 MSTORE SWAP2 DUP7 SWAP1 KECCAK256 SWAP1 DUP6 SWAP1 SUB SWAP1 SSTORE DUP3 SWAP1 PUSH2 0x482 DUP8 PUSH2 0xA0E JUMP JUMPDEST DUP8 MLOAD PUSH4 0x4A1406B1 PUSH1 0xE1 SHL DUP2 MSTORE SWAP1 DUP2 ADD DUP5 SWAP1 MSTORE PUSH1 0x24 SWAP1 REVERT JUMPDEST DUP8 MLOAD PUSH4 0xE602DF05 PUSH1 0xE0 SHL DUP2 MSTORE SWAP1 DUP2 ADD DUP5 SWAP1 MSTORE PUSH1 0x24 SWAP1 REVERT JUMPDEST DUP8 MLOAD PUSH4 0x7DC7A0D9 PUSH1 0xE1 SHL DUP2 MSTORE CALLER SWAP2 DUP2 ADD SWAP2 DUP3 MSTORE PUSH1 0x20 DUP3 ADD SWAP4 SWAP1 SWAP4 MSTORE PUSH1 0x40 DUP2 ADD DUP8 SWAP1 MSTORE DUP3 SWAP2 POP PUSH1 0x60 ADD SUB SWAP1 REVERT JUMPDEST POP POP CALLVALUE PUSH2 0x3D3 JUMPI DUP2 PUSH1 0x3 NOT CALLDATASIZE ADD SLT PUSH2 0x3D3 JUMPI PUSH1 0x20 SWAP1 PUSH1 0x2 SLOAD SWAP1 MLOAD SWAP1 DUP2 MSTORE RETURN JUMPDEST POP CALLVALUE PUSH2 0x1B0 JUMPI DUP2 PUSH1 0x3 NOT CALLDATASIZE ADD SLT PUSH2 0x1B0 JUMPI PUSH2 0xAE8 PUSH2 0xCB6 JUMP JUMPDEST PUSH1 0x24 CALLDATALOAD SWAP1 CALLER ISZERO PUSH2 0xB61 JUMPI PUSH1 0x1 PUSH1 0x1 PUSH1 0xA0 SHL SUB AND SWAP2 DUP3 ISZERO PUSH2 0xB4A JUMPI POP DUP1 DUP4 PUSH1 0x20 SWAP6 CALLER DUP2 MSTORE PUSH1 0x1 DUP8 MSTORE DUP2 DUP2 KECCAK256 DUP6 DUP3 MSTORE DUP8 MSTORE KECCAK256 SSTORE DUP3 MLOAD SWAP1 DUP2 MSTORE PUSH32 0x8C5BE1E5EBEC7D5BD14F71427D1E84F3DD0314C0F7B2291E5B200AC8C7C3B925 DUP5 CALLER SWAP3 LOG3 MLOAD PUSH1 0x1 DUP2 MSTORE RETURN JUMPDEST DUP4 MLOAD PUSH4 0x4A1406B1 PUSH1 0xE1 SHL DUP2 MSTORE SWAP1 DUP2 ADD DUP6 SWAP1 MSTORE PUSH1 0x24 SWAP1 REVERT JUMPDEST DUP4 MLOAD PUSH4 0xE602DF05 PUSH1 0xE0 SHL DUP2 MSTORE DUP1 DUP5 ADD DUP7 SWAP1 MSTORE PUSH1 0x24 SWAP1 REVERT JUMPDEST DUP5 SWAP2 POP DUP4 CALLVALUE PUSH2 0x1B0 JUMPI DUP3 PUSH1 0x3 NOT CALLDATASIZE ADD SLT PUSH2 0x1B0 JUMPI DUP3 PUSH1 0x3 SLOAD PUSH1 0x1 DUP2 DUP2 SHR SWAP1 DUP1 DUP4 AND SWAP3 DUP4 ISZERO PUSH2 0xC63 JUMPI JUMPDEST PUSH1 0x20 SWAP4 DUP5 DUP5 LT DUP2 EQ PUSH2 0x58C JUMPI DUP4 DUP9 MSTORE SWAP1 DUP2 ISZERO PUSH2 0xC47 JUMPI POP PUSH1 0x1 EQ PUSH2 0xBF1 JUMPI POP POP POP DUP3 SWAP1 SUB PUSH1 0x1F ADD PUSH1 0x1F NOT AND DUP3 ADD SWAP3 PUSH8 0xFFFFFFFFFFFFFFFF DUP5 GT DUP4 DUP6 LT OR PUSH2 0x508 JUMPI POP DUP3 SWAP2 DUP3 PUSH2 0x504 SWAP3 MSTORE DUP3 PUSH2 0xC6D JUMP JUMPDEST PUSH1 0x3 DUP8 MSTORE SWAP2 SWAP3 POP DUP6 SWAP2 DUP4 PUSH32 0xC2575A0E9E593C00F959F8C92F12DB2869C3395A3B0502D05E2516446F71F85B JUMPDEST DUP4 DUP6 LT PUSH2 0xC33 JUMPI POP POP POP POP DUP4 ADD ADD DUP6 DUP1 DUP1 PUSH2 0x4D2 JUMP JUMPDEST DUP1 SLOAD DUP9 DUP7 ADD DUP4 ADD MSTORE SWAP4 ADD SWAP3 DUP5 SWAP1 DUP3 ADD PUSH2 0xC1D JUMP JUMPDEST PUSH1 0xFF NOT AND DUP8 DUP6 ADD MSTORE POP POP ISZERO ISZERO PUSH1 0x5 SHL DUP5 ADD ADD SWAP1 POP DUP6 DUP1 DUP1 PUSH2 0x4D2 JUMP JUMPDEST SWAP2 PUSH1 0x7F AND SWAP2 PUSH2 0xBA1 JUMP JUMPDEST PUSH1 0x20 DUP1 DUP3 MSTORE DUP3 MLOAD DUP2 DUP4 ADD DUP2 SWAP1 MSTORE SWAP1 SWAP4 SWAP3 PUSH1 0x0 JUMPDEST DUP3 DUP2 LT PUSH2 0xCA2 JUMPI POP POP PUSH1 0x40 SWAP3 SWAP4 POP PUSH1 0x0 DUP4 DUP3 DUP5 ADD ADD MSTORE PUSH1 0x1F DUP1 NOT SWAP2 ADD AND ADD ADD SWAP1 JUMP JUMPDEST DUP2 DUP2 ADD DUP7 ADD MLOAD DUP5 DUP3 ADD PUSH1 0x40 ADD MSTORE DUP6 ADD PUSH2 0xC80 JUMP JUMPDEST PUSH1 0x4 CALLDATALOAD SWAP1 PUSH1 0x1 PUSH1 0x1 PUSH1 0xA0 SHL SUB DUP3 AND DUP3 SUB PUSH2 0xCCC JUMPI JUMP JUMPDEST PUSH1 0x0 DUP1 REVERT JUMPDEST PUSH1 0x24 CALLDATALOAD SWAP1 PUSH1 0x1 PUSH1 0x1 PUSH1 0xA0 SHL SUB DUP3 AND DUP3 SUB PUSH2 0xCCC JUMPI JUMP JUMPDEST PUSH1 0x5 SLOAD PUSH1 0x1 PUSH1 0x1 PUSH1 0xA0 SHL SUB AND CALLER SUB PUSH2 0xCFB JUMPI JUMP JUMPDEST PUSH1 0x40 MLOAD PUSH4 0x118CDAA7 PUSH1 0xE0 SHL DUP2 MSTORE CALLER PUSH1 0x4 DUP3 ADD MSTORE PUSH1 0x24 SWAP1 REVERT JUMPDEST SWAP2 PUSH1 0x1 PUSH1 0x1 PUSH1 0xA0 SHL SUB DUP1 DUP5 AND SWAP3 DUP4 ISZERO PUSH2 0xDC6 JUMPI AND SWAP3 DUP4 ISZERO PUSH2 0xDAD JUMPI PUSH1 0x0 SWAP1 DUP4 DUP3 MSTORE DUP2 PUSH1 0x20 MSTORE PUSH1 0x40 DUP3 KECCAK256 SLOAD SWAP1 DUP4 DUP3 LT PUSH2 0xD7B JUMPI POP SWAP2 PUSH1 0x40 DUP3 DUP3 PUSH1 0x0 DUP1 MLOAD PUSH1 0x20 PUSH2 0xE6D DUP4 CODECOPY DUP2 MLOAD SWAP2 MSTORE SWAP6 DUP8 PUSH1 0x20 SWAP7 MSTORE DUP3 DUP7 MSTORE SUB DUP3 DUP3 KECCAK256 SSTORE DUP7 DUP2 MSTORE KECCAK256 DUP2 DUP2 SLOAD ADD SWAP1 SSTORE PUSH1 0x40 MLOAD SWAP1 DUP2 MSTORE LOG3 JUMP JUMPDEST PUSH1 0x40 MLOAD PUSH4 0x391434E3 PUSH1 0xE2 SHL DUP2 MSTORE PUSH1 0x1 PUSH1 0x1 PUSH1 0xA0 SHL SUB SWAP2 SWAP1 SWAP2 AND PUSH1 0x4 DUP3 ADD MSTORE PUSH1 0x24 DUP2 ADD SWAP2 SWAP1 SWAP2 MSTORE PUSH1 0x44 DUP2 ADD DUP4 SWAP1 MSTORE PUSH1 0x64 SWAP1 REVERT JUMPDEST PUSH1 0x40 MLOAD PUSH4 0xEC442F05 PUSH1 0xE0 SHL DUP2 MSTORE PUSH1 0x0 PUSH1 0x4 DUP3 ADD MSTORE PUSH1 0x24 SWAP1 REVERT JUMPDEST PUSH1 0x40 MLOAD PUSH4 0x4B637E8F PUSH1 0xE1 SHL DUP2 MSTORE PUSH1 0x0 PUSH1 0x4 DUP3 ADD MSTORE PUSH1 0x24 SWAP1 REVERT JUMPDEST SWAP1 PUSH1 0x1 PUSH1 0x1 PUSH1 0xA0 SHL SUB DUP3 AND SWAP1 DUP2 ISZERO PUSH2 0xDC6 JUMPI PUSH1 0x0 SWAP3 DUP3 DUP5 MSTORE DUP4 PUSH1 0x20 MSTORE PUSH1 0x40 DUP5 KECCAK256 SLOAD SWAP1 DUP3 DUP3 LT PUSH2 0xE3A JUMPI POP DUP2 PUSH1 0x0 DUP1 MLOAD PUSH1 0x20 PUSH2 0xE6D DUP4 CODECOPY DUP2 MLOAD SWAP2 MSTORE SWAP3 PUSH1 0x20 SWAP3 DUP6 DUP8 MSTORE DUP7 DUP5 MSTORE SUB PUSH1 0x40 DUP7 KECCAK256 SSTORE DUP1 PUSH1 0x2 SLOAD SUB PUSH1 0x2 SSTORE PUSH1 0x40 MLOAD SWAP1 DUP2 MSTORE LOG3 JUMP JUMPDEST PUSH1 0x40 MLOAD PUSH4 0x391434E3 PUSH1 0xE2 SHL DUP2 MSTORE PUSH1 0x1 PUSH1 0x1 PUSH1 0xA0 SHL SUB SWAP2 SWAP1 SWAP2 AND PUSH1 0x4 DUP3 ADD MSTORE PUSH1 0x24 DUP2 ADD SWAP2 SWAP1 SWAP2 MSTORE PUSH1 0x44 DUP2 ADD DUP3 SWAP1 MSTORE PUSH1 0x64 SWAP1 REVERT INVALID 0xDD CALLCODE MSTORE 0xAD SHL 0xE2 0xC8 SWAP12 PUSH10 0xC2B068FC378DAA952BA7 CALL PUSH4 0xC4A11628 CREATE2 GAS 0x4D CREATE2 0x23 0xB3 0xEF LOG2 PUSH5 0x6970667358 0x22 SLT KECCAK256 0xAC 0xB8 GT 0xD7 0xEE POP SWAP13 SHL 0x28 0x4A 0xCF SWAP3 SLT SWAP11 GAS PUSH23 0x7F3A56CA9C5B2A008F03D09FD555B8C264736F6C634300 ADDMOD EQ STOP CALLER "},"methodIdentifiers":{"FAUCET_COOLDOWN()":"7d1d5d19","MAX_FAUCET_AMOUNT()":"6376d2d8","allowance(address,address)":"dd62ed3e","approve(address,uint256)":"095ea7b3","balanceOf(address)":"70a08231","burn(uint256)":"42966c68","burnFrom(address,uint256)":"79cc6790","decimals()":"313ce567","faucet()":"de5f72fd","getFaucetInfo(address)":"59c303ab","lastFaucetTime(address)":"7bc1f6cc","mint(address,uint256)":"40c10f19","name()":"06fdde03","owner()":"8da5cb5b","renounceOwnership()":"715018a6","resetFaucet(address)":"6cd40a58","symbol()":"95d89b41","totalFaucetClaimed(address)":"b7cbf503","totalFaucetSupply()":"305817e9","totalSupply()":"18160ddd","transfer(address,uint256)":"a9059cbb","transferFrom(address,address,uint256)":"23b872dd","transferOwnership(address)":"f2fde38b"}}}}}